{
	"data": {
		"bytecode": {
			"linkReferences": {},
			"object": "608060405234801562000010575f80fd5b5060405162004f5b38038062004f5b83398181016040528101906200003691906200024e565b8060405180606001604052806029815260200162004f326029913962000062816200011160201b60201c565b505f73ffffffffffffffffffffffffffffffffffffffff168173ffffffffffffffffffffffffffffffffffffffff1603620000d6575f6040517f1e4fbdf7000000000000000000000000000000000000000000000000000000008152600401620000cd91906200028f565b60405180910390fd5b620000e7816200012660201b60201c565b505f600360146101000a81548160ff021916908315150217905550600160048190555050620005f2565b80600290816200012291906200050e565b5050565b5f60035f9054906101000a900473ffffffffffffffffffffffffffffffffffffffff1690508160035f6101000a81548173ffffffffffffffffffffffffffffffffffffffff021916908373ffffffffffffffffffffffffffffffffffffffff1602179055508173ffffffffffffffffffffffffffffffffffffffff168173ffffffffffffffffffffffffffffffffffffffff167f8be0079c531659141344cd1fd0a4f28419497f9722a3daafe3b4186f6b6457e060405160405180910390a35050565b5f80fd5b5f73ffffffffffffffffffffffffffffffffffffffff82169050919050565b5f6200021882620001ed565b9050919050565b6200022a816200020c565b811462000235575f80fd5b50565b5f8151905062000248816200021f565b92915050565b5f60208284031215620002665762000265620001e9565b5b5f620002758482850162000238565b91505092915050565b62000289816200020c565b82525050565b5f602082019050620002a45f8301846200027e565b92915050565b5f81519050919050565b7f4e487b71000000000000000000000000000000000000000000000000000000005f52604160045260245ffd5b7f4e487b71000000000000000000000000000000000000000000000000000000005f52602260045260245ffd5b5f60028204905060018216806200032657607f821691505b6020821081036200033c576200033b620002e1565b5b50919050565b5f819050815f5260205f209050919050565b5f6020601f8301049050919050565b5f82821b905092915050565b5f60088302620003a07fffffffffffffffffffffffffffffffffffffffffffffffffffffffffffffffff8262000363565b620003ac868362000363565b95508019841693508086168417925050509392505050565b5f819050919050565b5f819050919050565b5f620003f6620003f0620003ea84620003c4565b620003cd565b620003c4565b9050919050565b5f819050919050565b6200041183620003d6565b620004296200042082620003fd565b8484546200036f565b825550505050565b5f90565b6200043f62000431565b6200044c81848462000406565b505050565b5b818110156200047357620004675f8262000435565b60018101905062000452565b5050565b601f821115620004c2576200048c8162000342565b620004978462000354565b81016020851015620004a7578190505b620004bf620004b68562000354565b83018262000451565b50505b505050565b5f82821c905092915050565b5f620004e45f1984600802620004c7565b1980831691505092915050565b5f620004fe8383620004d3565b9150826002028217905092915050565b6200051982620002aa565b67ffffffffffffffff811115620005355762000534620002b4565b5b6200054182546200030e565b6200054e82828562000477565b5f60209050601f83116001811462000584575f84156200056f578287015190505b6200057b8582620004f1565b865550620005ea565b601f198416620005948662000342565b5f5b82811015620005bd5784890151825560018201915060208501945060208101905062000596565b86831015620005dd5784890151620005d9601f891682620004d3565b8355505b6001600288020188555050505b505050505050565b61493280620006005f395ff3fe608060405260043610610168575f3560e01c8063715018a6116100d0578063c3c8d92d11610089578063f242432a11610063578063f242432a14610506578063f2fde38b1461052e578063f3e6264014610556578063f5298aca146105725761016f565b8063c3c8d92d14610465578063c8e34b271461048d578063e985e9c5146104ca5761016f565b8063715018a614610395578063731133e9146103ab5780638456cb59146103d35780638da5cb5b146103e9578063a22cb46514610413578063ae6b016c1461043b5761016f565b80632eb2c2d6116101225780632eb2c2d61461029f5780633f4ba83a146102c75780634e1273f4146102dd57806356189236146103195780635c975abb146103435780636b20c4541461036d5761016f565b8062fdd58e1461017357806301ffc9a7146101af57806302fe5305146101eb5780630e89341c146102135780631f7fdffa1461024f5780632d571cc4146102775761016f565b3661016f57005b5f80fd5b34801561017e575f80fd5b50610199600480360381019061019491906130bd565b61059a565b6040516101a6919061310a565b60405180910390f35b3480156101ba575f80fd5b506101d560048036038101906101d09190613178565b6105ef565b6040516101e291906131bd565b60405180910390f35b3480156101f6575f80fd5b50610211600480360381019061020c9190613312565b6106d0565b005b34801561021e575f80fd5b5061023960048036038101906102349190613359565b6106e4565b60405161024691906133fe565b60405180910390f35b34801561025a575f80fd5b5061027560048036038101906102709190613580565b610776565b005b348015610282575f80fd5b5061029d60048036038101906102989190613359565b610790565b005b3480156102aa575f80fd5b506102c560048036038101906102c09190613638565b610900565b005b3480156102d2575f80fd5b506102db6109a7565b005b3480156102e8575f80fd5b5061030360048036038101906102fe91906137c3565b6109b9565b60405161031091906138f0565b60405180910390f35b348015610324575f80fd5b5061032d610ac0565b60405161033a919061310a565b60405180910390f35b34801561034e575f80fd5b50610357610ac9565b60405161036491906131bd565b60405180910390f35b348015610378575f80fd5b50610393600480360381019061038e9190613910565b610adf565b005b3480156103a0575f80fd5b506103a9610b8b565b005b3480156103b6575f80fd5b506103d160048036038101906103cc9190613998565b610b9e565b005b3480156103de575f80fd5b506103e7610bb8565b005b3480156103f4575f80fd5b506103fd610bca565b60405161040a9190613a27565b60405180910390f35b34801561041e575f80fd5b5061043960048036038101906104349190613a6a565b610bf2565b005b348015610446575f80fd5b5061044f610c08565b60405161045c9190613bdf565b60405180910390f35b348015610470575f80fd5b5061048b60048036038101906104869190613bff565b610cf3565b005b348015610498575f80fd5b506104b360048036038101906104ae9190613c4f565b610f61565b6040516104c1929190613ce0565b60405180910390f35b3480156104d5575f80fd5b506104f060048036038101906104eb9190613d07565b61113d565b6040516104fd91906131bd565b60405180910390f35b348015610511575f80fd5b5061052c60048036038101906105279190613d45565b6111cb565b005b348015610539575f80fd5b50610554600480360381019061054f9190613dd8565b611272565b005b610570600480360381019061056b9190613e3e565b6112f6565b005b34801561057d575f80fd5b5061059860048036038101906105939190613e8e565b611740565b005b5f805f8381526020019081526020015f205f8473ffffffffffffffffffffffffffffffffffffffff1673ffffffffffffffffffffffffffffffffffffffff1681526020019081526020015f2054905092915050565b5f7fd9b67a26000000000000000000000000000000000000000000000000000000007bffffffffffffffffffffffffffffffffffffffffffffffffffffffff1916827bffffffffffffffffffffffffffffffffffffffffffffffffffffffff191614806106b957507f0e89341c000000000000000000000000000000000000000000000000000000007bffffffffffffffffffffffffffffffffffffffffffffffffffffffff1916827bffffffffffffffffffffffffffffffffffffffffffffffffffffffff1916145b806106c957506106c8826117ec565b5b9050919050565b6106d8611855565b6106e1816118dc565b50565b6060600280546106f390613f0b565b80601f016020809104026020016040519081016040528092919081815260200182805461071f90613f0b565b801561076a5780601f106107415761010080835404028352916020019161076a565b820191905f5260205f20905b81548152906001019060200180831161074d57829003601f168201915b50505050509050919050565b61077e611855565b61078a848484846118ef565b50505050565b6107d333600454836040518060400160405280600381526020017f3078300000000000000000000000000000000000000000000000000000000000815250611972565b604051806040016040528060045481526020018281525060055f60045481526020019081526020015f205f820151815f015560208201518160010155905050600660405180604001604052803373ffffffffffffffffffffffffffffffffffffffff168152602001600454815250908060018154018082558091505060019003905f5260205f2090600202015f909190919091505f820151815f015f6101000a81548173ffffffffffffffffffffffffffffffffffffffff021916908373ffffffffffffffffffffffffffffffffffffffff1602179055506020820151816001015550506004547f5871761b381266e7e47309f0821d5b396364ebb6371d878871cac5393cb93ea860405160405180910390a260045f8154809291906108f890613f68565b919050555050565b5f610909611a07565b90508073ffffffffffffffffffffffffffffffffffffffff168673ffffffffffffffffffffffffffffffffffffffff161415801561094e575061094c868261113d565b155b156109925780866040517fe237d922000000000000000000000000000000000000000000000000000000008152600401610989929190613faf565b60405180910390fd5b61099f8686868686611a0e565b505050505050565b6109af611855565b6109b7611b02565b565b60608151835114610a0557815183516040517f5b0599910000000000000000000000000000000000000000000000000000000081526004016109fc929190613fd6565b60405180910390fd5b5f835167ffffffffffffffff811115610a2157610a206131ee565b5b604051908082528060200260200182016040528015610a4f5781602001602082028036833780820191505090505b5090505f5b8451811015610ab557610a8b610a738287611b6490919063ffffffff16565b610a868387611b7790919063ffffffff16565b61059a565b828281518110610a9e57610a9d613ffd565b5b602002602001018181525050806001019050610a54565b508091505092915050565b5f600454905090565b5f600360149054906101000a900460ff16905090565b610ae7611a07565b73ffffffffffffffffffffffffffffffffffffffff168373ffffffffffffffffffffffffffffffffffffffff1614158015610b305750610b2e83610b29611a07565b61113d565b155b15610b7b57610b3d611a07565b836040517fe237d922000000000000000000000000000000000000000000000000000000008152600401610b72929190613faf565b60405180910390fd5b610b86838383611b8a565b505050565b610b93611855565b610b9c5f611c1a565b565b610ba6611855565b610bb284848484611972565b50505050565b610bc0611855565b610bc8611cdd565b565b5f60035f9054906101000a900473ffffffffffffffffffffffffffffffffffffffff16905090565b610c04610bfd611a07565b8383611d40565b5050565b60606007805480602002602001604051908101604052809291908181526020015f905b82821015610cea578382905f5260205f2090600502016040518060800160405290815f82016040518060400160405290815f82015481526020016001820154815250508152602001600282015f9054906101000a900473ffffffffffffffffffffffffffffffffffffffff1673ffffffffffffffffffffffffffffffffffffffff1673ffffffffffffffffffffffffffffffffffffffff1681526020016003820154815260200160048201548152505081526020019060010190610c2b565b50505050905090565b80610cfe338561059a565b1015610d3f576040517f08c379a0000000000000000000000000000000000000000000000000000000008152600401610d369061409a565b60405180910390fd5b5f5b600780549050811015610e56578360078281548110610d6357610d62613ffd565b5b905f5260205f2090600502015f015f0154148015610dee57503373ffffffffffffffffffffffffffffffffffffffff1660078281548110610da757610da6613ffd565b5b905f5260205f2090600502016002015f9054906101000a900473ffffffffffffffffffffffffffffffffffffffff1673ffffffffffffffffffffffffffffffffffffffff16145b15610e49578260078281548110610e0857610e07613ffd565b5b905f5260205f209060050201600301819055508160078281548110610e3057610e2f613ffd565b5b905f5260205f2090600502016004018190555050610f5c565b8080600101915050610d41565b506007604051806080016040528060055f8781526020019081526020015f206040518060400160405290815f820154815260200160018201548152505081526020013373ffffffffffffffffffffffffffffffffffffffff16815260200184815260200183815250908060018154018082558091505060019003905f5260205f2090600502015f909190919091505f820151815f015f820151815f01556020820151816001015550506020820151816002015f6101000a81548173ffffffffffffffffffffffffffffffffffffffff021916908373ffffffffffffffffffffffffffffffffffffffff160217905550604082015181600301556060820151816004015550505b505050565b610f69612f8e565b5f805f90505b6007805490508110156110f6578460078281548110610f9157610f90613ffd565b5b905f5260205f2090600502015f015f015414801561101c57508373ffffffffffffffffffffffffffffffffffffffff1660078281548110610fd557610fd4613ffd565b5b905f5260205f2090600502016002015f9054906101000a900473ffffffffffffffffffffffffffffffffffffffff1673ffffffffffffffffffffffffffffffffffffffff16145b156110e9576007818154811061103557611034613ffd565b5b905f5260205f20906005020181816040518060800160405290815f82016040518060400160405290815f82015481526020016001820154815250508152602001600282015f9054906101000a900473ffffffffffffffffffffffffffffffffffffffff1673ffffffffffffffffffffffffffffffffffffffff1673ffffffffffffffffffffffffffffffffffffffff1681526020016003820154815260200160048201548152505091509250925050611136565b8080600101915050610f6f565b5083836040517fc379e42500000000000000000000000000000000000000000000000000000000815260040161112d9291906140b8565b60405180910390fd5b9250929050565b5f60015f8473ffffffffffffffffffffffffffffffffffffffff1673ffffffffffffffffffffffffffffffffffffffff1681526020019081526020015f205f8373ffffffffffffffffffffffffffffffffffffffff1673ffffffffffffffffffffffffffffffffffffffff1681526020019081526020015f205f9054906101000a900460ff16905092915050565b5f6111d4611a07565b90508073ffffffffffffffffffffffffffffffffffffffff168673ffffffffffffffffffffffffffffffffffffffff16141580156112195750611217868261113d565b155b1561125d5780866040517fe237d922000000000000000000000000000000000000000000000000000000008152600401611254929190613faf565b60405180910390fd5b61126a8686868686611ea9565b505050505050565b61127a611855565b5f73ffffffffffffffffffffffffffffffffffffffff168173ffffffffffffffffffffffffffffffffffffffff16036112ea575f6040517f1e4fbdf70000000000000000000000000000000000000000000000000000000081526004016112e19190613a27565b60405180910390fd5b6112f381611c1a565b50565b80611301838561059a565b1015611342576040517f08c379a00000000000000000000000000000000000000000000000000000000081526004016113399061414f565b60405180910390fd5b5f8061134e8585610f61565b915091506113956040518060400160405280601181526020017f746f6b656e2073616c6570726963653a200000000000000000000000000000008152508360400151611faf565b6113d46040518060400160405280600881526020017f616d6f756e743a2000000000000000000000000000000000000000000000000081525084611faf565b6114136040518060400160405280600b81526020017f6d73672e76616c75653a2000000000000000000000000000000000000000000081525034611faf565b3373ffffffffffffffffffffffffffffffffffffffff16826020015173ffffffffffffffffffffffffffffffffffffffff1603611485576040517f08c379a000000000000000000000000000000000000000000000000000000000815260040161147c906141b7565b60405180910390fd5b82826060015110156114cc576040517f08c379a00000000000000000000000000000000000000000000000000000000081526004016114c390614245565b60405180910390fd5b348383604001516114dd9190614263565b111561151e576040517f08c379a000000000000000000000000000000000000000000000000000000000815260040161151590614314565b60405180910390fd5b611529336001610bf2565b5f8473ffffffffffffffffffffffffffffffffffffffff163460405161154e9061435f565b5f6040518083038185875af1925050503d805f8114611588576040519150601f19603f3d011682016040523d82523d5f602084013e61158d565b606091505b50509050806115d1576040517f08c379a00000000000000000000000000000000000000000000000000000000081526004016115c8906143bd565b60405180910390fd5b6115ec8533888760405180602001604052805f8152506111cb565b6115f6335f610bf2565b8383606001510361162d5761160b868661204b565b505f611617868861059a565b03611628576116268686612378565b505b611684565b836007838154811061164257611641613ffd565b5b905f5260205f2090600502016004015461165c91906143db565b600783815481106116705761166f613ffd565b5b905f5260205f209060050201600401819055505b8361168f338861059a565b0361173857600660405180604001604052803373ffffffffffffffffffffffffffffffffffffffff16815260200188815250908060018154018082558091505060019003905f5260205f2090600202015f909190919091505f820151815f015f6101000a81548173ffffffffffffffffffffffffffffffffffffffff021916908373ffffffffffffffffffffffffffffffffffffffff1602179055506020820151816001015550505b505050505050565b611748611a07565b73ffffffffffffffffffffffffffffffffffffffff168373ffffffffffffffffffffffffffffffffffffffff1614158015611791575061178f8361178a611a07565b61113d565b155b156117dc5761179e611a07565b836040517fe237d9220000000000000000000000000000000000000000000000000000000081526004016117d3929190613faf565b60405180910390fd5b6117e7838383612631565b505050565b5f7f01ffc9a7000000000000000000000000000000000000000000000000000000007bffffffffffffffffffffffffffffffffffffffffffffffffffffffff1916827bffffffffffffffffffffffffffffffffffffffffffffffffffffffff1916149050919050565b61185d611a07565b73ffffffffffffffffffffffffffffffffffffffff1661187b610bca565b73ffffffffffffffffffffffffffffffffffffffff16146118da5761189e611a07565b6040517f118cdaa70000000000000000000000000000000000000000000000000000000081526004016118d19190613a27565b60405180910390fd5b565b80600290816118eb91906145ab565b5050565b5f73ffffffffffffffffffffffffffffffffffffffff168473ffffffffffffffffffffffffffffffffffffffff160361195f575f6040517f57f447ce0000000000000000000000000000000000000000000000000000000081526004016119569190613a27565b60405180910390fd5b61196c5f858585856126d3565b50505050565b5f73ffffffffffffffffffffffffffffffffffffffff168473ffffffffffffffffffffffffffffffffffffffff16036119e2575f6040517f57f447ce0000000000000000000000000000000000000000000000000000000081526004016119d99190613a27565b60405180910390fd5b5f806119ee858561277f565b915091506119ff5f878484876126d3565b505050505050565b5f33905090565b5f73ffffffffffffffffffffffffffffffffffffffff168473ffffffffffffffffffffffffffffffffffffffff1603611a7e575f6040517f57f447ce000000000000000000000000000000000000000000000000000000008152600401611a759190613a27565b60405180910390fd5b5f73ffffffffffffffffffffffffffffffffffffffff168573ffffffffffffffffffffffffffffffffffffffff1603611aee575f6040517f01a83514000000000000000000000000000000000000000000000000000000008152600401611ae59190613a27565b60405180910390fd5b611afb85858585856126d3565b5050505050565b611b0a6127af565b5f600360146101000a81548160ff0219169083151502179055507f5db9ee0a495bf2e6ff9c91a7834c1ba4fdd244a5e8aa4e537bd38aeae4b073aa611b4d611a07565b604051611b5a9190613a27565b60405180910390a1565b5f60208202602084010151905092915050565b5f60208202602084010151905092915050565b5f73ffffffffffffffffffffffffffffffffffffffff168373ffffffffffffffffffffffffffffffffffffffff1603611bfa575f6040517f01a83514000000000000000000000000000000000000000000000000000000008152600401611bf19190613a27565b60405180910390fd5b611c15835f848460405180602001604052805f8152506126d3565b505050565b5f60035f9054906101000a900473ffffffffffffffffffffffffffffffffffffffff1690508160035f6101000a81548173ffffffffffffffffffffffffffffffffffffffff021916908373ffffffffffffffffffffffffffffffffffffffff1602179055508173ffffffffffffffffffffffffffffffffffffffff168173ffffffffffffffffffffffffffffffffffffffff167f8be0079c531659141344cd1fd0a4f28419497f9722a3daafe3b4186f6b6457e060405160405180910390a35050565b611ce56127ef565b6001600360146101000a81548160ff0219169083151502179055507f62e78cea01bee320cd4e420270b5ea74000d11b0c9f74754ebdbfc544b05a258611d29611a07565b604051611d369190613a27565b60405180910390a1565b5f73ffffffffffffffffffffffffffffffffffffffff168273ffffffffffffffffffffffffffffffffffffffff1603611db0575f6040517fced3e100000000000000000000000000000000000000000000000000000000008152600401611da79190613a27565b60405180910390fd5b8060015f8573ffffffffffffffffffffffffffffffffffffffff1673ffffffffffffffffffffffffffffffffffffffff1681526020019081526020015f205f8473ffffffffffffffffffffffffffffffffffffffff1673ffffffffffffffffffffffffffffffffffffffff1681526020019081526020015f205f6101000a81548160ff0219169083151502179055508173ffffffffffffffffffffffffffffffffffffffff168373ffffffffffffffffffffffffffffffffffffffff167f17307eab39ab6107e8899845ad3d59bd9653f200f220920489ca2b5937696c3183604051611e9c91906131bd565b60405180910390a3505050565b5f73ffffffffffffffffffffffffffffffffffffffff168473ffffffffffffffffffffffffffffffffffffffff1603611f19575f6040517f57f447ce000000000000000000000000000000000000000000000000000000008152600401611f109190613a27565b60405180910390fd5b5f73ffffffffffffffffffffffffffffffffffffffff168573ffffffffffffffffffffffffffffffffffffffff1603611f89575f6040517f01a83514000000000000000000000000000000000000000000000000000000008152600401611f809190613a27565b60405180910390fd5b5f80611f95858561277f565b91509150611fa687878484876126d3565b50505050505050565b6120478282604051602401611fc592919061467a565b6040516020818303038152906040527fb60e72cc000000000000000000000000000000000000000000000000000000007bffffffffffffffffffffffffffffffffffffffffffffffffffffffff19166020820180517bffffffffffffffffffffffffffffffffffffffffffffffffffffffff8381831617835250505050612830565b5050565b612053612f8e565b5f5b60078054905081101561233257836007828154811061207757612076613ffd565b5b905f5260205f2090600502015f015f015414801561210257508273ffffffffffffffffffffffffffffffffffffffff16600782815481106120bb576120ba613ffd565b5b905f5260205f2090600502016002015f9054906101000a900473ffffffffffffffffffffffffffffffffffffffff1673ffffffffffffffffffffffffffffffffffffffff16145b15612325575f6007828154811061211c5761211b613ffd565b5b905f5260205f2090600502016040518060800160405290815f82016040518060400160405290815f82015481526020016001820154815250508152602001600282015f9054906101000a900473ffffffffffffffffffffffffffffffffffffffff1673ffffffffffffffffffffffffffffffffffffffff1673ffffffffffffffffffffffffffffffffffffffff168152602001600382015481526020016004820154815250509050600760016007805490506121d891906143db565b815481106121e9576121e8613ffd565b5b905f5260205f2090600502016007838154811061220957612208613ffd565b5b905f5260205f2090600502015f8201815f015f820154815f0155600182015481600101555050600282015f9054906101000a900473ffffffffffffffffffffffffffffffffffffffff16816002015f6101000a81548173ffffffffffffffffffffffffffffffffffffffff021916908373ffffffffffffffffffffffffffffffffffffffff160217905550600382015481600301556004820154816004015590505060078054806122bd576122bc6146a8565b5b600190038181905f5260205f2090600502015f8082015f8082015f9055600182015f90555050600282015f6101000a81549073ffffffffffffffffffffffffffffffffffffffff0219169055600382015f9055600482015f9055505090558092505050612372565b8080600101915050612055565b5082826040517fc379e4250000000000000000000000000000000000000000000000000000000081526004016123699291906140b8565b60405180910390fd5b92915050565b612380612fcf565b5f5b6006805490508110156125eb5783600682815481106123a4576123a3613ffd565b5b905f5260205f2090600202016001015414801561242d57508273ffffffffffffffffffffffffffffffffffffffff16600682815481106123e7576123e6613ffd565b5b905f5260205f2090600202015f015f9054906101000a900473ffffffffffffffffffffffffffffffffffffffff1673ffffffffffffffffffffffffffffffffffffffff16145b156125de575f6006828154811061244757612446613ffd565b5b905f5260205f2090600202016040518060400160405290815f82015f9054906101000a900473ffffffffffffffffffffffffffffffffffffffff1673ffffffffffffffffffffffffffffffffffffffff1673ffffffffffffffffffffffffffffffffffffffff1681526020016001820154815250509050600660016006805490506124d291906143db565b815481106124e3576124e2613ffd565b5b905f5260205f2090600202016006838154811061250357612502613ffd565b5b905f5260205f2090600202015f82015f9054906101000a900473ffffffffffffffffffffffffffffffffffffffff16815f015f6101000a81548173ffffffffffffffffffffffffffffffffffffffff021916908373ffffffffffffffffffffffffffffffffffffffff160217905550600182015481600101559050506006805480612591576125906146a8565b5b600190038181905f5260205f2090600202015f8082015f6101000a81549073ffffffffffffffffffffffffffffffffffffffff0219169055600182015f905550509055809250505061262b565b8080600101915050612382565b5082826040517fc379e4250000000000000000000000000000000000000000000000000000000081526004016126229291906140b8565b60405180910390fd5b92915050565b5f73ffffffffffffffffffffffffffffffffffffffff168373ffffffffffffffffffffffffffffffffffffffff16036126a1575f6040517f01a835140000000000000000000000000000000000000000000000000000000081526004016126989190613a27565b60405180910390fd5b5f806126ad848461277f565b915091506126cc855f848460405180602001604052805f8152506126d3565b5050505050565b6126df8585858561284a565b5f73ffffffffffffffffffffffffffffffffffffffff168473ffffffffffffffffffffffffffffffffffffffff1614612778575f61271b611a07565b90506001845103612767575f61273a5f86611b7790919063ffffffff16565b90505f6127505f86611b7790919063ffffffff16565b905061276083898985858961285c565b5050612776565b612775818787878787612a0b565b5b505b5050505050565b60608060405191506001825283602083015260408201905060018152826020820152604081016040529250929050565b6127b7610ac9565b6127ed576040517f8dfc202b00000000000000000000000000000000000000000000000000000000815260040160405180910390fd5b565b6127f7610ac9565b1561282e576040517fd93c066500000000000000000000000000000000000000000000000000000000815260040160405180910390fd5b565b6128478161283f612bba612bd9565b63ffffffff16565b50565b61285684848484612be4565b50505050565b5f8473ffffffffffffffffffffffffffffffffffffffff163b1115612a03578373ffffffffffffffffffffffffffffffffffffffff1663f23a6e6187878686866040518663ffffffff1660e01b81526004016128bc959493929190614727565b6020604051808303815f875af19250505080156128f757506040513d601f19601f820116820180604052508101906128f49190614793565b60015b612978573d805f8114612925576040519150601f19603f3d011682016040523d82523d5f602084013e61292a565b606091505b505f81510361297057846040517f57f447ce0000000000000000000000000000000000000000000000000000000081526004016129679190613a27565b60405180910390fd5b805181602001fd5b63f23a6e6160e01b7bffffffffffffffffffffffffffffffffffffffffffffffffffffffff1916817bffffffffffffffffffffffffffffffffffffffffffffffffffffffff191614612a0157846040517f57f447ce0000000000000000000000000000000000000000000000000000000081526004016129f89190613a27565b60405180910390fd5b505b505050505050565b5f8473ffffffffffffffffffffffffffffffffffffffff163b1115612bb2578373ffffffffffffffffffffffffffffffffffffffff1663bc197c8187878686866040518663ffffffff1660e01b8152600401612a6b9594939291906147be565b6020604051808303815f875af1925050508015612aa657506040513d601f19601f82011682018060405250810190612aa39190614793565b60015b612b27573d805f8114612ad4576040519150601f19603f3d011682016040523d82523d5f602084013e612ad9565b606091505b505f815103612b1f57846040517f57f447ce000000000000000000000000000000000000000000000000000000008152600401612b169190613a27565b60405180910390fd5b805181602001fd5b63bc197c8160e01b7bffffffffffffffffffffffffffffffffffffffffffffffffffffffff1916817bffffffffffffffffffffffffffffffffffffffffffffffffffffffff191614612bb057846040517f57f447ce000000000000000000000000000000000000000000000000000000008152600401612ba79190613a27565b60405180910390fd5b505b505050505050565b5f6a636f6e736f6c652e6c6f6790505f80835160208501845afa505050565b612ffd819050919050565b612bec6127ef565b612bf884848484612bfe565b50505050565b8051825114612c4857815181516040517f5b059991000000000000000000000000000000000000000000000000000000008152600401612c3f929190613fd6565b60405180910390fd5b5f612c51611a07565b90505f5b8351811015612e4d575f612c728286611b7790919063ffffffff16565b90505f612c888386611b7790919063ffffffff16565b90505f73ffffffffffffffffffffffffffffffffffffffff168873ffffffffffffffffffffffffffffffffffffffff1614612dab575f805f8481526020019081526020015f205f8a73ffffffffffffffffffffffffffffffffffffffff1673ffffffffffffffffffffffffffffffffffffffff1681526020019081526020015f2054905081811015612d5757888183856040517f03dee4c5000000000000000000000000000000000000000000000000000000008152600401612d4e9493929190614824565b60405180910390fd5b8181035f808581526020019081526020015f205f8b73ffffffffffffffffffffffffffffffffffffffff1673ffffffffffffffffffffffffffffffffffffffff1681526020019081526020015f2081905550505b5f73ffffffffffffffffffffffffffffffffffffffff168773ffffffffffffffffffffffffffffffffffffffff1614612e4057805f808481526020019081526020015f205f8973ffffffffffffffffffffffffffffffffffffffff1673ffffffffffffffffffffffffffffffffffffffff1681526020019081526020015f205f828254612e389190614867565b925050819055505b5050806001019050612c55565b506001835103612f08575f612e6b5f85611b7790919063ffffffff16565b90505f612e815f85611b7790919063ffffffff16565b90508573ffffffffffffffffffffffffffffffffffffffff168773ffffffffffffffffffffffffffffffffffffffff168473ffffffffffffffffffffffffffffffffffffffff167fc3d58168c5ae7397731d063d5bbf3d657854427343f4c083240f7aacaa2d0f628585604051612ef9929190613fd6565b60405180910390a45050612f87565b8373ffffffffffffffffffffffffffffffffffffffff168573ffffffffffffffffffffffffffffffffffffffff168273ffffffffffffffffffffffffffffffffffffffff167f4a39dc06d4c0dbc64b70af90fd698a233a518aa5d07e595d983b8c0526c8f7fb8686604051612f7e92919061489a565b60405180910390a45b5050505050565b6040518060800160405280612fa1613007565b81526020015f73ffffffffffffffffffffffffffffffffffffffff1681526020015f81526020015f81525090565b60405180604001604052805f73ffffffffffffffffffffffffffffffffffffffff1681526020015f81525090565b6130056148cf565b565b60405180604001604052805f81526020015f81525090565b5f604051905090565b5f80fd5b5f80fd5b5f73ffffffffffffffffffffffffffffffffffffffff82169050919050565b5f61305982613030565b9050919050565b6130698161304f565b8114613073575f80fd5b50565b5f8135905061308481613060565b92915050565b5f819050919050565b61309c8161308a565b81146130a6575f80fd5b50565b5f813590506130b781613093565b92915050565b5f80604083850312156130d3576130d2613028565b5b5f6130e085828601613076565b92505060206130f1858286016130a9565b9150509250929050565b6131048161308a565b82525050565b5f60208201905061311d5f8301846130fb565b92915050565b5f7fffffffff0000000000000000000000000000000000000000000000000000000082169050919050565b61315781613123565b8114613161575f80fd5b50565b5f813590506131728161314e565b92915050565b5f6020828403121561318d5761318c613028565b5b5f61319a84828501613164565b91505092915050565b5f8115159050919050565b6131b7816131a3565b82525050565b5f6020820190506131d05f8301846131ae565b92915050565b5f80fd5b5f80fd5b5f601f19601f8301169050919050565b7f4e487b71000000000000000000000000000000000000000000000000000000005f52604160045260245ffd5b613224826131de565b810181811067ffffffffffffffff82111715613243576132426131ee565b5b80604052505050565b5f61325561301f565b9050613261828261321b565b919050565b5f67ffffffffffffffff8211156132805761327f6131ee565b5b613289826131de565b9050602081019050919050565b828183375f83830152505050565b5f6132b66132b184613266565b61324c565b9050828152602081018484840111156132d2576132d16131da565b5b6132dd848285613296565b509392505050565b5f82601f8301126132f9576132f86131d6565b5b81356133098482602086016132a4565b91505092915050565b5f6020828403121561332757613326613028565b5b5f82013567ffffffffffffffff8111156133445761334361302c565b5b613350848285016132e5565b91505092915050565b5f6020828403121561336e5761336d613028565b5b5f61337b848285016130a9565b91505092915050565b5f81519050919050565b5f82825260208201905092915050565b5f5b838110156133bb5780820151818401526020810190506133a0565b5f8484015250505050565b5f6133d082613384565b6133da818561338e565b93506133ea81856020860161339e565b6133f3816131de565b840191505092915050565b5f6020820190508181035f83015261341681846133c6565b905092915050565b5f67ffffffffffffffff821115613438576134376131ee565b5b602082029050602081019050919050565b5f80fd5b5f61345f61345a8461341e565b61324c565b9050808382526020820190506020840283018581111561348257613481613449565b5b835b818110156134ab578061349788826130a9565b845260208401935050602081019050613484565b5050509392505050565b5f82601f8301126134c9576134c86131d6565b5b81356134d984826020860161344d565b91505092915050565b5f67ffffffffffffffff8211156134fc576134fb6131ee565b5b613505826131de565b9050602081019050919050565b5f61352461351f846134e2565b61324c565b9050828152602081018484840111156135405761353f6131da565b5b61354b848285613296565b509392505050565b5f82601f830112613567576135666131d6565b5b8135613577848260208601613512565b91505092915050565b5f805f806080858703121561359857613597613028565b5b5f6135a587828801613076565b945050602085013567ffffffffffffffff8111156135c6576135c561302c565b5b6135d2878288016134b5565b935050604085013567ffffffffffffffff8111156135f3576135f261302c565b5b6135ff878288016134b5565b925050606085013567ffffffffffffffff8111156136205761361f61302c565b5b61362c87828801613553565b91505092959194509250565b5f805f805f60a0868803121561365157613650613028565b5b5f61365e88828901613076565b955050602061366f88828901613076565b945050604086013567ffffffffffffffff8111156136905761368f61302c565b5b61369c888289016134b5565b935050606086013567ffffffffffffffff8111156136bd576136bc61302c565b5b6136c9888289016134b5565b925050608086013567ffffffffffffffff8111156136ea576136e961302c565b5b6136f688828901613553565b9150509295509295909350565b5f67ffffffffffffffff82111561371d5761371c6131ee565b5b602082029050602081019050919050565b5f61374061373b84613703565b61324c565b9050808382526020820190506020840283018581111561376357613762613449565b5b835b8181101561378c57806137788882613076565b845260208401935050602081019050613765565b5050509392505050565b5f82601f8301126137aa576137a96131d6565b5b81356137ba84826020860161372e565b91505092915050565b5f80604083850312156137d9576137d8613028565b5b5f83013567ffffffffffffffff8111156137f6576137f561302c565b5b61380285828601613796565b925050602083013567ffffffffffffffff8111156138235761382261302c565b5b61382f858286016134b5565b9150509250929050565b5f81519050919050565b5f82825260208201905092915050565b5f819050602082019050919050565b61386b8161308a565b82525050565b5f61387c8383613862565b60208301905092915050565b5f602082019050919050565b5f61389e82613839565b6138a88185613843565b93506138b383613853565b805f5b838110156138e35781516138ca8882613871565b97506138d583613888565b9250506001810190506138b6565b5085935050505092915050565b5f6020820190508181035f8301526139088184613894565b905092915050565b5f805f6060848603121561392757613926613028565b5b5f61393486828701613076565b935050602084013567ffffffffffffffff8111156139555761395461302c565b5b613961868287016134b5565b925050604084013567ffffffffffffffff8111156139825761398161302c565b5b61398e868287016134b5565b9150509250925092565b5f805f80608085870312156139b0576139af613028565b5b5f6139bd87828801613076565b94505060206139ce878288016130a9565b93505060406139df878288016130a9565b925050606085013567ffffffffffffffff811115613a00576139ff61302c565b5b613a0c87828801613553565b91505092959194509250565b613a218161304f565b82525050565b5f602082019050613a3a5f830184613a18565b92915050565b613a49816131a3565b8114613a53575f80fd5b50565b5f81359050613a6481613a40565b92915050565b5f8060408385031215613a8057613a7f613028565b5b5f613a8d85828601613076565b9250506020613a9e85828601613a56565b9150509250929050565b5f81519050919050565b5f82825260208201905092915050565b5f819050602082019050919050565b604082015f820151613ae55f850182613862565b506020820151613af86020850182613862565b50505050565b613b078161304f565b82525050565b60a082015f820151613b215f850182613ad1565b506020820151613b346040850182613afe565b506040820151613b476060850182613862565b506060820151613b5a6080850182613862565b50505050565b5f613b6b8383613b0d565b60a08301905092915050565b5f602082019050919050565b5f613b8d82613aa8565b613b978185613ab2565b9350613ba283613ac2565b805f5b83811015613bd2578151613bb98882613b60565b9750613bc483613b77565b925050600181019050613ba5565b5085935050505092915050565b5f6020820190508181035f830152613bf78184613b83565b905092915050565b5f805f60608486031215613c1657613c15613028565b5b5f613c23868287016130a9565b9350506020613c34868287016130a9565b9250506040613c45868287016130a9565b9150509250925092565b5f8060408385031215613c6557613c64613028565b5b5f613c72858286016130a9565b9250506020613c8385828601613076565b9150509250929050565b60a082015f820151613ca15f850182613ad1565b506020820151613cb46040850182613afe565b506040820151613cc76060850182613862565b506060820151613cda6080850182613862565b50505050565b5f60c082019050613cf35f830185613c8d565b613d0060a08301846130fb565b9392505050565b5f8060408385031215613d1d57613d1c613028565b5b5f613d2a85828601613076565b9250506020613d3b85828601613076565b9150509250929050565b5f805f805f60a08688031215613d5e57613d5d613028565b5b5f613d6b88828901613076565b9550506020613d7c88828901613076565b9450506040613d8d888289016130a9565b9350506060613d9e888289016130a9565b925050608086013567ffffffffffffffff811115613dbf57613dbe61302c565b5b613dcb88828901613553565b9150509295509295909350565b5f60208284031215613ded57613dec613028565b5b5f613dfa84828501613076565b91505092915050565b5f613e0d82613030565b9050919050565b613e1d81613e03565b8114613e27575f80fd5b50565b5f81359050613e3881613e14565b92915050565b5f805f60608486031215613e5557613e54613028565b5b5f613e62868287016130a9565b9350506020613e7386828701613e2a565b9250506040613e84868287016130a9565b9150509250925092565b5f805f60608486031215613ea557613ea4613028565b5b5f613eb286828701613076565b9350506020613ec3868287016130a9565b9250506040613ed4868287016130a9565b9150509250925092565b7f4e487b71000000000000000000000000000000000000000000000000000000005f52602260045260245ffd5b5f6002820490506001821680613f2257607f821691505b602082108103613f3557613f34613ede565b5b50919050565b7f4e487b71000000000000000000000000000000000000000000000000000000005f52601160045260245ffd5b5f613f728261308a565b91507fffffffffffffffffffffffffffffffffffffffffffffffffffffffffffffffff8203613fa457613fa3613f3b565b5b600182019050919050565b5f604082019050613fc25f830185613a18565b613fcf6020830184613a18565b9392505050565b5f604082019050613fe95f8301856130fb565b613ff660208301846130fb565b9392505050565b7f4e487b71000000000000000000000000000000000000000000000000000000005f52603260045260245ffd5b7f4163636f756e7420646f6573206e6f74206861766520656e6f75676820746f6b5f8201527f656e7320746f2073656c6c000000000000000000000000000000000000000000602082015250565b5f614084602b8361338e565b915061408f8261402a565b604082019050919050565b5f6020820190508181035f8301526140b181614078565b9050919050565b5f6040820190506140cb5f8301856130fb565b6140d86020830184613a18565b9392505050565b7f4163636f756e7420646f6573206e6f74206861766520746865207265717569725f8201527f656420616d6f756e74206f6620746f6b656e7300000000000000000000000000602082015250565b5f61413960338361338e565b9150614144826140df565b604082019050919050565b5f6020820190508181035f8301526141668161412d565b9050919050565b7f43616e6e6f7420627579206f776e20746f6b656e7300000000000000000000005f82015250565b5f6141a160158361338e565b91506141ac8261416d565b602082019050919050565b5f6020820190508181035f8301526141ce81614195565b9050919050565b7f4163636f756e7420646f6573206e6f742073656c6c2074686174206d756368205f8201527f746f6b656e2e0000000000000000000000000000000000000000000000000000602082015250565b5f61422f60268361338e565b915061423a826141d5565b604082019050919050565b5f6020820190508181035f83015261425c81614223565b9050919050565b5f61426d8261308a565b91506142788361308a565b92508282026142868161308a565b9150828204841483151761429d5761429c613f3b565b5b5092915050565b7f507269636520616e642065746865722073656e7420646f6573206e6f74206d615f8201527f7463682e00000000000000000000000000000000000000000000000000000000602082015250565b5f6142fe60248361338e565b9150614309826142a4565b604082019050919050565b5f6020820190508181035f83015261432b816142f2565b9050919050565b5f81905092915050565b50565b5f61434a5f83614332565b91506143558261433c565b5f82019050919050565b5f6143698261433f565b9150819050919050565b7f4661696c656420746f2073656e642065746865720000000000000000000000005f82015250565b5f6143a760148361338e565b91506143b282614373565b602082019050919050565b5f6020820190508181035f8301526143d48161439b565b9050919050565b5f6143e58261308a565b91506143f08361308a565b925082820390508181111561440857614407613f3b565b5b92915050565b5f819050815f5260205f209050919050565b5f6020601f8301049050919050565b5f82821b905092915050565b5f6008830261446a7fffffffffffffffffffffffffffffffffffffffffffffffffffffffffffffffff8261442f565b614474868361442f565b95508019841693508086168417925050509392505050565b5f819050919050565b5f6144af6144aa6144a58461308a565b61448c565b61308a565b9050919050565b5f819050919050565b6144c883614495565b6144dc6144d4826144b6565b84845461443b565b825550505050565b5f90565b6144f06144e4565b6144fb8184846144bf565b505050565b5b8181101561451e576145135f826144e8565b600181019050614501565b5050565b601f821115614563576145348161440e565b61453d84614420565b8101602085101561454c578190505b61456061455885614420565b830182614500565b50505b505050565b5f82821c905092915050565b5f6145835f1984600802614568565b1980831691505092915050565b5f61459b8383614574565b9150826002028217905092915050565b6145b482613384565b67ffffffffffffffff8111156145cd576145cc6131ee565b5b6145d78254613f0b565b6145e2828285614522565b5f60209050601f831160018114614613575f8415614601578287015190505b61460b8582614590565b865550614672565b601f1984166146218661440e565b5f5b8281101561464857848901518255600182019150602085019450602081019050614623565b868310156146655784890151614661601f891682614574565b8355505b6001600288020188555050505b505050505050565b5f6040820190508181035f83015261469281856133c6565b90506146a160208301846130fb565b9392505050565b7f4e487b71000000000000000000000000000000000000000000000000000000005f52603160045260245ffd5b5f81519050919050565b5f82825260208201905092915050565b5f6146f9826146d5565b61470381856146df565b935061471381856020860161339e565b61471c816131de565b840191505092915050565b5f60a08201905061473a5f830188613a18565b6147476020830187613a18565b61475460408301866130fb565b61476160608301856130fb565b818103608083015261477381846146ef565b90509695505050505050565b5f8151905061478d8161314e565b92915050565b5f602082840312156147a8576147a7613028565b5b5f6147b58482850161477f565b91505092915050565b5f60a0820190506147d15f830188613a18565b6147de6020830187613a18565b81810360408301526147f08186613894565b905081810360608301526148048185613894565b9050818103608083015261481881846146ef565b90509695505050505050565b5f6080820190506148375f830187613a18565b61484460208301866130fb565b61485160408301856130fb565b61485e60608301846130fb565b95945050505050565b5f6148718261308a565b915061487c8361308a565b925082820190508082111561489457614893613f3b565b5b92915050565b5f6040820190508181035f8301526148b28185613894565b905081810360208301526148c68184613894565b90509392505050565b7f4e487b71000000000000000000000000000000000000000000000000000000005f52605160045260245ffdfea264697066735822122062432805521312157a2dd5f7bd43ff9bf92243380ae8bb5f688f94aecb0eb81e64736f6c63430008160033687474703a2f2f6c6f63616c686f73743a333030302f6170692f7265616c4573746174652f7b69647d",
			"opcodes": "PUSH1 0x80 PUSH1 0x40 MSTORE CALLVALUE DUP1 ISZERO PUSH3 0x10 JUMPI PUSH0 DUP1 REVERT JUMPDEST POP PUSH1 0x40 MLOAD PUSH3 0x4F5B CODESIZE SUB DUP1 PUSH3 0x4F5B DUP4 CODECOPY DUP2 DUP2 ADD PUSH1 0x40 MSTORE DUP2 ADD SWAP1 PUSH3 0x36 SWAP2 SWAP1 PUSH3 0x24E JUMP JUMPDEST DUP1 PUSH1 0x40 MLOAD DUP1 PUSH1 0x60 ADD PUSH1 0x40 MSTORE DUP1 PUSH1 0x29 DUP2 MSTORE PUSH1 0x20 ADD PUSH3 0x4F32 PUSH1 0x29 SWAP2 CODECOPY PUSH3 0x62 DUP2 PUSH3 0x111 PUSH1 0x20 SHL PUSH1 0x20 SHR JUMP JUMPDEST POP PUSH0 PUSH20 0xFFFFFFFFFFFFFFFFFFFFFFFFFFFFFFFFFFFFFFFF AND DUP2 PUSH20 0xFFFFFFFFFFFFFFFFFFFFFFFFFFFFFFFFFFFFFFFF AND SUB PUSH3 0xD6 JUMPI PUSH0 PUSH1 0x40 MLOAD PUSH32 0x1E4FBDF700000000000000000000000000000000000000000000000000000000 DUP2 MSTORE PUSH1 0x4 ADD PUSH3 0xCD SWAP2 SWAP1 PUSH3 0x28F JUMP JUMPDEST PUSH1 0x40 MLOAD DUP1 SWAP2 SUB SWAP1 REVERT JUMPDEST PUSH3 0xE7 DUP2 PUSH3 0x126 PUSH1 0x20 SHL PUSH1 0x20 SHR JUMP JUMPDEST POP PUSH0 PUSH1 0x3 PUSH1 0x14 PUSH2 0x100 EXP DUP2 SLOAD DUP2 PUSH1 0xFF MUL NOT AND SWAP1 DUP4 ISZERO ISZERO MUL OR SWAP1 SSTORE POP PUSH1 0x1 PUSH1 0x4 DUP2 SWAP1 SSTORE POP POP PUSH3 0x5F2 JUMP JUMPDEST DUP1 PUSH1 0x2 SWAP1 DUP2 PUSH3 0x122 SWAP2 SWAP1 PUSH3 0x50E JUMP JUMPDEST POP POP JUMP JUMPDEST PUSH0 PUSH1 0x3 PUSH0 SWAP1 SLOAD SWAP1 PUSH2 0x100 EXP SWAP1 DIV PUSH20 0xFFFFFFFFFFFFFFFFFFFFFFFFFFFFFFFFFFFFFFFF AND SWAP1 POP DUP2 PUSH1 0x3 PUSH0 PUSH2 0x100 EXP DUP2 SLOAD DUP2 PUSH20 0xFFFFFFFFFFFFFFFFFFFFFFFFFFFFFFFFFFFFFFFF MUL NOT AND SWAP1 DUP4 PUSH20 0xFFFFFFFFFFFFFFFFFFFFFFFFFFFFFFFFFFFFFFFF AND MUL OR SWAP1 SSTORE POP DUP2 PUSH20 0xFFFFFFFFFFFFFFFFFFFFFFFFFFFFFFFFFFFFFFFF AND DUP2 PUSH20 0xFFFFFFFFFFFFFFFFFFFFFFFFFFFFFFFFFFFFFFFF AND PUSH32 0x8BE0079C531659141344CD1FD0A4F28419497F9722A3DAAFE3B4186F6B6457E0 PUSH1 0x40 MLOAD PUSH1 0x40 MLOAD DUP1 SWAP2 SUB SWAP1 LOG3 POP POP JUMP JUMPDEST PUSH0 DUP1 REVERT JUMPDEST PUSH0 PUSH20 0xFFFFFFFFFFFFFFFFFFFFFFFFFFFFFFFFFFFFFFFF DUP3 AND SWAP1 POP SWAP2 SWAP1 POP JUMP JUMPDEST PUSH0 PUSH3 0x218 DUP3 PUSH3 0x1ED JUMP JUMPDEST SWAP1 POP SWAP2 SWAP1 POP JUMP JUMPDEST PUSH3 0x22A DUP2 PUSH3 0x20C JUMP JUMPDEST DUP2 EQ PUSH3 0x235 JUMPI PUSH0 DUP1 REVERT JUMPDEST POP JUMP JUMPDEST PUSH0 DUP2 MLOAD SWAP1 POP PUSH3 0x248 DUP2 PUSH3 0x21F JUMP JUMPDEST SWAP3 SWAP2 POP POP JUMP JUMPDEST PUSH0 PUSH1 0x20 DUP3 DUP5 SUB SLT ISZERO PUSH3 0x266 JUMPI PUSH3 0x265 PUSH3 0x1E9 JUMP JUMPDEST JUMPDEST PUSH0 PUSH3 0x275 DUP5 DUP3 DUP6 ADD PUSH3 0x238 JUMP JUMPDEST SWAP2 POP POP SWAP3 SWAP2 POP POP JUMP JUMPDEST PUSH3 0x289 DUP2 PUSH3 0x20C JUMP JUMPDEST DUP3 MSTORE POP POP JUMP JUMPDEST PUSH0 PUSH1 0x20 DUP3 ADD SWAP1 POP PUSH3 0x2A4 PUSH0 DUP4 ADD DUP5 PUSH3 0x27E JUMP JUMPDEST SWAP3 SWAP2 POP POP JUMP JUMPDEST PUSH0 DUP2 MLOAD SWAP1 POP SWAP2 SWAP1 POP JUMP JUMPDEST PUSH32 0x4E487B7100000000000000000000000000000000000000000000000000000000 PUSH0 MSTORE PUSH1 0x41 PUSH1 0x4 MSTORE PUSH1 0x24 PUSH0 REVERT JUMPDEST PUSH32 0x4E487B7100000000000000000000000000000000000000000000000000000000 PUSH0 MSTORE PUSH1 0x22 PUSH1 0x4 MSTORE PUSH1 0x24 PUSH0 REVERT JUMPDEST PUSH0 PUSH1 0x2 DUP3 DIV SWAP1 POP PUSH1 0x1 DUP3 AND DUP1 PUSH3 0x326 JUMPI PUSH1 0x7F DUP3 AND SWAP2 POP JUMPDEST PUSH1 0x20 DUP3 LT DUP2 SUB PUSH3 0x33C JUMPI PUSH3 0x33B PUSH3 0x2E1 JUMP JUMPDEST JUMPDEST POP SWAP2 SWAP1 POP JUMP JUMPDEST PUSH0 DUP2 SWAP1 POP DUP2 PUSH0 MSTORE PUSH1 0x20 PUSH0 KECCAK256 SWAP1 POP SWAP2 SWAP1 POP JUMP JUMPDEST PUSH0 PUSH1 0x20 PUSH1 0x1F DUP4 ADD DIV SWAP1 POP SWAP2 SWAP1 POP JUMP JUMPDEST PUSH0 DUP3 DUP3 SHL SWAP1 POP SWAP3 SWAP2 POP POP JUMP JUMPDEST PUSH0 PUSH1 0x8 DUP4 MUL PUSH3 0x3A0 PUSH32 0xFFFFFFFFFFFFFFFFFFFFFFFFFFFFFFFFFFFFFFFFFFFFFFFFFFFFFFFFFFFFFFFF DUP3 PUSH3 0x363 JUMP JUMPDEST PUSH3 0x3AC DUP7 DUP4 PUSH3 0x363 JUMP JUMPDEST SWAP6 POP DUP1 NOT DUP5 AND SWAP4 POP DUP1 DUP7 AND DUP5 OR SWAP3 POP POP POP SWAP4 SWAP3 POP POP POP JUMP JUMPDEST PUSH0 DUP2 SWAP1 POP SWAP2 SWAP1 POP JUMP JUMPDEST PUSH0 DUP2 SWAP1 POP SWAP2 SWAP1 POP JUMP JUMPDEST PUSH0 PUSH3 0x3F6 PUSH3 0x3F0 PUSH3 0x3EA DUP5 PUSH3 0x3C4 JUMP JUMPDEST PUSH3 0x3CD JUMP JUMPDEST PUSH3 0x3C4 JUMP JUMPDEST SWAP1 POP SWAP2 SWAP1 POP JUMP JUMPDEST PUSH0 DUP2 SWAP1 POP SWAP2 SWAP1 POP JUMP JUMPDEST PUSH3 0x411 DUP4 PUSH3 0x3D6 JUMP JUMPDEST PUSH3 0x429 PUSH3 0x420 DUP3 PUSH3 0x3FD JUMP JUMPDEST DUP5 DUP5 SLOAD PUSH3 0x36F JUMP JUMPDEST DUP3 SSTORE POP POP POP POP JUMP JUMPDEST PUSH0 SWAP1 JUMP JUMPDEST PUSH3 0x43F PUSH3 0x431 JUMP JUMPDEST PUSH3 0x44C DUP2 DUP5 DUP5 PUSH3 0x406 JUMP JUMPDEST POP POP POP JUMP JUMPDEST JUMPDEST DUP2 DUP2 LT ISZERO PUSH3 0x473 JUMPI PUSH3 0x467 PUSH0 DUP3 PUSH3 0x435 JUMP JUMPDEST PUSH1 0x1 DUP2 ADD SWAP1 POP PUSH3 0x452 JUMP JUMPDEST POP POP JUMP JUMPDEST PUSH1 0x1F DUP3 GT ISZERO PUSH3 0x4C2 JUMPI PUSH3 0x48C DUP2 PUSH3 0x342 JUMP JUMPDEST PUSH3 0x497 DUP5 PUSH3 0x354 JUMP JUMPDEST DUP2 ADD PUSH1 0x20 DUP6 LT ISZERO PUSH3 0x4A7 JUMPI DUP2 SWAP1 POP JUMPDEST PUSH3 0x4BF PUSH3 0x4B6 DUP6 PUSH3 0x354 JUMP JUMPDEST DUP4 ADD DUP3 PUSH3 0x451 JUMP JUMPDEST POP POP JUMPDEST POP POP POP JUMP JUMPDEST PUSH0 DUP3 DUP3 SHR SWAP1 POP SWAP3 SWAP2 POP POP JUMP JUMPDEST PUSH0 PUSH3 0x4E4 PUSH0 NOT DUP5 PUSH1 0x8 MUL PUSH3 0x4C7 JUMP JUMPDEST NOT DUP1 DUP4 AND SWAP2 POP POP SWAP3 SWAP2 POP POP JUMP JUMPDEST PUSH0 PUSH3 0x4FE DUP4 DUP4 PUSH3 0x4D3 JUMP JUMPDEST SWAP2 POP DUP3 PUSH1 0x2 MUL DUP3 OR SWAP1 POP SWAP3 SWAP2 POP POP JUMP JUMPDEST PUSH3 0x519 DUP3 PUSH3 0x2AA JUMP JUMPDEST PUSH8 0xFFFFFFFFFFFFFFFF DUP2 GT ISZERO PUSH3 0x535 JUMPI PUSH3 0x534 PUSH3 0x2B4 JUMP JUMPDEST JUMPDEST PUSH3 0x541 DUP3 SLOAD PUSH3 0x30E JUMP JUMPDEST PUSH3 0x54E DUP3 DUP3 DUP6 PUSH3 0x477 JUMP JUMPDEST PUSH0 PUSH1 0x20 SWAP1 POP PUSH1 0x1F DUP4 GT PUSH1 0x1 DUP2 EQ PUSH3 0x584 JUMPI PUSH0 DUP5 ISZERO PUSH3 0x56F JUMPI DUP3 DUP8 ADD MLOAD SWAP1 POP JUMPDEST PUSH3 0x57B DUP6 DUP3 PUSH3 0x4F1 JUMP JUMPDEST DUP7 SSTORE POP PUSH3 0x5EA JUMP JUMPDEST PUSH1 0x1F NOT DUP5 AND PUSH3 0x594 DUP7 PUSH3 0x342 JUMP JUMPDEST PUSH0 JUMPDEST DUP3 DUP2 LT ISZERO PUSH3 0x5BD JUMPI DUP5 DUP10 ADD MLOAD DUP3 SSTORE PUSH1 0x1 DUP3 ADD SWAP2 POP PUSH1 0x20 DUP6 ADD SWAP5 POP PUSH1 0x20 DUP2 ADD SWAP1 POP PUSH3 0x596 JUMP JUMPDEST DUP7 DUP4 LT ISZERO PUSH3 0x5DD JUMPI DUP5 DUP10 ADD MLOAD PUSH3 0x5D9 PUSH1 0x1F DUP10 AND DUP3 PUSH3 0x4D3 JUMP JUMPDEST DUP4 SSTORE POP JUMPDEST PUSH1 0x1 PUSH1 0x2 DUP9 MUL ADD DUP9 SSTORE POP POP POP JUMPDEST POP POP POP POP POP POP JUMP JUMPDEST PUSH2 0x4932 DUP1 PUSH3 0x600 PUSH0 CODECOPY PUSH0 RETURN INVALID PUSH1 0x80 PUSH1 0x40 MSTORE PUSH1 0x4 CALLDATASIZE LT PUSH2 0x168 JUMPI PUSH0 CALLDATALOAD PUSH1 0xE0 SHR DUP1 PUSH4 0x715018A6 GT PUSH2 0xD0 JUMPI DUP1 PUSH4 0xC3C8D92D GT PUSH2 0x89 JUMPI DUP1 PUSH4 0xF242432A GT PUSH2 0x63 JUMPI DUP1 PUSH4 0xF242432A EQ PUSH2 0x506 JUMPI DUP1 PUSH4 0xF2FDE38B EQ PUSH2 0x52E JUMPI DUP1 PUSH4 0xF3E62640 EQ PUSH2 0x556 JUMPI DUP1 PUSH4 0xF5298ACA EQ PUSH2 0x572 JUMPI PUSH2 0x16F JUMP JUMPDEST DUP1 PUSH4 0xC3C8D92D EQ PUSH2 0x465 JUMPI DUP1 PUSH4 0xC8E34B27 EQ PUSH2 0x48D JUMPI DUP1 PUSH4 0xE985E9C5 EQ PUSH2 0x4CA JUMPI PUSH2 0x16F JUMP JUMPDEST DUP1 PUSH4 0x715018A6 EQ PUSH2 0x395 JUMPI DUP1 PUSH4 0x731133E9 EQ PUSH2 0x3AB JUMPI DUP1 PUSH4 0x8456CB59 EQ PUSH2 0x3D3 JUMPI DUP1 PUSH4 0x8DA5CB5B EQ PUSH2 0x3E9 JUMPI DUP1 PUSH4 0xA22CB465 EQ PUSH2 0x413 JUMPI DUP1 PUSH4 0xAE6B016C EQ PUSH2 0x43B JUMPI PUSH2 0x16F JUMP JUMPDEST DUP1 PUSH4 0x2EB2C2D6 GT PUSH2 0x122 JUMPI DUP1 PUSH4 0x2EB2C2D6 EQ PUSH2 0x29F JUMPI DUP1 PUSH4 0x3F4BA83A EQ PUSH2 0x2C7 JUMPI DUP1 PUSH4 0x4E1273F4 EQ PUSH2 0x2DD JUMPI DUP1 PUSH4 0x56189236 EQ PUSH2 0x319 JUMPI DUP1 PUSH4 0x5C975ABB EQ PUSH2 0x343 JUMPI DUP1 PUSH4 0x6B20C454 EQ PUSH2 0x36D JUMPI PUSH2 0x16F JUMP JUMPDEST DUP1 PUSH3 0xFDD58E EQ PUSH2 0x173 JUMPI DUP1 PUSH4 0x1FFC9A7 EQ PUSH2 0x1AF JUMPI DUP1 PUSH4 0x2FE5305 EQ PUSH2 0x1EB JUMPI DUP1 PUSH4 0xE89341C EQ PUSH2 0x213 JUMPI DUP1 PUSH4 0x1F7FDFFA EQ PUSH2 0x24F JUMPI DUP1 PUSH4 0x2D571CC4 EQ PUSH2 0x277 JUMPI PUSH2 0x16F JUMP JUMPDEST CALLDATASIZE PUSH2 0x16F JUMPI STOP JUMPDEST PUSH0 DUP1 REVERT JUMPDEST CALLVALUE DUP1 ISZERO PUSH2 0x17E JUMPI PUSH0 DUP1 REVERT JUMPDEST POP PUSH2 0x199 PUSH1 0x4 DUP1 CALLDATASIZE SUB DUP2 ADD SWAP1 PUSH2 0x194 SWAP2 SWAP1 PUSH2 0x30BD JUMP JUMPDEST PUSH2 0x59A JUMP JUMPDEST PUSH1 0x40 MLOAD PUSH2 0x1A6 SWAP2 SWAP1 PUSH2 0x310A JUMP JUMPDEST PUSH1 0x40 MLOAD DUP1 SWAP2 SUB SWAP1 RETURN JUMPDEST CALLVALUE DUP1 ISZERO PUSH2 0x1BA JUMPI PUSH0 DUP1 REVERT JUMPDEST POP PUSH2 0x1D5 PUSH1 0x4 DUP1 CALLDATASIZE SUB DUP2 ADD SWAP1 PUSH2 0x1D0 SWAP2 SWAP1 PUSH2 0x3178 JUMP JUMPDEST PUSH2 0x5EF JUMP JUMPDEST PUSH1 0x40 MLOAD PUSH2 0x1E2 SWAP2 SWAP1 PUSH2 0x31BD JUMP JUMPDEST PUSH1 0x40 MLOAD DUP1 SWAP2 SUB SWAP1 RETURN JUMPDEST CALLVALUE DUP1 ISZERO PUSH2 0x1F6 JUMPI PUSH0 DUP1 REVERT JUMPDEST POP PUSH2 0x211 PUSH1 0x4 DUP1 CALLDATASIZE SUB DUP2 ADD SWAP1 PUSH2 0x20C SWAP2 SWAP1 PUSH2 0x3312 JUMP JUMPDEST PUSH2 0x6D0 JUMP JUMPDEST STOP JUMPDEST CALLVALUE DUP1 ISZERO PUSH2 0x21E JUMPI PUSH0 DUP1 REVERT JUMPDEST POP PUSH2 0x239 PUSH1 0x4 DUP1 CALLDATASIZE SUB DUP2 ADD SWAP1 PUSH2 0x234 SWAP2 SWAP1 PUSH2 0x3359 JUMP JUMPDEST PUSH2 0x6E4 JUMP JUMPDEST PUSH1 0x40 MLOAD PUSH2 0x246 SWAP2 SWAP1 PUSH2 0x33FE JUMP JUMPDEST PUSH1 0x40 MLOAD DUP1 SWAP2 SUB SWAP1 RETURN JUMPDEST CALLVALUE DUP1 ISZERO PUSH2 0x25A JUMPI PUSH0 DUP1 REVERT JUMPDEST POP PUSH2 0x275 PUSH1 0x4 DUP1 CALLDATASIZE SUB DUP2 ADD SWAP1 PUSH2 0x270 SWAP2 SWAP1 PUSH2 0x3580 JUMP JUMPDEST PUSH2 0x776 JUMP JUMPDEST STOP JUMPDEST CALLVALUE DUP1 ISZERO PUSH2 0x282 JUMPI PUSH0 DUP1 REVERT JUMPDEST POP PUSH2 0x29D PUSH1 0x4 DUP1 CALLDATASIZE SUB DUP2 ADD SWAP1 PUSH2 0x298 SWAP2 SWAP1 PUSH2 0x3359 JUMP JUMPDEST PUSH2 0x790 JUMP JUMPDEST STOP JUMPDEST CALLVALUE DUP1 ISZERO PUSH2 0x2AA JUMPI PUSH0 DUP1 REVERT JUMPDEST POP PUSH2 0x2C5 PUSH1 0x4 DUP1 CALLDATASIZE SUB DUP2 ADD SWAP1 PUSH2 0x2C0 SWAP2 SWAP1 PUSH2 0x3638 JUMP JUMPDEST PUSH2 0x900 JUMP JUMPDEST STOP JUMPDEST CALLVALUE DUP1 ISZERO PUSH2 0x2D2 JUMPI PUSH0 DUP1 REVERT JUMPDEST POP PUSH2 0x2DB PUSH2 0x9A7 JUMP JUMPDEST STOP JUMPDEST CALLVALUE DUP1 ISZERO PUSH2 0x2E8 JUMPI PUSH0 DUP1 REVERT JUMPDEST POP PUSH2 0x303 PUSH1 0x4 DUP1 CALLDATASIZE SUB DUP2 ADD SWAP1 PUSH2 0x2FE SWAP2 SWAP1 PUSH2 0x37C3 JUMP JUMPDEST PUSH2 0x9B9 JUMP JUMPDEST PUSH1 0x40 MLOAD PUSH2 0x310 SWAP2 SWAP1 PUSH2 0x38F0 JUMP JUMPDEST PUSH1 0x40 MLOAD DUP1 SWAP2 SUB SWAP1 RETURN JUMPDEST CALLVALUE DUP1 ISZERO PUSH2 0x324 JUMPI PUSH0 DUP1 REVERT JUMPDEST POP PUSH2 0x32D PUSH2 0xAC0 JUMP JUMPDEST PUSH1 0x40 MLOAD PUSH2 0x33A SWAP2 SWAP1 PUSH2 0x310A JUMP JUMPDEST PUSH1 0x40 MLOAD DUP1 SWAP2 SUB SWAP1 RETURN JUMPDEST CALLVALUE DUP1 ISZERO PUSH2 0x34E JUMPI PUSH0 DUP1 REVERT JUMPDEST POP PUSH2 0x357 PUSH2 0xAC9 JUMP JUMPDEST PUSH1 0x40 MLOAD PUSH2 0x364 SWAP2 SWAP1 PUSH2 0x31BD JUMP JUMPDEST PUSH1 0x40 MLOAD DUP1 SWAP2 SUB SWAP1 RETURN JUMPDEST CALLVALUE DUP1 ISZERO PUSH2 0x378 JUMPI PUSH0 DUP1 REVERT JUMPDEST POP PUSH2 0x393 PUSH1 0x4 DUP1 CALLDATASIZE SUB DUP2 ADD SWAP1 PUSH2 0x38E SWAP2 SWAP1 PUSH2 0x3910 JUMP JUMPDEST PUSH2 0xADF JUMP JUMPDEST STOP JUMPDEST CALLVALUE DUP1 ISZERO PUSH2 0x3A0 JUMPI PUSH0 DUP1 REVERT JUMPDEST POP PUSH2 0x3A9 PUSH2 0xB8B JUMP JUMPDEST STOP JUMPDEST CALLVALUE DUP1 ISZERO PUSH2 0x3B6 JUMPI PUSH0 DUP1 REVERT JUMPDEST POP PUSH2 0x3D1 PUSH1 0x4 DUP1 CALLDATASIZE SUB DUP2 ADD SWAP1 PUSH2 0x3CC SWAP2 SWAP1 PUSH2 0x3998 JUMP JUMPDEST PUSH2 0xB9E JUMP JUMPDEST STOP JUMPDEST CALLVALUE DUP1 ISZERO PUSH2 0x3DE JUMPI PUSH0 DUP1 REVERT JUMPDEST POP PUSH2 0x3E7 PUSH2 0xBB8 JUMP JUMPDEST STOP JUMPDEST CALLVALUE DUP1 ISZERO PUSH2 0x3F4 JUMPI PUSH0 DUP1 REVERT JUMPDEST POP PUSH2 0x3FD PUSH2 0xBCA JUMP JUMPDEST PUSH1 0x40 MLOAD PUSH2 0x40A SWAP2 SWAP1 PUSH2 0x3A27 JUMP JUMPDEST PUSH1 0x40 MLOAD DUP1 SWAP2 SUB SWAP1 RETURN JUMPDEST CALLVALUE DUP1 ISZERO PUSH2 0x41E JUMPI PUSH0 DUP1 REVERT JUMPDEST POP PUSH2 0x439 PUSH1 0x4 DUP1 CALLDATASIZE SUB DUP2 ADD SWAP1 PUSH2 0x434 SWAP2 SWAP1 PUSH2 0x3A6A JUMP JUMPDEST PUSH2 0xBF2 JUMP JUMPDEST STOP JUMPDEST CALLVALUE DUP1 ISZERO PUSH2 0x446 JUMPI PUSH0 DUP1 REVERT JUMPDEST POP PUSH2 0x44F PUSH2 0xC08 JUMP JUMPDEST PUSH1 0x40 MLOAD PUSH2 0x45C SWAP2 SWAP1 PUSH2 0x3BDF JUMP JUMPDEST PUSH1 0x40 MLOAD DUP1 SWAP2 SUB SWAP1 RETURN JUMPDEST CALLVALUE DUP1 ISZERO PUSH2 0x470 JUMPI PUSH0 DUP1 REVERT JUMPDEST POP PUSH2 0x48B PUSH1 0x4 DUP1 CALLDATASIZE SUB DUP2 ADD SWAP1 PUSH2 0x486 SWAP2 SWAP1 PUSH2 0x3BFF JUMP JUMPDEST PUSH2 0xCF3 JUMP JUMPDEST STOP JUMPDEST CALLVALUE DUP1 ISZERO PUSH2 0x498 JUMPI PUSH0 DUP1 REVERT JUMPDEST POP PUSH2 0x4B3 PUSH1 0x4 DUP1 CALLDATASIZE SUB DUP2 ADD SWAP1 PUSH2 0x4AE SWAP2 SWAP1 PUSH2 0x3C4F JUMP JUMPDEST PUSH2 0xF61 JUMP JUMPDEST PUSH1 0x40 MLOAD PUSH2 0x4C1 SWAP3 SWAP2 SWAP1 PUSH2 0x3CE0 JUMP JUMPDEST PUSH1 0x40 MLOAD DUP1 SWAP2 SUB SWAP1 RETURN JUMPDEST CALLVALUE DUP1 ISZERO PUSH2 0x4D5 JUMPI PUSH0 DUP1 REVERT JUMPDEST POP PUSH2 0x4F0 PUSH1 0x4 DUP1 CALLDATASIZE SUB DUP2 ADD SWAP1 PUSH2 0x4EB SWAP2 SWAP1 PUSH2 0x3D07 JUMP JUMPDEST PUSH2 0x113D JUMP JUMPDEST PUSH1 0x40 MLOAD PUSH2 0x4FD SWAP2 SWAP1 PUSH2 0x31BD JUMP JUMPDEST PUSH1 0x40 MLOAD DUP1 SWAP2 SUB SWAP1 RETURN JUMPDEST CALLVALUE DUP1 ISZERO PUSH2 0x511 JUMPI PUSH0 DUP1 REVERT JUMPDEST POP PUSH2 0x52C PUSH1 0x4 DUP1 CALLDATASIZE SUB DUP2 ADD SWAP1 PUSH2 0x527 SWAP2 SWAP1 PUSH2 0x3D45 JUMP JUMPDEST PUSH2 0x11CB JUMP JUMPDEST STOP JUMPDEST CALLVALUE DUP1 ISZERO PUSH2 0x539 JUMPI PUSH0 DUP1 REVERT JUMPDEST POP PUSH2 0x554 PUSH1 0x4 DUP1 CALLDATASIZE SUB DUP2 ADD SWAP1 PUSH2 0x54F SWAP2 SWAP1 PUSH2 0x3DD8 JUMP JUMPDEST PUSH2 0x1272 JUMP JUMPDEST STOP JUMPDEST PUSH2 0x570 PUSH1 0x4 DUP1 CALLDATASIZE SUB DUP2 ADD SWAP1 PUSH2 0x56B SWAP2 SWAP1 PUSH2 0x3E3E JUMP JUMPDEST PUSH2 0x12F6 JUMP JUMPDEST STOP JUMPDEST CALLVALUE DUP1 ISZERO PUSH2 0x57D JUMPI PUSH0 DUP1 REVERT JUMPDEST POP PUSH2 0x598 PUSH1 0x4 DUP1 CALLDATASIZE SUB DUP2 ADD SWAP1 PUSH2 0x593 SWAP2 SWAP1 PUSH2 0x3E8E JUMP JUMPDEST PUSH2 0x1740 JUMP JUMPDEST STOP JUMPDEST PUSH0 DUP1 PUSH0 DUP4 DUP2 MSTORE PUSH1 0x20 ADD SWAP1 DUP2 MSTORE PUSH1 0x20 ADD PUSH0 KECCAK256 PUSH0 DUP5 PUSH20 0xFFFFFFFFFFFFFFFFFFFFFFFFFFFFFFFFFFFFFFFF AND PUSH20 0xFFFFFFFFFFFFFFFFFFFFFFFFFFFFFFFFFFFFFFFF AND DUP2 MSTORE PUSH1 0x20 ADD SWAP1 DUP2 MSTORE PUSH1 0x20 ADD PUSH0 KECCAK256 SLOAD SWAP1 POP SWAP3 SWAP2 POP POP JUMP JUMPDEST PUSH0 PUSH32 0xD9B67A2600000000000000000000000000000000000000000000000000000000 PUSH28 0xFFFFFFFFFFFFFFFFFFFFFFFFFFFFFFFFFFFFFFFFFFFFFFFFFFFFFFFF NOT AND DUP3 PUSH28 0xFFFFFFFFFFFFFFFFFFFFFFFFFFFFFFFFFFFFFFFFFFFFFFFFFFFFFFFF NOT AND EQ DUP1 PUSH2 0x6B9 JUMPI POP PUSH32 0xE89341C00000000000000000000000000000000000000000000000000000000 PUSH28 0xFFFFFFFFFFFFFFFFFFFFFFFFFFFFFFFFFFFFFFFFFFFFFFFFFFFFFFFF NOT AND DUP3 PUSH28 0xFFFFFFFFFFFFFFFFFFFFFFFFFFFFFFFFFFFFFFFFFFFFFFFFFFFFFFFF NOT AND EQ JUMPDEST DUP1 PUSH2 0x6C9 JUMPI POP PUSH2 0x6C8 DUP3 PUSH2 0x17EC JUMP JUMPDEST JUMPDEST SWAP1 POP SWAP2 SWAP1 POP JUMP JUMPDEST PUSH2 0x6D8 PUSH2 0x1855 JUMP JUMPDEST PUSH2 0x6E1 DUP2 PUSH2 0x18DC JUMP JUMPDEST POP JUMP JUMPDEST PUSH1 0x60 PUSH1 0x2 DUP1 SLOAD PUSH2 0x6F3 SWAP1 PUSH2 0x3F0B JUMP JUMPDEST DUP1 PUSH1 0x1F ADD PUSH1 0x20 DUP1 SWAP2 DIV MUL PUSH1 0x20 ADD PUSH1 0x40 MLOAD SWAP1 DUP2 ADD PUSH1 0x40 MSTORE DUP1 SWAP3 SWAP2 SWAP1 DUP2 DUP2 MSTORE PUSH1 0x20 ADD DUP3 DUP1 SLOAD PUSH2 0x71F SWAP1 PUSH2 0x3F0B JUMP JUMPDEST DUP1 ISZERO PUSH2 0x76A JUMPI DUP1 PUSH1 0x1F LT PUSH2 0x741 JUMPI PUSH2 0x100 DUP1 DUP4 SLOAD DIV MUL DUP4 MSTORE SWAP2 PUSH1 0x20 ADD SWAP2 PUSH2 0x76A JUMP JUMPDEST DUP3 ADD SWAP2 SWAP1 PUSH0 MSTORE PUSH1 0x20 PUSH0 KECCAK256 SWAP1 JUMPDEST DUP2 SLOAD DUP2 MSTORE SWAP1 PUSH1 0x1 ADD SWAP1 PUSH1 0x20 ADD DUP1 DUP4 GT PUSH2 0x74D JUMPI DUP3 SWAP1 SUB PUSH1 0x1F AND DUP3 ADD SWAP2 JUMPDEST POP POP POP POP POP SWAP1 POP SWAP2 SWAP1 POP JUMP JUMPDEST PUSH2 0x77E PUSH2 0x1855 JUMP JUMPDEST PUSH2 0x78A DUP5 DUP5 DUP5 DUP5 PUSH2 0x18EF JUMP JUMPDEST POP POP POP POP JUMP JUMPDEST PUSH2 0x7D3 CALLER PUSH1 0x4 SLOAD DUP4 PUSH1 0x40 MLOAD DUP1 PUSH1 0x40 ADD PUSH1 0x40 MSTORE DUP1 PUSH1 0x3 DUP2 MSTORE PUSH1 0x20 ADD PUSH32 0x3078300000000000000000000000000000000000000000000000000000000000 DUP2 MSTORE POP PUSH2 0x1972 JUMP JUMPDEST PUSH1 0x40 MLOAD DUP1 PUSH1 0x40 ADD PUSH1 0x40 MSTORE DUP1 PUSH1 0x4 SLOAD DUP2 MSTORE PUSH1 0x20 ADD DUP3 DUP2 MSTORE POP PUSH1 0x5 PUSH0 PUSH1 0x4 SLOAD DUP2 MSTORE PUSH1 0x20 ADD SWAP1 DUP2 MSTORE PUSH1 0x20 ADD PUSH0 KECCAK256 PUSH0 DUP3 ADD MLOAD DUP2 PUSH0 ADD SSTORE PUSH1 0x20 DUP3 ADD MLOAD DUP2 PUSH1 0x1 ADD SSTORE SWAP1 POP POP PUSH1 0x6 PUSH1 0x40 MLOAD DUP1 PUSH1 0x40 ADD PUSH1 0x40 MSTORE DUP1 CALLER PUSH20 0xFFFFFFFFFFFFFFFFFFFFFFFFFFFFFFFFFFFFFFFF AND DUP2 MSTORE PUSH1 0x20 ADD PUSH1 0x4 SLOAD DUP2 MSTORE POP SWAP1 DUP1 PUSH1 0x1 DUP2 SLOAD ADD DUP1 DUP3 SSTORE DUP1 SWAP2 POP POP PUSH1 0x1 SWAP1 SUB SWAP1 PUSH0 MSTORE PUSH1 0x20 PUSH0 KECCAK256 SWAP1 PUSH1 0x2 MUL ADD PUSH0 SWAP1 SWAP2 SWAP1 SWAP2 SWAP1 SWAP2 POP PUSH0 DUP3 ADD MLOAD DUP2 PUSH0 ADD PUSH0 PUSH2 0x100 EXP DUP2 SLOAD DUP2 PUSH20 0xFFFFFFFFFFFFFFFFFFFFFFFFFFFFFFFFFFFFFFFF MUL NOT AND SWAP1 DUP4 PUSH20 0xFFFFFFFFFFFFFFFFFFFFFFFFFFFFFFFFFFFFFFFF AND MUL OR SWAP1 SSTORE POP PUSH1 0x20 DUP3 ADD MLOAD DUP2 PUSH1 0x1 ADD SSTORE POP POP PUSH1 0x4 SLOAD PUSH32 0x5871761B381266E7E47309F0821D5B396364EBB6371D878871CAC5393CB93EA8 PUSH1 0x40 MLOAD PUSH1 0x40 MLOAD DUP1 SWAP2 SUB SWAP1 LOG2 PUSH1 0x4 PUSH0 DUP2 SLOAD DUP1 SWAP3 SWAP2 SWAP1 PUSH2 0x8F8 SWAP1 PUSH2 0x3F68 JUMP JUMPDEST SWAP2 SWAP1 POP SSTORE POP POP JUMP JUMPDEST PUSH0 PUSH2 0x909 PUSH2 0x1A07 JUMP JUMPDEST SWAP1 POP DUP1 PUSH20 0xFFFFFFFFFFFFFFFFFFFFFFFFFFFFFFFFFFFFFFFF AND DUP7 PUSH20 0xFFFFFFFFFFFFFFFFFFFFFFFFFFFFFFFFFFFFFFFF AND EQ ISZERO DUP1 ISZERO PUSH2 0x94E JUMPI POP PUSH2 0x94C DUP7 DUP3 PUSH2 0x113D JUMP JUMPDEST ISZERO JUMPDEST ISZERO PUSH2 0x992 JUMPI DUP1 DUP7 PUSH1 0x40 MLOAD PUSH32 0xE237D92200000000000000000000000000000000000000000000000000000000 DUP2 MSTORE PUSH1 0x4 ADD PUSH2 0x989 SWAP3 SWAP2 SWAP1 PUSH2 0x3FAF JUMP JUMPDEST PUSH1 0x40 MLOAD DUP1 SWAP2 SUB SWAP1 REVERT JUMPDEST PUSH2 0x99F DUP7 DUP7 DUP7 DUP7 DUP7 PUSH2 0x1A0E JUMP JUMPDEST POP POP POP POP POP POP JUMP JUMPDEST PUSH2 0x9AF PUSH2 0x1855 JUMP JUMPDEST PUSH2 0x9B7 PUSH2 0x1B02 JUMP JUMPDEST JUMP JUMPDEST PUSH1 0x60 DUP2 MLOAD DUP4 MLOAD EQ PUSH2 0xA05 JUMPI DUP2 MLOAD DUP4 MLOAD PUSH1 0x40 MLOAD PUSH32 0x5B05999100000000000000000000000000000000000000000000000000000000 DUP2 MSTORE PUSH1 0x4 ADD PUSH2 0x9FC SWAP3 SWAP2 SWAP1 PUSH2 0x3FD6 JUMP JUMPDEST PUSH1 0x40 MLOAD DUP1 SWAP2 SUB SWAP1 REVERT JUMPDEST PUSH0 DUP4 MLOAD PUSH8 0xFFFFFFFFFFFFFFFF DUP2 GT ISZERO PUSH2 0xA21 JUMPI PUSH2 0xA20 PUSH2 0x31EE JUMP JUMPDEST JUMPDEST PUSH1 0x40 MLOAD SWAP1 DUP1 DUP3 MSTORE DUP1 PUSH1 0x20 MUL PUSH1 0x20 ADD DUP3 ADD PUSH1 0x40 MSTORE DUP1 ISZERO PUSH2 0xA4F JUMPI DUP2 PUSH1 0x20 ADD PUSH1 0x20 DUP3 MUL DUP1 CALLDATASIZE DUP4 CALLDATACOPY DUP1 DUP3 ADD SWAP2 POP POP SWAP1 POP JUMPDEST POP SWAP1 POP PUSH0 JUMPDEST DUP5 MLOAD DUP2 LT ISZERO PUSH2 0xAB5 JUMPI PUSH2 0xA8B PUSH2 0xA73 DUP3 DUP8 PUSH2 0x1B64 SWAP1 SWAP2 SWAP1 PUSH4 0xFFFFFFFF AND JUMP JUMPDEST PUSH2 0xA86 DUP4 DUP8 PUSH2 0x1B77 SWAP1 SWAP2 SWAP1 PUSH4 0xFFFFFFFF AND JUMP JUMPDEST PUSH2 0x59A JUMP JUMPDEST DUP3 DUP3 DUP2 MLOAD DUP2 LT PUSH2 0xA9E JUMPI PUSH2 0xA9D PUSH2 0x3FFD JUMP JUMPDEST JUMPDEST PUSH1 0x20 MUL PUSH1 0x20 ADD ADD DUP2 DUP2 MSTORE POP POP DUP1 PUSH1 0x1 ADD SWAP1 POP PUSH2 0xA54 JUMP JUMPDEST POP DUP1 SWAP2 POP POP SWAP3 SWAP2 POP POP JUMP JUMPDEST PUSH0 PUSH1 0x4 SLOAD SWAP1 POP SWAP1 JUMP JUMPDEST PUSH0 PUSH1 0x3 PUSH1 0x14 SWAP1 SLOAD SWAP1 PUSH2 0x100 EXP SWAP1 DIV PUSH1 0xFF AND SWAP1 POP SWAP1 JUMP JUMPDEST PUSH2 0xAE7 PUSH2 0x1A07 JUMP JUMPDEST PUSH20 0xFFFFFFFFFFFFFFFFFFFFFFFFFFFFFFFFFFFFFFFF AND DUP4 PUSH20 0xFFFFFFFFFFFFFFFFFFFFFFFFFFFFFFFFFFFFFFFF AND EQ ISZERO DUP1 ISZERO PUSH2 0xB30 JUMPI POP PUSH2 0xB2E DUP4 PUSH2 0xB29 PUSH2 0x1A07 JUMP JUMPDEST PUSH2 0x113D JUMP JUMPDEST ISZERO JUMPDEST ISZERO PUSH2 0xB7B JUMPI PUSH2 0xB3D PUSH2 0x1A07 JUMP JUMPDEST DUP4 PUSH1 0x40 MLOAD PUSH32 0xE237D92200000000000000000000000000000000000000000000000000000000 DUP2 MSTORE PUSH1 0x4 ADD PUSH2 0xB72 SWAP3 SWAP2 SWAP1 PUSH2 0x3FAF JUMP JUMPDEST PUSH1 0x40 MLOAD DUP1 SWAP2 SUB SWAP1 REVERT JUMPDEST PUSH2 0xB86 DUP4 DUP4 DUP4 PUSH2 0x1B8A JUMP JUMPDEST POP POP POP JUMP JUMPDEST PUSH2 0xB93 PUSH2 0x1855 JUMP JUMPDEST PUSH2 0xB9C PUSH0 PUSH2 0x1C1A JUMP JUMPDEST JUMP JUMPDEST PUSH2 0xBA6 PUSH2 0x1855 JUMP JUMPDEST PUSH2 0xBB2 DUP5 DUP5 DUP5 DUP5 PUSH2 0x1972 JUMP JUMPDEST POP POP POP POP JUMP JUMPDEST PUSH2 0xBC0 PUSH2 0x1855 JUMP JUMPDEST PUSH2 0xBC8 PUSH2 0x1CDD JUMP JUMPDEST JUMP JUMPDEST PUSH0 PUSH1 0x3 PUSH0 SWAP1 SLOAD SWAP1 PUSH2 0x100 EXP SWAP1 DIV PUSH20 0xFFFFFFFFFFFFFFFFFFFFFFFFFFFFFFFFFFFFFFFF AND SWAP1 POP SWAP1 JUMP JUMPDEST PUSH2 0xC04 PUSH2 0xBFD PUSH2 0x1A07 JUMP JUMPDEST DUP4 DUP4 PUSH2 0x1D40 JUMP JUMPDEST POP POP JUMP JUMPDEST PUSH1 0x60 PUSH1 0x7 DUP1 SLOAD DUP1 PUSH1 0x20 MUL PUSH1 0x20 ADD PUSH1 0x40 MLOAD SWAP1 DUP2 ADD PUSH1 0x40 MSTORE DUP1 SWAP3 SWAP2 SWAP1 DUP2 DUP2 MSTORE PUSH1 0x20 ADD PUSH0 SWAP1 JUMPDEST DUP3 DUP3 LT ISZERO PUSH2 0xCEA JUMPI DUP4 DUP3 SWAP1 PUSH0 MSTORE PUSH1 0x20 PUSH0 KECCAK256 SWAP1 PUSH1 0x5 MUL ADD PUSH1 0x40 MLOAD DUP1 PUSH1 0x80 ADD PUSH1 0x40 MSTORE SWAP1 DUP2 PUSH0 DUP3 ADD PUSH1 0x40 MLOAD DUP1 PUSH1 0x40 ADD PUSH1 0x40 MSTORE SWAP1 DUP2 PUSH0 DUP3 ADD SLOAD DUP2 MSTORE PUSH1 0x20 ADD PUSH1 0x1 DUP3 ADD SLOAD DUP2 MSTORE POP POP DUP2 MSTORE PUSH1 0x20 ADD PUSH1 0x2 DUP3 ADD PUSH0 SWAP1 SLOAD SWAP1 PUSH2 0x100 EXP SWAP1 DIV PUSH20 0xFFFFFFFFFFFFFFFFFFFFFFFFFFFFFFFFFFFFFFFF AND PUSH20 0xFFFFFFFFFFFFFFFFFFFFFFFFFFFFFFFFFFFFFFFF AND PUSH20 0xFFFFFFFFFFFFFFFFFFFFFFFFFFFFFFFFFFFFFFFF AND DUP2 MSTORE PUSH1 0x20 ADD PUSH1 0x3 DUP3 ADD SLOAD DUP2 MSTORE PUSH1 0x20 ADD PUSH1 0x4 DUP3 ADD SLOAD DUP2 MSTORE POP POP DUP2 MSTORE PUSH1 0x20 ADD SWAP1 PUSH1 0x1 ADD SWAP1 PUSH2 0xC2B JUMP JUMPDEST POP POP POP POP SWAP1 POP SWAP1 JUMP JUMPDEST DUP1 PUSH2 0xCFE CALLER DUP6 PUSH2 0x59A JUMP JUMPDEST LT ISZERO PUSH2 0xD3F JUMPI PUSH1 0x40 MLOAD PUSH32 0x8C379A000000000000000000000000000000000000000000000000000000000 DUP2 MSTORE PUSH1 0x4 ADD PUSH2 0xD36 SWAP1 PUSH2 0x409A JUMP JUMPDEST PUSH1 0x40 MLOAD DUP1 SWAP2 SUB SWAP1 REVERT JUMPDEST PUSH0 JUMPDEST PUSH1 0x7 DUP1 SLOAD SWAP1 POP DUP2 LT ISZERO PUSH2 0xE56 JUMPI DUP4 PUSH1 0x7 DUP3 DUP2 SLOAD DUP2 LT PUSH2 0xD63 JUMPI PUSH2 0xD62 PUSH2 0x3FFD JUMP JUMPDEST JUMPDEST SWAP1 PUSH0 MSTORE PUSH1 0x20 PUSH0 KECCAK256 SWAP1 PUSH1 0x5 MUL ADD PUSH0 ADD PUSH0 ADD SLOAD EQ DUP1 ISZERO PUSH2 0xDEE JUMPI POP CALLER PUSH20 0xFFFFFFFFFFFFFFFFFFFFFFFFFFFFFFFFFFFFFFFF AND PUSH1 0x7 DUP3 DUP2 SLOAD DUP2 LT PUSH2 0xDA7 JUMPI PUSH2 0xDA6 PUSH2 0x3FFD JUMP JUMPDEST JUMPDEST SWAP1 PUSH0 MSTORE PUSH1 0x20 PUSH0 KECCAK256 SWAP1 PUSH1 0x5 MUL ADD PUSH1 0x2 ADD PUSH0 SWAP1 SLOAD SWAP1 PUSH2 0x100 EXP SWAP1 DIV PUSH20 0xFFFFFFFFFFFFFFFFFFFFFFFFFFFFFFFFFFFFFFFF AND PUSH20 0xFFFFFFFFFFFFFFFFFFFFFFFFFFFFFFFFFFFFFFFF AND EQ JUMPDEST ISZERO PUSH2 0xE49 JUMPI DUP3 PUSH1 0x7 DUP3 DUP2 SLOAD DUP2 LT PUSH2 0xE08 JUMPI PUSH2 0xE07 PUSH2 0x3FFD JUMP JUMPDEST JUMPDEST SWAP1 PUSH0 MSTORE PUSH1 0x20 PUSH0 KECCAK256 SWAP1 PUSH1 0x5 MUL ADD PUSH1 0x3 ADD DUP2 SWAP1 SSTORE POP DUP2 PUSH1 0x7 DUP3 DUP2 SLOAD DUP2 LT PUSH2 0xE30 JUMPI PUSH2 0xE2F PUSH2 0x3FFD JUMP JUMPDEST JUMPDEST SWAP1 PUSH0 MSTORE PUSH1 0x20 PUSH0 KECCAK256 SWAP1 PUSH1 0x5 MUL ADD PUSH1 0x4 ADD DUP2 SWAP1 SSTORE POP POP PUSH2 0xF5C JUMP JUMPDEST DUP1 DUP1 PUSH1 0x1 ADD SWAP2 POP POP PUSH2 0xD41 JUMP JUMPDEST POP PUSH1 0x7 PUSH1 0x40 MLOAD DUP1 PUSH1 0x80 ADD PUSH1 0x40 MSTORE DUP1 PUSH1 0x5 PUSH0 DUP8 DUP2 MSTORE PUSH1 0x20 ADD SWAP1 DUP2 MSTORE PUSH1 0x20 ADD PUSH0 KECCAK256 PUSH1 0x40 MLOAD DUP1 PUSH1 0x40 ADD PUSH1 0x40 MSTORE SWAP1 DUP2 PUSH0 DUP3 ADD SLOAD DUP2 MSTORE PUSH1 0x20 ADD PUSH1 0x1 DUP3 ADD SLOAD DUP2 MSTORE POP POP DUP2 MSTORE PUSH1 0x20 ADD CALLER PUSH20 0xFFFFFFFFFFFFFFFFFFFFFFFFFFFFFFFFFFFFFFFF AND DUP2 MSTORE PUSH1 0x20 ADD DUP5 DUP2 MSTORE PUSH1 0x20 ADD DUP4 DUP2 MSTORE POP SWAP1 DUP1 PUSH1 0x1 DUP2 SLOAD ADD DUP1 DUP3 SSTORE DUP1 SWAP2 POP POP PUSH1 0x1 SWAP1 SUB SWAP1 PUSH0 MSTORE PUSH1 0x20 PUSH0 KECCAK256 SWAP1 PUSH1 0x5 MUL ADD PUSH0 SWAP1 SWAP2 SWAP1 SWAP2 SWAP1 SWAP2 POP PUSH0 DUP3 ADD MLOAD DUP2 PUSH0 ADD PUSH0 DUP3 ADD MLOAD DUP2 PUSH0 ADD SSTORE PUSH1 0x20 DUP3 ADD MLOAD DUP2 PUSH1 0x1 ADD SSTORE POP POP PUSH1 0x20 DUP3 ADD MLOAD DUP2 PUSH1 0x2 ADD PUSH0 PUSH2 0x100 EXP DUP2 SLOAD DUP2 PUSH20 0xFFFFFFFFFFFFFFFFFFFFFFFFFFFFFFFFFFFFFFFF MUL NOT AND SWAP1 DUP4 PUSH20 0xFFFFFFFFFFFFFFFFFFFFFFFFFFFFFFFFFFFFFFFF AND MUL OR SWAP1 SSTORE POP PUSH1 0x40 DUP3 ADD MLOAD DUP2 PUSH1 0x3 ADD SSTORE PUSH1 0x60 DUP3 ADD MLOAD DUP2 PUSH1 0x4 ADD SSTORE POP POP JUMPDEST POP POP POP JUMP JUMPDEST PUSH2 0xF69 PUSH2 0x2F8E JUMP JUMPDEST PUSH0 DUP1 PUSH0 SWAP1 POP JUMPDEST PUSH1 0x7 DUP1 SLOAD SWAP1 POP DUP2 LT ISZERO PUSH2 0x10F6 JUMPI DUP5 PUSH1 0x7 DUP3 DUP2 SLOAD DUP2 LT PUSH2 0xF91 JUMPI PUSH2 0xF90 PUSH2 0x3FFD JUMP JUMPDEST JUMPDEST SWAP1 PUSH0 MSTORE PUSH1 0x20 PUSH0 KECCAK256 SWAP1 PUSH1 0x5 MUL ADD PUSH0 ADD PUSH0 ADD SLOAD EQ DUP1 ISZERO PUSH2 0x101C JUMPI POP DUP4 PUSH20 0xFFFFFFFFFFFFFFFFFFFFFFFFFFFFFFFFFFFFFFFF AND PUSH1 0x7 DUP3 DUP2 SLOAD DUP2 LT PUSH2 0xFD5 JUMPI PUSH2 0xFD4 PUSH2 0x3FFD JUMP JUMPDEST JUMPDEST SWAP1 PUSH0 MSTORE PUSH1 0x20 PUSH0 KECCAK256 SWAP1 PUSH1 0x5 MUL ADD PUSH1 0x2 ADD PUSH0 SWAP1 SLOAD SWAP1 PUSH2 0x100 EXP SWAP1 DIV PUSH20 0xFFFFFFFFFFFFFFFFFFFFFFFFFFFFFFFFFFFFFFFF AND PUSH20 0xFFFFFFFFFFFFFFFFFFFFFFFFFFFFFFFFFFFFFFFF AND EQ JUMPDEST ISZERO PUSH2 0x10E9 JUMPI PUSH1 0x7 DUP2 DUP2 SLOAD DUP2 LT PUSH2 0x1035 JUMPI PUSH2 0x1034 PUSH2 0x3FFD JUMP JUMPDEST JUMPDEST SWAP1 PUSH0 MSTORE PUSH1 0x20 PUSH0 KECCAK256 SWAP1 PUSH1 0x5 MUL ADD DUP2 DUP2 PUSH1 0x40 MLOAD DUP1 PUSH1 0x80 ADD PUSH1 0x40 MSTORE SWAP1 DUP2 PUSH0 DUP3 ADD PUSH1 0x40 MLOAD DUP1 PUSH1 0x40 ADD PUSH1 0x40 MSTORE SWAP1 DUP2 PUSH0 DUP3 ADD SLOAD DUP2 MSTORE PUSH1 0x20 ADD PUSH1 0x1 DUP3 ADD SLOAD DUP2 MSTORE POP POP DUP2 MSTORE PUSH1 0x20 ADD PUSH1 0x2 DUP3 ADD PUSH0 SWAP1 SLOAD SWAP1 PUSH2 0x100 EXP SWAP1 DIV PUSH20 0xFFFFFFFFFFFFFFFFFFFFFFFFFFFFFFFFFFFFFFFF AND PUSH20 0xFFFFFFFFFFFFFFFFFFFFFFFFFFFFFFFFFFFFFFFF AND PUSH20 0xFFFFFFFFFFFFFFFFFFFFFFFFFFFFFFFFFFFFFFFF AND DUP2 MSTORE PUSH1 0x20 ADD PUSH1 0x3 DUP3 ADD SLOAD DUP2 MSTORE PUSH1 0x20 ADD PUSH1 0x4 DUP3 ADD SLOAD DUP2 MSTORE POP POP SWAP2 POP SWAP3 POP SWAP3 POP POP PUSH2 0x1136 JUMP JUMPDEST DUP1 DUP1 PUSH1 0x1 ADD SWAP2 POP POP PUSH2 0xF6F JUMP JUMPDEST POP DUP4 DUP4 PUSH1 0x40 MLOAD PUSH32 0xC379E42500000000000000000000000000000000000000000000000000000000 DUP2 MSTORE PUSH1 0x4 ADD PUSH2 0x112D SWAP3 SWAP2 SWAP1 PUSH2 0x40B8 JUMP JUMPDEST PUSH1 0x40 MLOAD DUP1 SWAP2 SUB SWAP1 REVERT JUMPDEST SWAP3 POP SWAP3 SWAP1 POP JUMP JUMPDEST PUSH0 PUSH1 0x1 PUSH0 DUP5 PUSH20 0xFFFFFFFFFFFFFFFFFFFFFFFFFFFFFFFFFFFFFFFF AND PUSH20 0xFFFFFFFFFFFFFFFFFFFFFFFFFFFFFFFFFFFFFFFF AND DUP2 MSTORE PUSH1 0x20 ADD SWAP1 DUP2 MSTORE PUSH1 0x20 ADD PUSH0 KECCAK256 PUSH0 DUP4 PUSH20 0xFFFFFFFFFFFFFFFFFFFFFFFFFFFFFFFFFFFFFFFF AND PUSH20 0xFFFFFFFFFFFFFFFFFFFFFFFFFFFFFFFFFFFFFFFF AND DUP2 MSTORE PUSH1 0x20 ADD SWAP1 DUP2 MSTORE PUSH1 0x20 ADD PUSH0 KECCAK256 PUSH0 SWAP1 SLOAD SWAP1 PUSH2 0x100 EXP SWAP1 DIV PUSH1 0xFF AND SWAP1 POP SWAP3 SWAP2 POP POP JUMP JUMPDEST PUSH0 PUSH2 0x11D4 PUSH2 0x1A07 JUMP JUMPDEST SWAP1 POP DUP1 PUSH20 0xFFFFFFFFFFFFFFFFFFFFFFFFFFFFFFFFFFFFFFFF AND DUP7 PUSH20 0xFFFFFFFFFFFFFFFFFFFFFFFFFFFFFFFFFFFFFFFF AND EQ ISZERO DUP1 ISZERO PUSH2 0x1219 JUMPI POP PUSH2 0x1217 DUP7 DUP3 PUSH2 0x113D JUMP JUMPDEST ISZERO JUMPDEST ISZERO PUSH2 0x125D JUMPI DUP1 DUP7 PUSH1 0x40 MLOAD PUSH32 0xE237D92200000000000000000000000000000000000000000000000000000000 DUP2 MSTORE PUSH1 0x4 ADD PUSH2 0x1254 SWAP3 SWAP2 SWAP1 PUSH2 0x3FAF JUMP JUMPDEST PUSH1 0x40 MLOAD DUP1 SWAP2 SUB SWAP1 REVERT JUMPDEST PUSH2 0x126A DUP7 DUP7 DUP7 DUP7 DUP7 PUSH2 0x1EA9 JUMP JUMPDEST POP POP POP POP POP POP JUMP JUMPDEST PUSH2 0x127A PUSH2 0x1855 JUMP JUMPDEST PUSH0 PUSH20 0xFFFFFFFFFFFFFFFFFFFFFFFFFFFFFFFFFFFFFFFF AND DUP2 PUSH20 0xFFFFFFFFFFFFFFFFFFFFFFFFFFFFFFFFFFFFFFFF AND SUB PUSH2 0x12EA JUMPI PUSH0 PUSH1 0x40 MLOAD PUSH32 0x1E4FBDF700000000000000000000000000000000000000000000000000000000 DUP2 MSTORE PUSH1 0x4 ADD PUSH2 0x12E1 SWAP2 SWAP1 PUSH2 0x3A27 JUMP JUMPDEST PUSH1 0x40 MLOAD DUP1 SWAP2 SUB SWAP1 REVERT JUMPDEST PUSH2 0x12F3 DUP2 PUSH2 0x1C1A JUMP JUMPDEST POP JUMP JUMPDEST DUP1 PUSH2 0x1301 DUP4 DUP6 PUSH2 0x59A JUMP JUMPDEST LT ISZERO PUSH2 0x1342 JUMPI PUSH1 0x40 MLOAD PUSH32 0x8C379A000000000000000000000000000000000000000000000000000000000 DUP2 MSTORE PUSH1 0x4 ADD PUSH2 0x1339 SWAP1 PUSH2 0x414F JUMP JUMPDEST PUSH1 0x40 MLOAD DUP1 SWAP2 SUB SWAP1 REVERT JUMPDEST PUSH0 DUP1 PUSH2 0x134E DUP6 DUP6 PUSH2 0xF61 JUMP JUMPDEST SWAP2 POP SWAP2 POP PUSH2 0x1395 PUSH1 0x40 MLOAD DUP1 PUSH1 0x40 ADD PUSH1 0x40 MSTORE DUP1 PUSH1 0x11 DUP2 MSTORE PUSH1 0x20 ADD PUSH32 0x746F6B656E2073616C6570726963653A20000000000000000000000000000000 DUP2 MSTORE POP DUP4 PUSH1 0x40 ADD MLOAD PUSH2 0x1FAF JUMP JUMPDEST PUSH2 0x13D4 PUSH1 0x40 MLOAD DUP1 PUSH1 0x40 ADD PUSH1 0x40 MSTORE DUP1 PUSH1 0x8 DUP2 MSTORE PUSH1 0x20 ADD PUSH32 0x616D6F756E743A20000000000000000000000000000000000000000000000000 DUP2 MSTORE POP DUP5 PUSH2 0x1FAF JUMP JUMPDEST PUSH2 0x1413 PUSH1 0x40 MLOAD DUP1 PUSH1 0x40 ADD PUSH1 0x40 MSTORE DUP1 PUSH1 0xB DUP2 MSTORE PUSH1 0x20 ADD PUSH32 0x6D73672E76616C75653A20000000000000000000000000000000000000000000 DUP2 MSTORE POP CALLVALUE PUSH2 0x1FAF JUMP JUMPDEST CALLER PUSH20 0xFFFFFFFFFFFFFFFFFFFFFFFFFFFFFFFFFFFFFFFF AND DUP3 PUSH1 0x20 ADD MLOAD PUSH20 0xFFFFFFFFFFFFFFFFFFFFFFFFFFFFFFFFFFFFFFFF AND SUB PUSH2 0x1485 JUMPI PUSH1 0x40 MLOAD PUSH32 0x8C379A000000000000000000000000000000000000000000000000000000000 DUP2 MSTORE PUSH1 0x4 ADD PUSH2 0x147C SWAP1 PUSH2 0x41B7 JUMP JUMPDEST PUSH1 0x40 MLOAD DUP1 SWAP2 SUB SWAP1 REVERT JUMPDEST DUP3 DUP3 PUSH1 0x60 ADD MLOAD LT ISZERO PUSH2 0x14CC JUMPI PUSH1 0x40 MLOAD PUSH32 0x8C379A000000000000000000000000000000000000000000000000000000000 DUP2 MSTORE PUSH1 0x4 ADD PUSH2 0x14C3 SWAP1 PUSH2 0x4245 JUMP JUMPDEST PUSH1 0x40 MLOAD DUP1 SWAP2 SUB SWAP1 REVERT JUMPDEST CALLVALUE DUP4 DUP4 PUSH1 0x40 ADD MLOAD PUSH2 0x14DD SWAP2 SWAP1 PUSH2 0x4263 JUMP JUMPDEST GT ISZERO PUSH2 0x151E JUMPI PUSH1 0x40 MLOAD PUSH32 0x8C379A000000000000000000000000000000000000000000000000000000000 DUP2 MSTORE PUSH1 0x4 ADD PUSH2 0x1515 SWAP1 PUSH2 0x4314 JUMP JUMPDEST PUSH1 0x40 MLOAD DUP1 SWAP2 SUB SWAP1 REVERT JUMPDEST PUSH2 0x1529 CALLER PUSH1 0x1 PUSH2 0xBF2 JUMP JUMPDEST PUSH0 DUP5 PUSH20 0xFFFFFFFFFFFFFFFFFFFFFFFFFFFFFFFFFFFFFFFF AND CALLVALUE PUSH1 0x40 MLOAD PUSH2 0x154E SWAP1 PUSH2 0x435F JUMP JUMPDEST PUSH0 PUSH1 0x40 MLOAD DUP1 DUP4 SUB DUP2 DUP6 DUP8 GAS CALL SWAP3 POP POP POP RETURNDATASIZE DUP1 PUSH0 DUP2 EQ PUSH2 0x1588 JUMPI PUSH1 0x40 MLOAD SWAP2 POP PUSH1 0x1F NOT PUSH1 0x3F RETURNDATASIZE ADD AND DUP3 ADD PUSH1 0x40 MSTORE RETURNDATASIZE DUP3 MSTORE RETURNDATASIZE PUSH0 PUSH1 0x20 DUP5 ADD RETURNDATACOPY PUSH2 0x158D JUMP JUMPDEST PUSH1 0x60 SWAP2 POP JUMPDEST POP POP SWAP1 POP DUP1 PUSH2 0x15D1 JUMPI PUSH1 0x40 MLOAD PUSH32 0x8C379A000000000000000000000000000000000000000000000000000000000 DUP2 MSTORE PUSH1 0x4 ADD PUSH2 0x15C8 SWAP1 PUSH2 0x43BD JUMP JUMPDEST PUSH1 0x40 MLOAD DUP1 SWAP2 SUB SWAP1 REVERT JUMPDEST PUSH2 0x15EC DUP6 CALLER DUP9 DUP8 PUSH1 0x40 MLOAD DUP1 PUSH1 0x20 ADD PUSH1 0x40 MSTORE DUP1 PUSH0 DUP2 MSTORE POP PUSH2 0x11CB JUMP JUMPDEST PUSH2 0x15F6 CALLER PUSH0 PUSH2 0xBF2 JUMP JUMPDEST DUP4 DUP4 PUSH1 0x60 ADD MLOAD SUB PUSH2 0x162D JUMPI PUSH2 0x160B DUP7 DUP7 PUSH2 0x204B JUMP JUMPDEST POP PUSH0 PUSH2 0x1617 DUP7 DUP9 PUSH2 0x59A JUMP JUMPDEST SUB PUSH2 0x1628 JUMPI PUSH2 0x1626 DUP7 DUP7 PUSH2 0x2378 JUMP JUMPDEST POP JUMPDEST PUSH2 0x1684 JUMP JUMPDEST DUP4 PUSH1 0x7 DUP4 DUP2 SLOAD DUP2 LT PUSH2 0x1642 JUMPI PUSH2 0x1641 PUSH2 0x3FFD JUMP JUMPDEST JUMPDEST SWAP1 PUSH0 MSTORE PUSH1 0x20 PUSH0 KECCAK256 SWAP1 PUSH1 0x5 MUL ADD PUSH1 0x4 ADD SLOAD PUSH2 0x165C SWAP2 SWAP1 PUSH2 0x43DB JUMP JUMPDEST PUSH1 0x7 DUP4 DUP2 SLOAD DUP2 LT PUSH2 0x1670 JUMPI PUSH2 0x166F PUSH2 0x3FFD JUMP JUMPDEST JUMPDEST SWAP1 PUSH0 MSTORE PUSH1 0x20 PUSH0 KECCAK256 SWAP1 PUSH1 0x5 MUL ADD PUSH1 0x4 ADD DUP2 SWAP1 SSTORE POP JUMPDEST DUP4 PUSH2 0x168F CALLER DUP9 PUSH2 0x59A JUMP JUMPDEST SUB PUSH2 0x1738 JUMPI PUSH1 0x6 PUSH1 0x40 MLOAD DUP1 PUSH1 0x40 ADD PUSH1 0x40 MSTORE DUP1 CALLER PUSH20 0xFFFFFFFFFFFFFFFFFFFFFFFFFFFFFFFFFFFFFFFF AND DUP2 MSTORE PUSH1 0x20 ADD DUP9 DUP2 MSTORE POP SWAP1 DUP1 PUSH1 0x1 DUP2 SLOAD ADD DUP1 DUP3 SSTORE DUP1 SWAP2 POP POP PUSH1 0x1 SWAP1 SUB SWAP1 PUSH0 MSTORE PUSH1 0x20 PUSH0 KECCAK256 SWAP1 PUSH1 0x2 MUL ADD PUSH0 SWAP1 SWAP2 SWAP1 SWAP2 SWAP1 SWAP2 POP PUSH0 DUP3 ADD MLOAD DUP2 PUSH0 ADD PUSH0 PUSH2 0x100 EXP DUP2 SLOAD DUP2 PUSH20 0xFFFFFFFFFFFFFFFFFFFFFFFFFFFFFFFFFFFFFFFF MUL NOT AND SWAP1 DUP4 PUSH20 0xFFFFFFFFFFFFFFFFFFFFFFFFFFFFFFFFFFFFFFFF AND MUL OR SWAP1 SSTORE POP PUSH1 0x20 DUP3 ADD MLOAD DUP2 PUSH1 0x1 ADD SSTORE POP POP JUMPDEST POP POP POP POP POP POP JUMP JUMPDEST PUSH2 0x1748 PUSH2 0x1A07 JUMP JUMPDEST PUSH20 0xFFFFFFFFFFFFFFFFFFFFFFFFFFFFFFFFFFFFFFFF AND DUP4 PUSH20 0xFFFFFFFFFFFFFFFFFFFFFFFFFFFFFFFFFFFFFFFF AND EQ ISZERO DUP1 ISZERO PUSH2 0x1791 JUMPI POP PUSH2 0x178F DUP4 PUSH2 0x178A PUSH2 0x1A07 JUMP JUMPDEST PUSH2 0x113D JUMP JUMPDEST ISZERO JUMPDEST ISZERO PUSH2 0x17DC JUMPI PUSH2 0x179E PUSH2 0x1A07 JUMP JUMPDEST DUP4 PUSH1 0x40 MLOAD PUSH32 0xE237D92200000000000000000000000000000000000000000000000000000000 DUP2 MSTORE PUSH1 0x4 ADD PUSH2 0x17D3 SWAP3 SWAP2 SWAP1 PUSH2 0x3FAF JUMP JUMPDEST PUSH1 0x40 MLOAD DUP1 SWAP2 SUB SWAP1 REVERT JUMPDEST PUSH2 0x17E7 DUP4 DUP4 DUP4 PUSH2 0x2631 JUMP JUMPDEST POP POP POP JUMP JUMPDEST PUSH0 PUSH32 0x1FFC9A700000000000000000000000000000000000000000000000000000000 PUSH28 0xFFFFFFFFFFFFFFFFFFFFFFFFFFFFFFFFFFFFFFFFFFFFFFFFFFFFFFFF NOT AND DUP3 PUSH28 0xFFFFFFFFFFFFFFFFFFFFFFFFFFFFFFFFFFFFFFFFFFFFFFFFFFFFFFFF NOT AND EQ SWAP1 POP SWAP2 SWAP1 POP JUMP JUMPDEST PUSH2 0x185D PUSH2 0x1A07 JUMP JUMPDEST PUSH20 0xFFFFFFFFFFFFFFFFFFFFFFFFFFFFFFFFFFFFFFFF AND PUSH2 0x187B PUSH2 0xBCA JUMP JUMPDEST PUSH20 0xFFFFFFFFFFFFFFFFFFFFFFFFFFFFFFFFFFFFFFFF AND EQ PUSH2 0x18DA JUMPI PUSH2 0x189E PUSH2 0x1A07 JUMP JUMPDEST PUSH1 0x40 MLOAD PUSH32 0x118CDAA700000000000000000000000000000000000000000000000000000000 DUP2 MSTORE PUSH1 0x4 ADD PUSH2 0x18D1 SWAP2 SWAP1 PUSH2 0x3A27 JUMP JUMPDEST PUSH1 0x40 MLOAD DUP1 SWAP2 SUB SWAP1 REVERT JUMPDEST JUMP JUMPDEST DUP1 PUSH1 0x2 SWAP1 DUP2 PUSH2 0x18EB SWAP2 SWAP1 PUSH2 0x45AB JUMP JUMPDEST POP POP JUMP JUMPDEST PUSH0 PUSH20 0xFFFFFFFFFFFFFFFFFFFFFFFFFFFFFFFFFFFFFFFF AND DUP5 PUSH20 0xFFFFFFFFFFFFFFFFFFFFFFFFFFFFFFFFFFFFFFFF AND SUB PUSH2 0x195F JUMPI PUSH0 PUSH1 0x40 MLOAD PUSH32 0x57F447CE00000000000000000000000000000000000000000000000000000000 DUP2 MSTORE PUSH1 0x4 ADD PUSH2 0x1956 SWAP2 SWAP1 PUSH2 0x3A27 JUMP JUMPDEST PUSH1 0x40 MLOAD DUP1 SWAP2 SUB SWAP1 REVERT JUMPDEST PUSH2 0x196C PUSH0 DUP6 DUP6 DUP6 DUP6 PUSH2 0x26D3 JUMP JUMPDEST POP POP POP POP JUMP JUMPDEST PUSH0 PUSH20 0xFFFFFFFFFFFFFFFFFFFFFFFFFFFFFFFFFFFFFFFF AND DUP5 PUSH20 0xFFFFFFFFFFFFFFFFFFFFFFFFFFFFFFFFFFFFFFFF AND SUB PUSH2 0x19E2 JUMPI PUSH0 PUSH1 0x40 MLOAD PUSH32 0x57F447CE00000000000000000000000000000000000000000000000000000000 DUP2 MSTORE PUSH1 0x4 ADD PUSH2 0x19D9 SWAP2 SWAP1 PUSH2 0x3A27 JUMP JUMPDEST PUSH1 0x40 MLOAD DUP1 SWAP2 SUB SWAP1 REVERT JUMPDEST PUSH0 DUP1 PUSH2 0x19EE DUP6 DUP6 PUSH2 0x277F JUMP JUMPDEST SWAP2 POP SWAP2 POP PUSH2 0x19FF PUSH0 DUP8 DUP5 DUP5 DUP8 PUSH2 0x26D3 JUMP JUMPDEST POP POP POP POP POP POP JUMP JUMPDEST PUSH0 CALLER SWAP1 POP SWAP1 JUMP JUMPDEST PUSH0 PUSH20 0xFFFFFFFFFFFFFFFFFFFFFFFFFFFFFFFFFFFFFFFF AND DUP5 PUSH20 0xFFFFFFFFFFFFFFFFFFFFFFFFFFFFFFFFFFFFFFFF AND SUB PUSH2 0x1A7E JUMPI PUSH0 PUSH1 0x40 MLOAD PUSH32 0x57F447CE00000000000000000000000000000000000000000000000000000000 DUP2 MSTORE PUSH1 0x4 ADD PUSH2 0x1A75 SWAP2 SWAP1 PUSH2 0x3A27 JUMP JUMPDEST PUSH1 0x40 MLOAD DUP1 SWAP2 SUB SWAP1 REVERT JUMPDEST PUSH0 PUSH20 0xFFFFFFFFFFFFFFFFFFFFFFFFFFFFFFFFFFFFFFFF AND DUP6 PUSH20 0xFFFFFFFFFFFFFFFFFFFFFFFFFFFFFFFFFFFFFFFF AND SUB PUSH2 0x1AEE JUMPI PUSH0 PUSH1 0x40 MLOAD PUSH32 0x1A8351400000000000000000000000000000000000000000000000000000000 DUP2 MSTORE PUSH1 0x4 ADD PUSH2 0x1AE5 SWAP2 SWAP1 PUSH2 0x3A27 JUMP JUMPDEST PUSH1 0x40 MLOAD DUP1 SWAP2 SUB SWAP1 REVERT JUMPDEST PUSH2 0x1AFB DUP6 DUP6 DUP6 DUP6 DUP6 PUSH2 0x26D3 JUMP JUMPDEST POP POP POP POP POP JUMP JUMPDEST PUSH2 0x1B0A PUSH2 0x27AF JUMP JUMPDEST PUSH0 PUSH1 0x3 PUSH1 0x14 PUSH2 0x100 EXP DUP2 SLOAD DUP2 PUSH1 0xFF MUL NOT AND SWAP1 DUP4 ISZERO ISZERO MUL OR SWAP1 SSTORE POP PUSH32 0x5DB9EE0A495BF2E6FF9C91A7834C1BA4FDD244A5E8AA4E537BD38AEAE4B073AA PUSH2 0x1B4D PUSH2 0x1A07 JUMP JUMPDEST PUSH1 0x40 MLOAD PUSH2 0x1B5A SWAP2 SWAP1 PUSH2 0x3A27 JUMP JUMPDEST PUSH1 0x40 MLOAD DUP1 SWAP2 SUB SWAP1 LOG1 JUMP JUMPDEST PUSH0 PUSH1 0x20 DUP3 MUL PUSH1 0x20 DUP5 ADD ADD MLOAD SWAP1 POP SWAP3 SWAP2 POP POP JUMP JUMPDEST PUSH0 PUSH1 0x20 DUP3 MUL PUSH1 0x20 DUP5 ADD ADD MLOAD SWAP1 POP SWAP3 SWAP2 POP POP JUMP JUMPDEST PUSH0 PUSH20 0xFFFFFFFFFFFFFFFFFFFFFFFFFFFFFFFFFFFFFFFF AND DUP4 PUSH20 0xFFFFFFFFFFFFFFFFFFFFFFFFFFFFFFFFFFFFFFFF AND SUB PUSH2 0x1BFA JUMPI PUSH0 PUSH1 0x40 MLOAD PUSH32 0x1A8351400000000000000000000000000000000000000000000000000000000 DUP2 MSTORE PUSH1 0x4 ADD PUSH2 0x1BF1 SWAP2 SWAP1 PUSH2 0x3A27 JUMP JUMPDEST PUSH1 0x40 MLOAD DUP1 SWAP2 SUB SWAP1 REVERT JUMPDEST PUSH2 0x1C15 DUP4 PUSH0 DUP5 DUP5 PUSH1 0x40 MLOAD DUP1 PUSH1 0x20 ADD PUSH1 0x40 MSTORE DUP1 PUSH0 DUP2 MSTORE POP PUSH2 0x26D3 JUMP JUMPDEST POP POP POP JUMP JUMPDEST PUSH0 PUSH1 0x3 PUSH0 SWAP1 SLOAD SWAP1 PUSH2 0x100 EXP SWAP1 DIV PUSH20 0xFFFFFFFFFFFFFFFFFFFFFFFFFFFFFFFFFFFFFFFF AND SWAP1 POP DUP2 PUSH1 0x3 PUSH0 PUSH2 0x100 EXP DUP2 SLOAD DUP2 PUSH20 0xFFFFFFFFFFFFFFFFFFFFFFFFFFFFFFFFFFFFFFFF MUL NOT AND SWAP1 DUP4 PUSH20 0xFFFFFFFFFFFFFFFFFFFFFFFFFFFFFFFFFFFFFFFF AND MUL OR SWAP1 SSTORE POP DUP2 PUSH20 0xFFFFFFFFFFFFFFFFFFFFFFFFFFFFFFFFFFFFFFFF AND DUP2 PUSH20 0xFFFFFFFFFFFFFFFFFFFFFFFFFFFFFFFFFFFFFFFF AND PUSH32 0x8BE0079C531659141344CD1FD0A4F28419497F9722A3DAAFE3B4186F6B6457E0 PUSH1 0x40 MLOAD PUSH1 0x40 MLOAD DUP1 SWAP2 SUB SWAP1 LOG3 POP POP JUMP JUMPDEST PUSH2 0x1CE5 PUSH2 0x27EF JUMP JUMPDEST PUSH1 0x1 PUSH1 0x3 PUSH1 0x14 PUSH2 0x100 EXP DUP2 SLOAD DUP2 PUSH1 0xFF MUL NOT AND SWAP1 DUP4 ISZERO ISZERO MUL OR SWAP1 SSTORE POP PUSH32 0x62E78CEA01BEE320CD4E420270B5EA74000D11B0C9F74754EBDBFC544B05A258 PUSH2 0x1D29 PUSH2 0x1A07 JUMP JUMPDEST PUSH1 0x40 MLOAD PUSH2 0x1D36 SWAP2 SWAP1 PUSH2 0x3A27 JUMP JUMPDEST PUSH1 0x40 MLOAD DUP1 SWAP2 SUB SWAP1 LOG1 JUMP JUMPDEST PUSH0 PUSH20 0xFFFFFFFFFFFFFFFFFFFFFFFFFFFFFFFFFFFFFFFF AND DUP3 PUSH20 0xFFFFFFFFFFFFFFFFFFFFFFFFFFFFFFFFFFFFFFFF AND SUB PUSH2 0x1DB0 JUMPI PUSH0 PUSH1 0x40 MLOAD PUSH32 0xCED3E10000000000000000000000000000000000000000000000000000000000 DUP2 MSTORE PUSH1 0x4 ADD PUSH2 0x1DA7 SWAP2 SWAP1 PUSH2 0x3A27 JUMP JUMPDEST PUSH1 0x40 MLOAD DUP1 SWAP2 SUB SWAP1 REVERT JUMPDEST DUP1 PUSH1 0x1 PUSH0 DUP6 PUSH20 0xFFFFFFFFFFFFFFFFFFFFFFFFFFFFFFFFFFFFFFFF AND PUSH20 0xFFFFFFFFFFFFFFFFFFFFFFFFFFFFFFFFFFFFFFFF AND DUP2 MSTORE PUSH1 0x20 ADD SWAP1 DUP2 MSTORE PUSH1 0x20 ADD PUSH0 KECCAK256 PUSH0 DUP5 PUSH20 0xFFFFFFFFFFFFFFFFFFFFFFFFFFFFFFFFFFFFFFFF AND PUSH20 0xFFFFFFFFFFFFFFFFFFFFFFFFFFFFFFFFFFFFFFFF AND DUP2 MSTORE PUSH1 0x20 ADD SWAP1 DUP2 MSTORE PUSH1 0x20 ADD PUSH0 KECCAK256 PUSH0 PUSH2 0x100 EXP DUP2 SLOAD DUP2 PUSH1 0xFF MUL NOT AND SWAP1 DUP4 ISZERO ISZERO MUL OR SWAP1 SSTORE POP DUP2 PUSH20 0xFFFFFFFFFFFFFFFFFFFFFFFFFFFFFFFFFFFFFFFF AND DUP4 PUSH20 0xFFFFFFFFFFFFFFFFFFFFFFFFFFFFFFFFFFFFFFFF AND PUSH32 0x17307EAB39AB6107E8899845AD3D59BD9653F200F220920489CA2B5937696C31 DUP4 PUSH1 0x40 MLOAD PUSH2 0x1E9C SWAP2 SWAP1 PUSH2 0x31BD JUMP JUMPDEST PUSH1 0x40 MLOAD DUP1 SWAP2 SUB SWAP1 LOG3 POP POP POP JUMP JUMPDEST PUSH0 PUSH20 0xFFFFFFFFFFFFFFFFFFFFFFFFFFFFFFFFFFFFFFFF AND DUP5 PUSH20 0xFFFFFFFFFFFFFFFFFFFFFFFFFFFFFFFFFFFFFFFF AND SUB PUSH2 0x1F19 JUMPI PUSH0 PUSH1 0x40 MLOAD PUSH32 0x57F447CE00000000000000000000000000000000000000000000000000000000 DUP2 MSTORE PUSH1 0x4 ADD PUSH2 0x1F10 SWAP2 SWAP1 PUSH2 0x3A27 JUMP JUMPDEST PUSH1 0x40 MLOAD DUP1 SWAP2 SUB SWAP1 REVERT JUMPDEST PUSH0 PUSH20 0xFFFFFFFFFFFFFFFFFFFFFFFFFFFFFFFFFFFFFFFF AND DUP6 PUSH20 0xFFFFFFFFFFFFFFFFFFFFFFFFFFFFFFFFFFFFFFFF AND SUB PUSH2 0x1F89 JUMPI PUSH0 PUSH1 0x40 MLOAD PUSH32 0x1A8351400000000000000000000000000000000000000000000000000000000 DUP2 MSTORE PUSH1 0x4 ADD PUSH2 0x1F80 SWAP2 SWAP1 PUSH2 0x3A27 JUMP JUMPDEST PUSH1 0x40 MLOAD DUP1 SWAP2 SUB SWAP1 REVERT JUMPDEST PUSH0 DUP1 PUSH2 0x1F95 DUP6 DUP6 PUSH2 0x277F JUMP JUMPDEST SWAP2 POP SWAP2 POP PUSH2 0x1FA6 DUP8 DUP8 DUP5 DUP5 DUP8 PUSH2 0x26D3 JUMP JUMPDEST POP POP POP POP POP POP POP JUMP JUMPDEST PUSH2 0x2047 DUP3 DUP3 PUSH1 0x40 MLOAD PUSH1 0x24 ADD PUSH2 0x1FC5 SWAP3 SWAP2 SWAP1 PUSH2 0x467A JUMP JUMPDEST PUSH1 0x40 MLOAD PUSH1 0x20 DUP2 DUP4 SUB SUB DUP2 MSTORE SWAP1 PUSH1 0x40 MSTORE PUSH32 0xB60E72CC00000000000000000000000000000000000000000000000000000000 PUSH28 0xFFFFFFFFFFFFFFFFFFFFFFFFFFFFFFFFFFFFFFFFFFFFFFFFFFFFFFFF NOT AND PUSH1 0x20 DUP3 ADD DUP1 MLOAD PUSH28 0xFFFFFFFFFFFFFFFFFFFFFFFFFFFFFFFFFFFFFFFFFFFFFFFFFFFFFFFF DUP4 DUP2 DUP4 AND OR DUP4 MSTORE POP POP POP POP PUSH2 0x2830 JUMP JUMPDEST POP POP JUMP JUMPDEST PUSH2 0x2053 PUSH2 0x2F8E JUMP JUMPDEST PUSH0 JUMPDEST PUSH1 0x7 DUP1 SLOAD SWAP1 POP DUP2 LT ISZERO PUSH2 0x2332 JUMPI DUP4 PUSH1 0x7 DUP3 DUP2 SLOAD DUP2 LT PUSH2 0x2077 JUMPI PUSH2 0x2076 PUSH2 0x3FFD JUMP JUMPDEST JUMPDEST SWAP1 PUSH0 MSTORE PUSH1 0x20 PUSH0 KECCAK256 SWAP1 PUSH1 0x5 MUL ADD PUSH0 ADD PUSH0 ADD SLOAD EQ DUP1 ISZERO PUSH2 0x2102 JUMPI POP DUP3 PUSH20 0xFFFFFFFFFFFFFFFFFFFFFFFFFFFFFFFFFFFFFFFF AND PUSH1 0x7 DUP3 DUP2 SLOAD DUP2 LT PUSH2 0x20BB JUMPI PUSH2 0x20BA PUSH2 0x3FFD JUMP JUMPDEST JUMPDEST SWAP1 PUSH0 MSTORE PUSH1 0x20 PUSH0 KECCAK256 SWAP1 PUSH1 0x5 MUL ADD PUSH1 0x2 ADD PUSH0 SWAP1 SLOAD SWAP1 PUSH2 0x100 EXP SWAP1 DIV PUSH20 0xFFFFFFFFFFFFFFFFFFFFFFFFFFFFFFFFFFFFFFFF AND PUSH20 0xFFFFFFFFFFFFFFFFFFFFFFFFFFFFFFFFFFFFFFFF AND EQ JUMPDEST ISZERO PUSH2 0x2325 JUMPI PUSH0 PUSH1 0x7 DUP3 DUP2 SLOAD DUP2 LT PUSH2 0x211C JUMPI PUSH2 0x211B PUSH2 0x3FFD JUMP JUMPDEST JUMPDEST SWAP1 PUSH0 MSTORE PUSH1 0x20 PUSH0 KECCAK256 SWAP1 PUSH1 0x5 MUL ADD PUSH1 0x40 MLOAD DUP1 PUSH1 0x80 ADD PUSH1 0x40 MSTORE SWAP1 DUP2 PUSH0 DUP3 ADD PUSH1 0x40 MLOAD DUP1 PUSH1 0x40 ADD PUSH1 0x40 MSTORE SWAP1 DUP2 PUSH0 DUP3 ADD SLOAD DUP2 MSTORE PUSH1 0x20 ADD PUSH1 0x1 DUP3 ADD SLOAD DUP2 MSTORE POP POP DUP2 MSTORE PUSH1 0x20 ADD PUSH1 0x2 DUP3 ADD PUSH0 SWAP1 SLOAD SWAP1 PUSH2 0x100 EXP SWAP1 DIV PUSH20 0xFFFFFFFFFFFFFFFFFFFFFFFFFFFFFFFFFFFFFFFF AND PUSH20 0xFFFFFFFFFFFFFFFFFFFFFFFFFFFFFFFFFFFFFFFF AND PUSH20 0xFFFFFFFFFFFFFFFFFFFFFFFFFFFFFFFFFFFFFFFF AND DUP2 MSTORE PUSH1 0x20 ADD PUSH1 0x3 DUP3 ADD SLOAD DUP2 MSTORE PUSH1 0x20 ADD PUSH1 0x4 DUP3 ADD SLOAD DUP2 MSTORE POP POP SWAP1 POP PUSH1 0x7 PUSH1 0x1 PUSH1 0x7 DUP1 SLOAD SWAP1 POP PUSH2 0x21D8 SWAP2 SWAP1 PUSH2 0x43DB JUMP JUMPDEST DUP2 SLOAD DUP2 LT PUSH2 0x21E9 JUMPI PUSH2 0x21E8 PUSH2 0x3FFD JUMP JUMPDEST JUMPDEST SWAP1 PUSH0 MSTORE PUSH1 0x20 PUSH0 KECCAK256 SWAP1 PUSH1 0x5 MUL ADD PUSH1 0x7 DUP4 DUP2 SLOAD DUP2 LT PUSH2 0x2209 JUMPI PUSH2 0x2208 PUSH2 0x3FFD JUMP JUMPDEST JUMPDEST SWAP1 PUSH0 MSTORE PUSH1 0x20 PUSH0 KECCAK256 SWAP1 PUSH1 0x5 MUL ADD PUSH0 DUP3 ADD DUP2 PUSH0 ADD PUSH0 DUP3 ADD SLOAD DUP2 PUSH0 ADD SSTORE PUSH1 0x1 DUP3 ADD SLOAD DUP2 PUSH1 0x1 ADD SSTORE POP POP PUSH1 0x2 DUP3 ADD PUSH0 SWAP1 SLOAD SWAP1 PUSH2 0x100 EXP SWAP1 DIV PUSH20 0xFFFFFFFFFFFFFFFFFFFFFFFFFFFFFFFFFFFFFFFF AND DUP2 PUSH1 0x2 ADD PUSH0 PUSH2 0x100 EXP DUP2 SLOAD DUP2 PUSH20 0xFFFFFFFFFFFFFFFFFFFFFFFFFFFFFFFFFFFFFFFF MUL NOT AND SWAP1 DUP4 PUSH20 0xFFFFFFFFFFFFFFFFFFFFFFFFFFFFFFFFFFFFFFFF AND MUL OR SWAP1 SSTORE POP PUSH1 0x3 DUP3 ADD SLOAD DUP2 PUSH1 0x3 ADD SSTORE PUSH1 0x4 DUP3 ADD SLOAD DUP2 PUSH1 0x4 ADD SSTORE SWAP1 POP POP PUSH1 0x7 DUP1 SLOAD DUP1 PUSH2 0x22BD JUMPI PUSH2 0x22BC PUSH2 0x46A8 JUMP JUMPDEST JUMPDEST PUSH1 0x1 SWAP1 SUB DUP2 DUP2 SWAP1 PUSH0 MSTORE PUSH1 0x20 PUSH0 KECCAK256 SWAP1 PUSH1 0x5 MUL ADD PUSH0 DUP1 DUP3 ADD PUSH0 DUP1 DUP3 ADD PUSH0 SWAP1 SSTORE PUSH1 0x1 DUP3 ADD PUSH0 SWAP1 SSTORE POP POP PUSH1 0x2 DUP3 ADD PUSH0 PUSH2 0x100 EXP DUP2 SLOAD SWAP1 PUSH20 0xFFFFFFFFFFFFFFFFFFFFFFFFFFFFFFFFFFFFFFFF MUL NOT AND SWAP1 SSTORE PUSH1 0x3 DUP3 ADD PUSH0 SWAP1 SSTORE PUSH1 0x4 DUP3 ADD PUSH0 SWAP1 SSTORE POP POP SWAP1 SSTORE DUP1 SWAP3 POP POP POP PUSH2 0x2372 JUMP JUMPDEST DUP1 DUP1 PUSH1 0x1 ADD SWAP2 POP POP PUSH2 0x2055 JUMP JUMPDEST POP DUP3 DUP3 PUSH1 0x40 MLOAD PUSH32 0xC379E42500000000000000000000000000000000000000000000000000000000 DUP2 MSTORE PUSH1 0x4 ADD PUSH2 0x2369 SWAP3 SWAP2 SWAP1 PUSH2 0x40B8 JUMP JUMPDEST PUSH1 0x40 MLOAD DUP1 SWAP2 SUB SWAP1 REVERT JUMPDEST SWAP3 SWAP2 POP POP JUMP JUMPDEST PUSH2 0x2380 PUSH2 0x2FCF JUMP JUMPDEST PUSH0 JUMPDEST PUSH1 0x6 DUP1 SLOAD SWAP1 POP DUP2 LT ISZERO PUSH2 0x25EB JUMPI DUP4 PUSH1 0x6 DUP3 DUP2 SLOAD DUP2 LT PUSH2 0x23A4 JUMPI PUSH2 0x23A3 PUSH2 0x3FFD JUMP JUMPDEST JUMPDEST SWAP1 PUSH0 MSTORE PUSH1 0x20 PUSH0 KECCAK256 SWAP1 PUSH1 0x2 MUL ADD PUSH1 0x1 ADD SLOAD EQ DUP1 ISZERO PUSH2 0x242D JUMPI POP DUP3 PUSH20 0xFFFFFFFFFFFFFFFFFFFFFFFFFFFFFFFFFFFFFFFF AND PUSH1 0x6 DUP3 DUP2 SLOAD DUP2 LT PUSH2 0x23E7 JUMPI PUSH2 0x23E6 PUSH2 0x3FFD JUMP JUMPDEST JUMPDEST SWAP1 PUSH0 MSTORE PUSH1 0x20 PUSH0 KECCAK256 SWAP1 PUSH1 0x2 MUL ADD PUSH0 ADD PUSH0 SWAP1 SLOAD SWAP1 PUSH2 0x100 EXP SWAP1 DIV PUSH20 0xFFFFFFFFFFFFFFFFFFFFFFFFFFFFFFFFFFFFFFFF AND PUSH20 0xFFFFFFFFFFFFFFFFFFFFFFFFFFFFFFFFFFFFFFFF AND EQ JUMPDEST ISZERO PUSH2 0x25DE JUMPI PUSH0 PUSH1 0x6 DUP3 DUP2 SLOAD DUP2 LT PUSH2 0x2447 JUMPI PUSH2 0x2446 PUSH2 0x3FFD JUMP JUMPDEST JUMPDEST SWAP1 PUSH0 MSTORE PUSH1 0x20 PUSH0 KECCAK256 SWAP1 PUSH1 0x2 MUL ADD PUSH1 0x40 MLOAD DUP1 PUSH1 0x40 ADD PUSH1 0x40 MSTORE SWAP1 DUP2 PUSH0 DUP3 ADD PUSH0 SWAP1 SLOAD SWAP1 PUSH2 0x100 EXP SWAP1 DIV PUSH20 0xFFFFFFFFFFFFFFFFFFFFFFFFFFFFFFFFFFFFFFFF AND PUSH20 0xFFFFFFFFFFFFFFFFFFFFFFFFFFFFFFFFFFFFFFFF AND PUSH20 0xFFFFFFFFFFFFFFFFFFFFFFFFFFFFFFFFFFFFFFFF AND DUP2 MSTORE PUSH1 0x20 ADD PUSH1 0x1 DUP3 ADD SLOAD DUP2 MSTORE POP POP SWAP1 POP PUSH1 0x6 PUSH1 0x1 PUSH1 0x6 DUP1 SLOAD SWAP1 POP PUSH2 0x24D2 SWAP2 SWAP1 PUSH2 0x43DB JUMP JUMPDEST DUP2 SLOAD DUP2 LT PUSH2 0x24E3 JUMPI PUSH2 0x24E2 PUSH2 0x3FFD JUMP JUMPDEST JUMPDEST SWAP1 PUSH0 MSTORE PUSH1 0x20 PUSH0 KECCAK256 SWAP1 PUSH1 0x2 MUL ADD PUSH1 0x6 DUP4 DUP2 SLOAD DUP2 LT PUSH2 0x2503 JUMPI PUSH2 0x2502 PUSH2 0x3FFD JUMP JUMPDEST JUMPDEST SWAP1 PUSH0 MSTORE PUSH1 0x20 PUSH0 KECCAK256 SWAP1 PUSH1 0x2 MUL ADD PUSH0 DUP3 ADD PUSH0 SWAP1 SLOAD SWAP1 PUSH2 0x100 EXP SWAP1 DIV PUSH20 0xFFFFFFFFFFFFFFFFFFFFFFFFFFFFFFFFFFFFFFFF AND DUP2 PUSH0 ADD PUSH0 PUSH2 0x100 EXP DUP2 SLOAD DUP2 PUSH20 0xFFFFFFFFFFFFFFFFFFFFFFFFFFFFFFFFFFFFFFFF MUL NOT AND SWAP1 DUP4 PUSH20 0xFFFFFFFFFFFFFFFFFFFFFFFFFFFFFFFFFFFFFFFF AND MUL OR SWAP1 SSTORE POP PUSH1 0x1 DUP3 ADD SLOAD DUP2 PUSH1 0x1 ADD SSTORE SWAP1 POP POP PUSH1 0x6 DUP1 SLOAD DUP1 PUSH2 0x2591 JUMPI PUSH2 0x2590 PUSH2 0x46A8 JUMP JUMPDEST JUMPDEST PUSH1 0x1 SWAP1 SUB DUP2 DUP2 SWAP1 PUSH0 MSTORE PUSH1 0x20 PUSH0 KECCAK256 SWAP1 PUSH1 0x2 MUL ADD PUSH0 DUP1 DUP3 ADD PUSH0 PUSH2 0x100 EXP DUP2 SLOAD SWAP1 PUSH20 0xFFFFFFFFFFFFFFFFFFFFFFFFFFFFFFFFFFFFFFFF MUL NOT AND SWAP1 SSTORE PUSH1 0x1 DUP3 ADD PUSH0 SWAP1 SSTORE POP POP SWAP1 SSTORE DUP1 SWAP3 POP POP POP PUSH2 0x262B JUMP JUMPDEST DUP1 DUP1 PUSH1 0x1 ADD SWAP2 POP POP PUSH2 0x2382 JUMP JUMPDEST POP DUP3 DUP3 PUSH1 0x40 MLOAD PUSH32 0xC379E42500000000000000000000000000000000000000000000000000000000 DUP2 MSTORE PUSH1 0x4 ADD PUSH2 0x2622 SWAP3 SWAP2 SWAP1 PUSH2 0x40B8 JUMP JUMPDEST PUSH1 0x40 MLOAD DUP1 SWAP2 SUB SWAP1 REVERT JUMPDEST SWAP3 SWAP2 POP POP JUMP JUMPDEST PUSH0 PUSH20 0xFFFFFFFFFFFFFFFFFFFFFFFFFFFFFFFFFFFFFFFF AND DUP4 PUSH20 0xFFFFFFFFFFFFFFFFFFFFFFFFFFFFFFFFFFFFFFFF AND SUB PUSH2 0x26A1 JUMPI PUSH0 PUSH1 0x40 MLOAD PUSH32 0x1A8351400000000000000000000000000000000000000000000000000000000 DUP2 MSTORE PUSH1 0x4 ADD PUSH2 0x2698 SWAP2 SWAP1 PUSH2 0x3A27 JUMP JUMPDEST PUSH1 0x40 MLOAD DUP1 SWAP2 SUB SWAP1 REVERT JUMPDEST PUSH0 DUP1 PUSH2 0x26AD DUP5 DUP5 PUSH2 0x277F JUMP JUMPDEST SWAP2 POP SWAP2 POP PUSH2 0x26CC DUP6 PUSH0 DUP5 DUP5 PUSH1 0x40 MLOAD DUP1 PUSH1 0x20 ADD PUSH1 0x40 MSTORE DUP1 PUSH0 DUP2 MSTORE POP PUSH2 0x26D3 JUMP JUMPDEST POP POP POP POP POP JUMP JUMPDEST PUSH2 0x26DF DUP6 DUP6 DUP6 DUP6 PUSH2 0x284A JUMP JUMPDEST PUSH0 PUSH20 0xFFFFFFFFFFFFFFFFFFFFFFFFFFFFFFFFFFFFFFFF AND DUP5 PUSH20 0xFFFFFFFFFFFFFFFFFFFFFFFFFFFFFFFFFFFFFFFF AND EQ PUSH2 0x2778 JUMPI PUSH0 PUSH2 0x271B PUSH2 0x1A07 JUMP JUMPDEST SWAP1 POP PUSH1 0x1 DUP5 MLOAD SUB PUSH2 0x2767 JUMPI PUSH0 PUSH2 0x273A PUSH0 DUP7 PUSH2 0x1B77 SWAP1 SWAP2 SWAP1 PUSH4 0xFFFFFFFF AND JUMP JUMPDEST SWAP1 POP PUSH0 PUSH2 0x2750 PUSH0 DUP7 PUSH2 0x1B77 SWAP1 SWAP2 SWAP1 PUSH4 0xFFFFFFFF AND JUMP JUMPDEST SWAP1 POP PUSH2 0x2760 DUP4 DUP10 DUP10 DUP6 DUP6 DUP10 PUSH2 0x285C JUMP JUMPDEST POP POP PUSH2 0x2776 JUMP JUMPDEST PUSH2 0x2775 DUP2 DUP8 DUP8 DUP8 DUP8 DUP8 PUSH2 0x2A0B JUMP JUMPDEST JUMPDEST POP JUMPDEST POP POP POP POP POP JUMP JUMPDEST PUSH1 0x60 DUP1 PUSH1 0x40 MLOAD SWAP2 POP PUSH1 0x1 DUP3 MSTORE DUP4 PUSH1 0x20 DUP4 ADD MSTORE PUSH1 0x40 DUP3 ADD SWAP1 POP PUSH1 0x1 DUP2 MSTORE DUP3 PUSH1 0x20 DUP3 ADD MSTORE PUSH1 0x40 DUP2 ADD PUSH1 0x40 MSTORE SWAP3 POP SWAP3 SWAP1 POP JUMP JUMPDEST PUSH2 0x27B7 PUSH2 0xAC9 JUMP JUMPDEST PUSH2 0x27ED JUMPI PUSH1 0x40 MLOAD PUSH32 0x8DFC202B00000000000000000000000000000000000000000000000000000000 DUP2 MSTORE PUSH1 0x4 ADD PUSH1 0x40 MLOAD DUP1 SWAP2 SUB SWAP1 REVERT JUMPDEST JUMP JUMPDEST PUSH2 0x27F7 PUSH2 0xAC9 JUMP JUMPDEST ISZERO PUSH2 0x282E JUMPI PUSH1 0x40 MLOAD PUSH32 0xD93C066500000000000000000000000000000000000000000000000000000000 DUP2 MSTORE PUSH1 0x4 ADD PUSH1 0x40 MLOAD DUP1 SWAP2 SUB SWAP1 REVERT JUMPDEST JUMP JUMPDEST PUSH2 0x2847 DUP2 PUSH2 0x283F PUSH2 0x2BBA PUSH2 0x2BD9 JUMP JUMPDEST PUSH4 0xFFFFFFFF AND JUMP JUMPDEST POP JUMP JUMPDEST PUSH2 0x2856 DUP5 DUP5 DUP5 DUP5 PUSH2 0x2BE4 JUMP JUMPDEST POP POP POP POP JUMP JUMPDEST PUSH0 DUP5 PUSH20 0xFFFFFFFFFFFFFFFFFFFFFFFFFFFFFFFFFFFFFFFF AND EXTCODESIZE GT ISZERO PUSH2 0x2A03 JUMPI DUP4 PUSH20 0xFFFFFFFFFFFFFFFFFFFFFFFFFFFFFFFFFFFFFFFF AND PUSH4 0xF23A6E61 DUP8 DUP8 DUP7 DUP7 DUP7 PUSH1 0x40 MLOAD DUP7 PUSH4 0xFFFFFFFF AND PUSH1 0xE0 SHL DUP2 MSTORE PUSH1 0x4 ADD PUSH2 0x28BC SWAP6 SWAP5 SWAP4 SWAP3 SWAP2 SWAP1 PUSH2 0x4727 JUMP JUMPDEST PUSH1 0x20 PUSH1 0x40 MLOAD DUP1 DUP4 SUB DUP2 PUSH0 DUP8 GAS CALL SWAP3 POP POP POP DUP1 ISZERO PUSH2 0x28F7 JUMPI POP PUSH1 0x40 MLOAD RETURNDATASIZE PUSH1 0x1F NOT PUSH1 0x1F DUP3 ADD AND DUP3 ADD DUP1 PUSH1 0x40 MSTORE POP DUP2 ADD SWAP1 PUSH2 0x28F4 SWAP2 SWAP1 PUSH2 0x4793 JUMP JUMPDEST PUSH1 0x1 JUMPDEST PUSH2 0x2978 JUMPI RETURNDATASIZE DUP1 PUSH0 DUP2 EQ PUSH2 0x2925 JUMPI PUSH1 0x40 MLOAD SWAP2 POP PUSH1 0x1F NOT PUSH1 0x3F RETURNDATASIZE ADD AND DUP3 ADD PUSH1 0x40 MSTORE RETURNDATASIZE DUP3 MSTORE RETURNDATASIZE PUSH0 PUSH1 0x20 DUP5 ADD RETURNDATACOPY PUSH2 0x292A JUMP JUMPDEST PUSH1 0x60 SWAP2 POP JUMPDEST POP PUSH0 DUP2 MLOAD SUB PUSH2 0x2970 JUMPI DUP5 PUSH1 0x40 MLOAD PUSH32 0x57F447CE00000000000000000000000000000000000000000000000000000000 DUP2 MSTORE PUSH1 0x4 ADD PUSH2 0x2967 SWAP2 SWAP1 PUSH2 0x3A27 JUMP JUMPDEST PUSH1 0x40 MLOAD DUP1 SWAP2 SUB SWAP1 REVERT JUMPDEST DUP1 MLOAD DUP2 PUSH1 0x20 ADD REVERT JUMPDEST PUSH4 0xF23A6E61 PUSH1 0xE0 SHL PUSH28 0xFFFFFFFFFFFFFFFFFFFFFFFFFFFFFFFFFFFFFFFFFFFFFFFFFFFFFFFF NOT AND DUP2 PUSH28 0xFFFFFFFFFFFFFFFFFFFFFFFFFFFFFFFFFFFFFFFFFFFFFFFFFFFFFFFF NOT AND EQ PUSH2 0x2A01 JUMPI DUP5 PUSH1 0x40 MLOAD PUSH32 0x57F447CE00000000000000000000000000000000000000000000000000000000 DUP2 MSTORE PUSH1 0x4 ADD PUSH2 0x29F8 SWAP2 SWAP1 PUSH2 0x3A27 JUMP JUMPDEST PUSH1 0x40 MLOAD DUP1 SWAP2 SUB SWAP1 REVERT JUMPDEST POP JUMPDEST POP POP POP POP POP POP JUMP JUMPDEST PUSH0 DUP5 PUSH20 0xFFFFFFFFFFFFFFFFFFFFFFFFFFFFFFFFFFFFFFFF AND EXTCODESIZE GT ISZERO PUSH2 0x2BB2 JUMPI DUP4 PUSH20 0xFFFFFFFFFFFFFFFFFFFFFFFFFFFFFFFFFFFFFFFF AND PUSH4 0xBC197C81 DUP8 DUP8 DUP7 DUP7 DUP7 PUSH1 0x40 MLOAD DUP7 PUSH4 0xFFFFFFFF AND PUSH1 0xE0 SHL DUP2 MSTORE PUSH1 0x4 ADD PUSH2 0x2A6B SWAP6 SWAP5 SWAP4 SWAP3 SWAP2 SWAP1 PUSH2 0x47BE JUMP JUMPDEST PUSH1 0x20 PUSH1 0x40 MLOAD DUP1 DUP4 SUB DUP2 PUSH0 DUP8 GAS CALL SWAP3 POP POP POP DUP1 ISZERO PUSH2 0x2AA6 JUMPI POP PUSH1 0x40 MLOAD RETURNDATASIZE PUSH1 0x1F NOT PUSH1 0x1F DUP3 ADD AND DUP3 ADD DUP1 PUSH1 0x40 MSTORE POP DUP2 ADD SWAP1 PUSH2 0x2AA3 SWAP2 SWAP1 PUSH2 0x4793 JUMP JUMPDEST PUSH1 0x1 JUMPDEST PUSH2 0x2B27 JUMPI RETURNDATASIZE DUP1 PUSH0 DUP2 EQ PUSH2 0x2AD4 JUMPI PUSH1 0x40 MLOAD SWAP2 POP PUSH1 0x1F NOT PUSH1 0x3F RETURNDATASIZE ADD AND DUP3 ADD PUSH1 0x40 MSTORE RETURNDATASIZE DUP3 MSTORE RETURNDATASIZE PUSH0 PUSH1 0x20 DUP5 ADD RETURNDATACOPY PUSH2 0x2AD9 JUMP JUMPDEST PUSH1 0x60 SWAP2 POP JUMPDEST POP PUSH0 DUP2 MLOAD SUB PUSH2 0x2B1F JUMPI DUP5 PUSH1 0x40 MLOAD PUSH32 0x57F447CE00000000000000000000000000000000000000000000000000000000 DUP2 MSTORE PUSH1 0x4 ADD PUSH2 0x2B16 SWAP2 SWAP1 PUSH2 0x3A27 JUMP JUMPDEST PUSH1 0x40 MLOAD DUP1 SWAP2 SUB SWAP1 REVERT JUMPDEST DUP1 MLOAD DUP2 PUSH1 0x20 ADD REVERT JUMPDEST PUSH4 0xBC197C81 PUSH1 0xE0 SHL PUSH28 0xFFFFFFFFFFFFFFFFFFFFFFFFFFFFFFFFFFFFFFFFFFFFFFFFFFFFFFFF NOT AND DUP2 PUSH28 0xFFFFFFFFFFFFFFFFFFFFFFFFFFFFFFFFFFFFFFFFFFFFFFFFFFFFFFFF NOT AND EQ PUSH2 0x2BB0 JUMPI DUP5 PUSH1 0x40 MLOAD PUSH32 0x57F447CE00000000000000000000000000000000000000000000000000000000 DUP2 MSTORE PUSH1 0x4 ADD PUSH2 0x2BA7 SWAP2 SWAP1 PUSH2 0x3A27 JUMP JUMPDEST PUSH1 0x40 MLOAD DUP1 SWAP2 SUB SWAP1 REVERT JUMPDEST POP JUMPDEST POP POP POP POP POP POP JUMP JUMPDEST PUSH0 PUSH11 0x636F6E736F6C652E6C6F67 SWAP1 POP PUSH0 DUP1 DUP4 MLOAD PUSH1 0x20 DUP6 ADD DUP5 GAS STATICCALL POP POP POP JUMP JUMPDEST PUSH2 0x2FFD DUP2 SWAP1 POP SWAP2 SWAP1 POP JUMP JUMPDEST PUSH2 0x2BEC PUSH2 0x27EF JUMP JUMPDEST PUSH2 0x2BF8 DUP5 DUP5 DUP5 DUP5 PUSH2 0x2BFE JUMP JUMPDEST POP POP POP POP JUMP JUMPDEST DUP1 MLOAD DUP3 MLOAD EQ PUSH2 0x2C48 JUMPI DUP2 MLOAD DUP2 MLOAD PUSH1 0x40 MLOAD PUSH32 0x5B05999100000000000000000000000000000000000000000000000000000000 DUP2 MSTORE PUSH1 0x4 ADD PUSH2 0x2C3F SWAP3 SWAP2 SWAP1 PUSH2 0x3FD6 JUMP JUMPDEST PUSH1 0x40 MLOAD DUP1 SWAP2 SUB SWAP1 REVERT JUMPDEST PUSH0 PUSH2 0x2C51 PUSH2 0x1A07 JUMP JUMPDEST SWAP1 POP PUSH0 JUMPDEST DUP4 MLOAD DUP2 LT ISZERO PUSH2 0x2E4D JUMPI PUSH0 PUSH2 0x2C72 DUP3 DUP7 PUSH2 0x1B77 SWAP1 SWAP2 SWAP1 PUSH4 0xFFFFFFFF AND JUMP JUMPDEST SWAP1 POP PUSH0 PUSH2 0x2C88 DUP4 DUP7 PUSH2 0x1B77 SWAP1 SWAP2 SWAP1 PUSH4 0xFFFFFFFF AND JUMP JUMPDEST SWAP1 POP PUSH0 PUSH20 0xFFFFFFFFFFFFFFFFFFFFFFFFFFFFFFFFFFFFFFFF AND DUP9 PUSH20 0xFFFFFFFFFFFFFFFFFFFFFFFFFFFFFFFFFFFFFFFF AND EQ PUSH2 0x2DAB JUMPI PUSH0 DUP1 PUSH0 DUP5 DUP2 MSTORE PUSH1 0x20 ADD SWAP1 DUP2 MSTORE PUSH1 0x20 ADD PUSH0 KECCAK256 PUSH0 DUP11 PUSH20 0xFFFFFFFFFFFFFFFFFFFFFFFFFFFFFFFFFFFFFFFF AND PUSH20 0xFFFFFFFFFFFFFFFFFFFFFFFFFFFFFFFFFFFFFFFF AND DUP2 MSTORE PUSH1 0x20 ADD SWAP1 DUP2 MSTORE PUSH1 0x20 ADD PUSH0 KECCAK256 SLOAD SWAP1 POP DUP2 DUP2 LT ISZERO PUSH2 0x2D57 JUMPI DUP9 DUP2 DUP4 DUP6 PUSH1 0x40 MLOAD PUSH32 0x3DEE4C500000000000000000000000000000000000000000000000000000000 DUP2 MSTORE PUSH1 0x4 ADD PUSH2 0x2D4E SWAP5 SWAP4 SWAP3 SWAP2 SWAP1 PUSH2 0x4824 JUMP JUMPDEST PUSH1 0x40 MLOAD DUP1 SWAP2 SUB SWAP1 REVERT JUMPDEST DUP2 DUP2 SUB PUSH0 DUP1 DUP6 DUP2 MSTORE PUSH1 0x20 ADD SWAP1 DUP2 MSTORE PUSH1 0x20 ADD PUSH0 KECCAK256 PUSH0 DUP12 PUSH20 0xFFFFFFFFFFFFFFFFFFFFFFFFFFFFFFFFFFFFFFFF AND PUSH20 0xFFFFFFFFFFFFFFFFFFFFFFFFFFFFFFFFFFFFFFFF AND DUP2 MSTORE PUSH1 0x20 ADD SWAP1 DUP2 MSTORE PUSH1 0x20 ADD PUSH0 KECCAK256 DUP2 SWAP1 SSTORE POP POP JUMPDEST PUSH0 PUSH20 0xFFFFFFFFFFFFFFFFFFFFFFFFFFFFFFFFFFFFFFFF AND DUP8 PUSH20 0xFFFFFFFFFFFFFFFFFFFFFFFFFFFFFFFFFFFFFFFF AND EQ PUSH2 0x2E40 JUMPI DUP1 PUSH0 DUP1 DUP5 DUP2 MSTORE PUSH1 0x20 ADD SWAP1 DUP2 MSTORE PUSH1 0x20 ADD PUSH0 KECCAK256 PUSH0 DUP10 PUSH20 0xFFFFFFFFFFFFFFFFFFFFFFFFFFFFFFFFFFFFFFFF AND PUSH20 0xFFFFFFFFFFFFFFFFFFFFFFFFFFFFFFFFFFFFFFFF AND DUP2 MSTORE PUSH1 0x20 ADD SWAP1 DUP2 MSTORE PUSH1 0x20 ADD PUSH0 KECCAK256 PUSH0 DUP3 DUP3 SLOAD PUSH2 0x2E38 SWAP2 SWAP1 PUSH2 0x4867 JUMP JUMPDEST SWAP3 POP POP DUP2 SWAP1 SSTORE POP JUMPDEST POP POP DUP1 PUSH1 0x1 ADD SWAP1 POP PUSH2 0x2C55 JUMP JUMPDEST POP PUSH1 0x1 DUP4 MLOAD SUB PUSH2 0x2F08 JUMPI PUSH0 PUSH2 0x2E6B PUSH0 DUP6 PUSH2 0x1B77 SWAP1 SWAP2 SWAP1 PUSH4 0xFFFFFFFF AND JUMP JUMPDEST SWAP1 POP PUSH0 PUSH2 0x2E81 PUSH0 DUP6 PUSH2 0x1B77 SWAP1 SWAP2 SWAP1 PUSH4 0xFFFFFFFF AND JUMP JUMPDEST SWAP1 POP DUP6 PUSH20 0xFFFFFFFFFFFFFFFFFFFFFFFFFFFFFFFFFFFFFFFF AND DUP8 PUSH20 0xFFFFFFFFFFFFFFFFFFFFFFFFFFFFFFFFFFFFFFFF AND DUP5 PUSH20 0xFFFFFFFFFFFFFFFFFFFFFFFFFFFFFFFFFFFFFFFF AND PUSH32 0xC3D58168C5AE7397731D063D5BBF3D657854427343F4C083240F7AACAA2D0F62 DUP6 DUP6 PUSH1 0x40 MLOAD PUSH2 0x2EF9 SWAP3 SWAP2 SWAP1 PUSH2 0x3FD6 JUMP JUMPDEST PUSH1 0x40 MLOAD DUP1 SWAP2 SUB SWAP1 LOG4 POP POP PUSH2 0x2F87 JUMP JUMPDEST DUP4 PUSH20 0xFFFFFFFFFFFFFFFFFFFFFFFFFFFFFFFFFFFFFFFF AND DUP6 PUSH20 0xFFFFFFFFFFFFFFFFFFFFFFFFFFFFFFFFFFFFFFFF AND DUP3 PUSH20 0xFFFFFFFFFFFFFFFFFFFFFFFFFFFFFFFFFFFFFFFF AND PUSH32 0x4A39DC06D4C0DBC64B70AF90FD698A233A518AA5D07E595D983B8C0526C8F7FB DUP7 DUP7 PUSH1 0x40 MLOAD PUSH2 0x2F7E SWAP3 SWAP2 SWAP1 PUSH2 0x489A JUMP JUMPDEST PUSH1 0x40 MLOAD DUP1 SWAP2 SUB SWAP1 LOG4 JUMPDEST POP POP POP POP POP JUMP JUMPDEST PUSH1 0x40 MLOAD DUP1 PUSH1 0x80 ADD PUSH1 0x40 MSTORE DUP1 PUSH2 0x2FA1 PUSH2 0x3007 JUMP JUMPDEST DUP2 MSTORE PUSH1 0x20 ADD PUSH0 PUSH20 0xFFFFFFFFFFFFFFFFFFFFFFFFFFFFFFFFFFFFFFFF AND DUP2 MSTORE PUSH1 0x20 ADD PUSH0 DUP2 MSTORE PUSH1 0x20 ADD PUSH0 DUP2 MSTORE POP SWAP1 JUMP JUMPDEST PUSH1 0x40 MLOAD DUP1 PUSH1 0x40 ADD PUSH1 0x40 MSTORE DUP1 PUSH0 PUSH20 0xFFFFFFFFFFFFFFFFFFFFFFFFFFFFFFFFFFFFFFFF AND DUP2 MSTORE PUSH1 0x20 ADD PUSH0 DUP2 MSTORE POP SWAP1 JUMP JUMPDEST PUSH2 0x3005 PUSH2 0x48CF JUMP JUMPDEST JUMP JUMPDEST PUSH1 0x40 MLOAD DUP1 PUSH1 0x40 ADD PUSH1 0x40 MSTORE DUP1 PUSH0 DUP2 MSTORE PUSH1 0x20 ADD PUSH0 DUP2 MSTORE POP SWAP1 JUMP JUMPDEST PUSH0 PUSH1 0x40 MLOAD SWAP1 POP SWAP1 JUMP JUMPDEST PUSH0 DUP1 REVERT JUMPDEST PUSH0 DUP1 REVERT JUMPDEST PUSH0 PUSH20 0xFFFFFFFFFFFFFFFFFFFFFFFFFFFFFFFFFFFFFFFF DUP3 AND SWAP1 POP SWAP2 SWAP1 POP JUMP JUMPDEST PUSH0 PUSH2 0x3059 DUP3 PUSH2 0x3030 JUMP JUMPDEST SWAP1 POP SWAP2 SWAP1 POP JUMP JUMPDEST PUSH2 0x3069 DUP2 PUSH2 0x304F JUMP JUMPDEST DUP2 EQ PUSH2 0x3073 JUMPI PUSH0 DUP1 REVERT JUMPDEST POP JUMP JUMPDEST PUSH0 DUP2 CALLDATALOAD SWAP1 POP PUSH2 0x3084 DUP2 PUSH2 0x3060 JUMP JUMPDEST SWAP3 SWAP2 POP POP JUMP JUMPDEST PUSH0 DUP2 SWAP1 POP SWAP2 SWAP1 POP JUMP JUMPDEST PUSH2 0x309C DUP2 PUSH2 0x308A JUMP JUMPDEST DUP2 EQ PUSH2 0x30A6 JUMPI PUSH0 DUP1 REVERT JUMPDEST POP JUMP JUMPDEST PUSH0 DUP2 CALLDATALOAD SWAP1 POP PUSH2 0x30B7 DUP2 PUSH2 0x3093 JUMP JUMPDEST SWAP3 SWAP2 POP POP JUMP JUMPDEST PUSH0 DUP1 PUSH1 0x40 DUP4 DUP6 SUB SLT ISZERO PUSH2 0x30D3 JUMPI PUSH2 0x30D2 PUSH2 0x3028 JUMP JUMPDEST JUMPDEST PUSH0 PUSH2 0x30E0 DUP6 DUP3 DUP7 ADD PUSH2 0x3076 JUMP JUMPDEST SWAP3 POP POP PUSH1 0x20 PUSH2 0x30F1 DUP6 DUP3 DUP7 ADD PUSH2 0x30A9 JUMP JUMPDEST SWAP2 POP POP SWAP3 POP SWAP3 SWAP1 POP JUMP JUMPDEST PUSH2 0x3104 DUP2 PUSH2 0x308A JUMP JUMPDEST DUP3 MSTORE POP POP JUMP JUMPDEST PUSH0 PUSH1 0x20 DUP3 ADD SWAP1 POP PUSH2 0x311D PUSH0 DUP4 ADD DUP5 PUSH2 0x30FB JUMP JUMPDEST SWAP3 SWAP2 POP POP JUMP JUMPDEST PUSH0 PUSH32 0xFFFFFFFF00000000000000000000000000000000000000000000000000000000 DUP3 AND SWAP1 POP SWAP2 SWAP1 POP JUMP JUMPDEST PUSH2 0x3157 DUP2 PUSH2 0x3123 JUMP JUMPDEST DUP2 EQ PUSH2 0x3161 JUMPI PUSH0 DUP1 REVERT JUMPDEST POP JUMP JUMPDEST PUSH0 DUP2 CALLDATALOAD SWAP1 POP PUSH2 0x3172 DUP2 PUSH2 0x314E JUMP JUMPDEST SWAP3 SWAP2 POP POP JUMP JUMPDEST PUSH0 PUSH1 0x20 DUP3 DUP5 SUB SLT ISZERO PUSH2 0x318D JUMPI PUSH2 0x318C PUSH2 0x3028 JUMP JUMPDEST JUMPDEST PUSH0 PUSH2 0x319A DUP5 DUP3 DUP6 ADD PUSH2 0x3164 JUMP JUMPDEST SWAP2 POP POP SWAP3 SWAP2 POP POP JUMP JUMPDEST PUSH0 DUP2 ISZERO ISZERO SWAP1 POP SWAP2 SWAP1 POP JUMP JUMPDEST PUSH2 0x31B7 DUP2 PUSH2 0x31A3 JUMP JUMPDEST DUP3 MSTORE POP POP JUMP JUMPDEST PUSH0 PUSH1 0x20 DUP3 ADD SWAP1 POP PUSH2 0x31D0 PUSH0 DUP4 ADD DUP5 PUSH2 0x31AE JUMP JUMPDEST SWAP3 SWAP2 POP POP JUMP JUMPDEST PUSH0 DUP1 REVERT JUMPDEST PUSH0 DUP1 REVERT JUMPDEST PUSH0 PUSH1 0x1F NOT PUSH1 0x1F DUP4 ADD AND SWAP1 POP SWAP2 SWAP1 POP JUMP JUMPDEST PUSH32 0x4E487B7100000000000000000000000000000000000000000000000000000000 PUSH0 MSTORE PUSH1 0x41 PUSH1 0x4 MSTORE PUSH1 0x24 PUSH0 REVERT JUMPDEST PUSH2 0x3224 DUP3 PUSH2 0x31DE JUMP JUMPDEST DUP2 ADD DUP2 DUP2 LT PUSH8 0xFFFFFFFFFFFFFFFF DUP3 GT OR ISZERO PUSH2 0x3243 JUMPI PUSH2 0x3242 PUSH2 0x31EE JUMP JUMPDEST JUMPDEST DUP1 PUSH1 0x40 MSTORE POP POP POP JUMP JUMPDEST PUSH0 PUSH2 0x3255 PUSH2 0x301F JUMP JUMPDEST SWAP1 POP PUSH2 0x3261 DUP3 DUP3 PUSH2 0x321B JUMP JUMPDEST SWAP2 SWAP1 POP JUMP JUMPDEST PUSH0 PUSH8 0xFFFFFFFFFFFFFFFF DUP3 GT ISZERO PUSH2 0x3280 JUMPI PUSH2 0x327F PUSH2 0x31EE JUMP JUMPDEST JUMPDEST PUSH2 0x3289 DUP3 PUSH2 0x31DE JUMP JUMPDEST SWAP1 POP PUSH1 0x20 DUP2 ADD SWAP1 POP SWAP2 SWAP1 POP JUMP JUMPDEST DUP3 DUP2 DUP4 CALLDATACOPY PUSH0 DUP4 DUP4 ADD MSTORE POP POP POP JUMP JUMPDEST PUSH0 PUSH2 0x32B6 PUSH2 0x32B1 DUP5 PUSH2 0x3266 JUMP JUMPDEST PUSH2 0x324C JUMP JUMPDEST SWAP1 POP DUP3 DUP2 MSTORE PUSH1 0x20 DUP2 ADD DUP5 DUP5 DUP5 ADD GT ISZERO PUSH2 0x32D2 JUMPI PUSH2 0x32D1 PUSH2 0x31DA JUMP JUMPDEST JUMPDEST PUSH2 0x32DD DUP5 DUP3 DUP6 PUSH2 0x3296 JUMP JUMPDEST POP SWAP4 SWAP3 POP POP POP JUMP JUMPDEST PUSH0 DUP3 PUSH1 0x1F DUP4 ADD SLT PUSH2 0x32F9 JUMPI PUSH2 0x32F8 PUSH2 0x31D6 JUMP JUMPDEST JUMPDEST DUP2 CALLDATALOAD PUSH2 0x3309 DUP5 DUP3 PUSH1 0x20 DUP7 ADD PUSH2 0x32A4 JUMP JUMPDEST SWAP2 POP POP SWAP3 SWAP2 POP POP JUMP JUMPDEST PUSH0 PUSH1 0x20 DUP3 DUP5 SUB SLT ISZERO PUSH2 0x3327 JUMPI PUSH2 0x3326 PUSH2 0x3028 JUMP JUMPDEST JUMPDEST PUSH0 DUP3 ADD CALLDATALOAD PUSH8 0xFFFFFFFFFFFFFFFF DUP2 GT ISZERO PUSH2 0x3344 JUMPI PUSH2 0x3343 PUSH2 0x302C JUMP JUMPDEST JUMPDEST PUSH2 0x3350 DUP5 DUP3 DUP6 ADD PUSH2 0x32E5 JUMP JUMPDEST SWAP2 POP POP SWAP3 SWAP2 POP POP JUMP JUMPDEST PUSH0 PUSH1 0x20 DUP3 DUP5 SUB SLT ISZERO PUSH2 0x336E JUMPI PUSH2 0x336D PUSH2 0x3028 JUMP JUMPDEST JUMPDEST PUSH0 PUSH2 0x337B DUP5 DUP3 DUP6 ADD PUSH2 0x30A9 JUMP JUMPDEST SWAP2 POP POP SWAP3 SWAP2 POP POP JUMP JUMPDEST PUSH0 DUP2 MLOAD SWAP1 POP SWAP2 SWAP1 POP JUMP JUMPDEST PUSH0 DUP3 DUP3 MSTORE PUSH1 0x20 DUP3 ADD SWAP1 POP SWAP3 SWAP2 POP POP JUMP JUMPDEST PUSH0 JUMPDEST DUP4 DUP2 LT ISZERO PUSH2 0x33BB JUMPI DUP1 DUP3 ADD MLOAD DUP2 DUP5 ADD MSTORE PUSH1 0x20 DUP2 ADD SWAP1 POP PUSH2 0x33A0 JUMP JUMPDEST PUSH0 DUP5 DUP5 ADD MSTORE POP POP POP POP JUMP JUMPDEST PUSH0 PUSH2 0x33D0 DUP3 PUSH2 0x3384 JUMP JUMPDEST PUSH2 0x33DA DUP2 DUP6 PUSH2 0x338E JUMP JUMPDEST SWAP4 POP PUSH2 0x33EA DUP2 DUP6 PUSH1 0x20 DUP7 ADD PUSH2 0x339E JUMP JUMPDEST PUSH2 0x33F3 DUP2 PUSH2 0x31DE JUMP JUMPDEST DUP5 ADD SWAP2 POP POP SWAP3 SWAP2 POP POP JUMP JUMPDEST PUSH0 PUSH1 0x20 DUP3 ADD SWAP1 POP DUP2 DUP2 SUB PUSH0 DUP4 ADD MSTORE PUSH2 0x3416 DUP2 DUP5 PUSH2 0x33C6 JUMP JUMPDEST SWAP1 POP SWAP3 SWAP2 POP POP JUMP JUMPDEST PUSH0 PUSH8 0xFFFFFFFFFFFFFFFF DUP3 GT ISZERO PUSH2 0x3438 JUMPI PUSH2 0x3437 PUSH2 0x31EE JUMP JUMPDEST JUMPDEST PUSH1 0x20 DUP3 MUL SWAP1 POP PUSH1 0x20 DUP2 ADD SWAP1 POP SWAP2 SWAP1 POP JUMP JUMPDEST PUSH0 DUP1 REVERT JUMPDEST PUSH0 PUSH2 0x345F PUSH2 0x345A DUP5 PUSH2 0x341E JUMP JUMPDEST PUSH2 0x324C JUMP JUMPDEST SWAP1 POP DUP1 DUP4 DUP3 MSTORE PUSH1 0x20 DUP3 ADD SWAP1 POP PUSH1 0x20 DUP5 MUL DUP4 ADD DUP6 DUP2 GT ISZERO PUSH2 0x3482 JUMPI PUSH2 0x3481 PUSH2 0x3449 JUMP JUMPDEST JUMPDEST DUP4 JUMPDEST DUP2 DUP2 LT ISZERO PUSH2 0x34AB JUMPI DUP1 PUSH2 0x3497 DUP9 DUP3 PUSH2 0x30A9 JUMP JUMPDEST DUP5 MSTORE PUSH1 0x20 DUP5 ADD SWAP4 POP POP PUSH1 0x20 DUP2 ADD SWAP1 POP PUSH2 0x3484 JUMP JUMPDEST POP POP POP SWAP4 SWAP3 POP POP POP JUMP JUMPDEST PUSH0 DUP3 PUSH1 0x1F DUP4 ADD SLT PUSH2 0x34C9 JUMPI PUSH2 0x34C8 PUSH2 0x31D6 JUMP JUMPDEST JUMPDEST DUP2 CALLDATALOAD PUSH2 0x34D9 DUP5 DUP3 PUSH1 0x20 DUP7 ADD PUSH2 0x344D JUMP JUMPDEST SWAP2 POP POP SWAP3 SWAP2 POP POP JUMP JUMPDEST PUSH0 PUSH8 0xFFFFFFFFFFFFFFFF DUP3 GT ISZERO PUSH2 0x34FC JUMPI PUSH2 0x34FB PUSH2 0x31EE JUMP JUMPDEST JUMPDEST PUSH2 0x3505 DUP3 PUSH2 0x31DE JUMP JUMPDEST SWAP1 POP PUSH1 0x20 DUP2 ADD SWAP1 POP SWAP2 SWAP1 POP JUMP JUMPDEST PUSH0 PUSH2 0x3524 PUSH2 0x351F DUP5 PUSH2 0x34E2 JUMP JUMPDEST PUSH2 0x324C JUMP JUMPDEST SWAP1 POP DUP3 DUP2 MSTORE PUSH1 0x20 DUP2 ADD DUP5 DUP5 DUP5 ADD GT ISZERO PUSH2 0x3540 JUMPI PUSH2 0x353F PUSH2 0x31DA JUMP JUMPDEST JUMPDEST PUSH2 0x354B DUP5 DUP3 DUP6 PUSH2 0x3296 JUMP JUMPDEST POP SWAP4 SWAP3 POP POP POP JUMP JUMPDEST PUSH0 DUP3 PUSH1 0x1F DUP4 ADD SLT PUSH2 0x3567 JUMPI PUSH2 0x3566 PUSH2 0x31D6 JUMP JUMPDEST JUMPDEST DUP2 CALLDATALOAD PUSH2 0x3577 DUP5 DUP3 PUSH1 0x20 DUP7 ADD PUSH2 0x3512 JUMP JUMPDEST SWAP2 POP POP SWAP3 SWAP2 POP POP JUMP JUMPDEST PUSH0 DUP1 PUSH0 DUP1 PUSH1 0x80 DUP6 DUP8 SUB SLT ISZERO PUSH2 0x3598 JUMPI PUSH2 0x3597 PUSH2 0x3028 JUMP JUMPDEST JUMPDEST PUSH0 PUSH2 0x35A5 DUP8 DUP3 DUP9 ADD PUSH2 0x3076 JUMP JUMPDEST SWAP5 POP POP PUSH1 0x20 DUP6 ADD CALLDATALOAD PUSH8 0xFFFFFFFFFFFFFFFF DUP2 GT ISZERO PUSH2 0x35C6 JUMPI PUSH2 0x35C5 PUSH2 0x302C JUMP JUMPDEST JUMPDEST PUSH2 0x35D2 DUP8 DUP3 DUP9 ADD PUSH2 0x34B5 JUMP JUMPDEST SWAP4 POP POP PUSH1 0x40 DUP6 ADD CALLDATALOAD PUSH8 0xFFFFFFFFFFFFFFFF DUP2 GT ISZERO PUSH2 0x35F3 JUMPI PUSH2 0x35F2 PUSH2 0x302C JUMP JUMPDEST JUMPDEST PUSH2 0x35FF DUP8 DUP3 DUP9 ADD PUSH2 0x34B5 JUMP JUMPDEST SWAP3 POP POP PUSH1 0x60 DUP6 ADD CALLDATALOAD PUSH8 0xFFFFFFFFFFFFFFFF DUP2 GT ISZERO PUSH2 0x3620 JUMPI PUSH2 0x361F PUSH2 0x302C JUMP JUMPDEST JUMPDEST PUSH2 0x362C DUP8 DUP3 DUP9 ADD PUSH2 0x3553 JUMP JUMPDEST SWAP2 POP POP SWAP3 SWAP6 SWAP2 SWAP5 POP SWAP3 POP JUMP JUMPDEST PUSH0 DUP1 PUSH0 DUP1 PUSH0 PUSH1 0xA0 DUP7 DUP9 SUB SLT ISZERO PUSH2 0x3651 JUMPI PUSH2 0x3650 PUSH2 0x3028 JUMP JUMPDEST JUMPDEST PUSH0 PUSH2 0x365E DUP9 DUP3 DUP10 ADD PUSH2 0x3076 JUMP JUMPDEST SWAP6 POP POP PUSH1 0x20 PUSH2 0x366F DUP9 DUP3 DUP10 ADD PUSH2 0x3076 JUMP JUMPDEST SWAP5 POP POP PUSH1 0x40 DUP7 ADD CALLDATALOAD PUSH8 0xFFFFFFFFFFFFFFFF DUP2 GT ISZERO PUSH2 0x3690 JUMPI PUSH2 0x368F PUSH2 0x302C JUMP JUMPDEST JUMPDEST PUSH2 0x369C DUP9 DUP3 DUP10 ADD PUSH2 0x34B5 JUMP JUMPDEST SWAP4 POP POP PUSH1 0x60 DUP7 ADD CALLDATALOAD PUSH8 0xFFFFFFFFFFFFFFFF DUP2 GT ISZERO PUSH2 0x36BD JUMPI PUSH2 0x36BC PUSH2 0x302C JUMP JUMPDEST JUMPDEST PUSH2 0x36C9 DUP9 DUP3 DUP10 ADD PUSH2 0x34B5 JUMP JUMPDEST SWAP3 POP POP PUSH1 0x80 DUP7 ADD CALLDATALOAD PUSH8 0xFFFFFFFFFFFFFFFF DUP2 GT ISZERO PUSH2 0x36EA JUMPI PUSH2 0x36E9 PUSH2 0x302C JUMP JUMPDEST JUMPDEST PUSH2 0x36F6 DUP9 DUP3 DUP10 ADD PUSH2 0x3553 JUMP JUMPDEST SWAP2 POP POP SWAP3 SWAP6 POP SWAP3 SWAP6 SWAP1 SWAP4 POP JUMP JUMPDEST PUSH0 PUSH8 0xFFFFFFFFFFFFFFFF DUP3 GT ISZERO PUSH2 0x371D JUMPI PUSH2 0x371C PUSH2 0x31EE JUMP JUMPDEST JUMPDEST PUSH1 0x20 DUP3 MUL SWAP1 POP PUSH1 0x20 DUP2 ADD SWAP1 POP SWAP2 SWAP1 POP JUMP JUMPDEST PUSH0 PUSH2 0x3740 PUSH2 0x373B DUP5 PUSH2 0x3703 JUMP JUMPDEST PUSH2 0x324C JUMP JUMPDEST SWAP1 POP DUP1 DUP4 DUP3 MSTORE PUSH1 0x20 DUP3 ADD SWAP1 POP PUSH1 0x20 DUP5 MUL DUP4 ADD DUP6 DUP2 GT ISZERO PUSH2 0x3763 JUMPI PUSH2 0x3762 PUSH2 0x3449 JUMP JUMPDEST JUMPDEST DUP4 JUMPDEST DUP2 DUP2 LT ISZERO PUSH2 0x378C JUMPI DUP1 PUSH2 0x3778 DUP9 DUP3 PUSH2 0x3076 JUMP JUMPDEST DUP5 MSTORE PUSH1 0x20 DUP5 ADD SWAP4 POP POP PUSH1 0x20 DUP2 ADD SWAP1 POP PUSH2 0x3765 JUMP JUMPDEST POP POP POP SWAP4 SWAP3 POP POP POP JUMP JUMPDEST PUSH0 DUP3 PUSH1 0x1F DUP4 ADD SLT PUSH2 0x37AA JUMPI PUSH2 0x37A9 PUSH2 0x31D6 JUMP JUMPDEST JUMPDEST DUP2 CALLDATALOAD PUSH2 0x37BA DUP5 DUP3 PUSH1 0x20 DUP7 ADD PUSH2 0x372E JUMP JUMPDEST SWAP2 POP POP SWAP3 SWAP2 POP POP JUMP JUMPDEST PUSH0 DUP1 PUSH1 0x40 DUP4 DUP6 SUB SLT ISZERO PUSH2 0x37D9 JUMPI PUSH2 0x37D8 PUSH2 0x3028 JUMP JUMPDEST JUMPDEST PUSH0 DUP4 ADD CALLDATALOAD PUSH8 0xFFFFFFFFFFFFFFFF DUP2 GT ISZERO PUSH2 0x37F6 JUMPI PUSH2 0x37F5 PUSH2 0x302C JUMP JUMPDEST JUMPDEST PUSH2 0x3802 DUP6 DUP3 DUP7 ADD PUSH2 0x3796 JUMP JUMPDEST SWAP3 POP POP PUSH1 0x20 DUP4 ADD CALLDATALOAD PUSH8 0xFFFFFFFFFFFFFFFF DUP2 GT ISZERO PUSH2 0x3823 JUMPI PUSH2 0x3822 PUSH2 0x302C JUMP JUMPDEST JUMPDEST PUSH2 0x382F DUP6 DUP3 DUP7 ADD PUSH2 0x34B5 JUMP JUMPDEST SWAP2 POP POP SWAP3 POP SWAP3 SWAP1 POP JUMP JUMPDEST PUSH0 DUP2 MLOAD SWAP1 POP SWAP2 SWAP1 POP JUMP JUMPDEST PUSH0 DUP3 DUP3 MSTORE PUSH1 0x20 DUP3 ADD SWAP1 POP SWAP3 SWAP2 POP POP JUMP JUMPDEST PUSH0 DUP2 SWAP1 POP PUSH1 0x20 DUP3 ADD SWAP1 POP SWAP2 SWAP1 POP JUMP JUMPDEST PUSH2 0x386B DUP2 PUSH2 0x308A JUMP JUMPDEST DUP3 MSTORE POP POP JUMP JUMPDEST PUSH0 PUSH2 0x387C DUP4 DUP4 PUSH2 0x3862 JUMP JUMPDEST PUSH1 0x20 DUP4 ADD SWAP1 POP SWAP3 SWAP2 POP POP JUMP JUMPDEST PUSH0 PUSH1 0x20 DUP3 ADD SWAP1 POP SWAP2 SWAP1 POP JUMP JUMPDEST PUSH0 PUSH2 0x389E DUP3 PUSH2 0x3839 JUMP JUMPDEST PUSH2 0x38A8 DUP2 DUP6 PUSH2 0x3843 JUMP JUMPDEST SWAP4 POP PUSH2 0x38B3 DUP4 PUSH2 0x3853 JUMP JUMPDEST DUP1 PUSH0 JUMPDEST DUP4 DUP2 LT ISZERO PUSH2 0x38E3 JUMPI DUP2 MLOAD PUSH2 0x38CA DUP9 DUP3 PUSH2 0x3871 JUMP JUMPDEST SWAP8 POP PUSH2 0x38D5 DUP4 PUSH2 0x3888 JUMP JUMPDEST SWAP3 POP POP PUSH1 0x1 DUP2 ADD SWAP1 POP PUSH2 0x38B6 JUMP JUMPDEST POP DUP6 SWAP4 POP POP POP POP SWAP3 SWAP2 POP POP JUMP JUMPDEST PUSH0 PUSH1 0x20 DUP3 ADD SWAP1 POP DUP2 DUP2 SUB PUSH0 DUP4 ADD MSTORE PUSH2 0x3908 DUP2 DUP5 PUSH2 0x3894 JUMP JUMPDEST SWAP1 POP SWAP3 SWAP2 POP POP JUMP JUMPDEST PUSH0 DUP1 PUSH0 PUSH1 0x60 DUP5 DUP7 SUB SLT ISZERO PUSH2 0x3927 JUMPI PUSH2 0x3926 PUSH2 0x3028 JUMP JUMPDEST JUMPDEST PUSH0 PUSH2 0x3934 DUP7 DUP3 DUP8 ADD PUSH2 0x3076 JUMP JUMPDEST SWAP4 POP POP PUSH1 0x20 DUP5 ADD CALLDATALOAD PUSH8 0xFFFFFFFFFFFFFFFF DUP2 GT ISZERO PUSH2 0x3955 JUMPI PUSH2 0x3954 PUSH2 0x302C JUMP JUMPDEST JUMPDEST PUSH2 0x3961 DUP7 DUP3 DUP8 ADD PUSH2 0x34B5 JUMP JUMPDEST SWAP3 POP POP PUSH1 0x40 DUP5 ADD CALLDATALOAD PUSH8 0xFFFFFFFFFFFFFFFF DUP2 GT ISZERO PUSH2 0x3982 JUMPI PUSH2 0x3981 PUSH2 0x302C JUMP JUMPDEST JUMPDEST PUSH2 0x398E DUP7 DUP3 DUP8 ADD PUSH2 0x34B5 JUMP JUMPDEST SWAP2 POP POP SWAP3 POP SWAP3 POP SWAP3 JUMP JUMPDEST PUSH0 DUP1 PUSH0 DUP1 PUSH1 0x80 DUP6 DUP8 SUB SLT ISZERO PUSH2 0x39B0 JUMPI PUSH2 0x39AF PUSH2 0x3028 JUMP JUMPDEST JUMPDEST PUSH0 PUSH2 0x39BD DUP8 DUP3 DUP9 ADD PUSH2 0x3076 JUMP JUMPDEST SWAP5 POP POP PUSH1 0x20 PUSH2 0x39CE DUP8 DUP3 DUP9 ADD PUSH2 0x30A9 JUMP JUMPDEST SWAP4 POP POP PUSH1 0x40 PUSH2 0x39DF DUP8 DUP3 DUP9 ADD PUSH2 0x30A9 JUMP JUMPDEST SWAP3 POP POP PUSH1 0x60 DUP6 ADD CALLDATALOAD PUSH8 0xFFFFFFFFFFFFFFFF DUP2 GT ISZERO PUSH2 0x3A00 JUMPI PUSH2 0x39FF PUSH2 0x302C JUMP JUMPDEST JUMPDEST PUSH2 0x3A0C DUP8 DUP3 DUP9 ADD PUSH2 0x3553 JUMP JUMPDEST SWAP2 POP POP SWAP3 SWAP6 SWAP2 SWAP5 POP SWAP3 POP JUMP JUMPDEST PUSH2 0x3A21 DUP2 PUSH2 0x304F JUMP JUMPDEST DUP3 MSTORE POP POP JUMP JUMPDEST PUSH0 PUSH1 0x20 DUP3 ADD SWAP1 POP PUSH2 0x3A3A PUSH0 DUP4 ADD DUP5 PUSH2 0x3A18 JUMP JUMPDEST SWAP3 SWAP2 POP POP JUMP JUMPDEST PUSH2 0x3A49 DUP2 PUSH2 0x31A3 JUMP JUMPDEST DUP2 EQ PUSH2 0x3A53 JUMPI PUSH0 DUP1 REVERT JUMPDEST POP JUMP JUMPDEST PUSH0 DUP2 CALLDATALOAD SWAP1 POP PUSH2 0x3A64 DUP2 PUSH2 0x3A40 JUMP JUMPDEST SWAP3 SWAP2 POP POP JUMP JUMPDEST PUSH0 DUP1 PUSH1 0x40 DUP4 DUP6 SUB SLT ISZERO PUSH2 0x3A80 JUMPI PUSH2 0x3A7F PUSH2 0x3028 JUMP JUMPDEST JUMPDEST PUSH0 PUSH2 0x3A8D DUP6 DUP3 DUP7 ADD PUSH2 0x3076 JUMP JUMPDEST SWAP3 POP POP PUSH1 0x20 PUSH2 0x3A9E DUP6 DUP3 DUP7 ADD PUSH2 0x3A56 JUMP JUMPDEST SWAP2 POP POP SWAP3 POP SWAP3 SWAP1 POP JUMP JUMPDEST PUSH0 DUP2 MLOAD SWAP1 POP SWAP2 SWAP1 POP JUMP JUMPDEST PUSH0 DUP3 DUP3 MSTORE PUSH1 0x20 DUP3 ADD SWAP1 POP SWAP3 SWAP2 POP POP JUMP JUMPDEST PUSH0 DUP2 SWAP1 POP PUSH1 0x20 DUP3 ADD SWAP1 POP SWAP2 SWAP1 POP JUMP JUMPDEST PUSH1 0x40 DUP3 ADD PUSH0 DUP3 ADD MLOAD PUSH2 0x3AE5 PUSH0 DUP6 ADD DUP3 PUSH2 0x3862 JUMP JUMPDEST POP PUSH1 0x20 DUP3 ADD MLOAD PUSH2 0x3AF8 PUSH1 0x20 DUP6 ADD DUP3 PUSH2 0x3862 JUMP JUMPDEST POP POP POP POP JUMP JUMPDEST PUSH2 0x3B07 DUP2 PUSH2 0x304F JUMP JUMPDEST DUP3 MSTORE POP POP JUMP JUMPDEST PUSH1 0xA0 DUP3 ADD PUSH0 DUP3 ADD MLOAD PUSH2 0x3B21 PUSH0 DUP6 ADD DUP3 PUSH2 0x3AD1 JUMP JUMPDEST POP PUSH1 0x20 DUP3 ADD MLOAD PUSH2 0x3B34 PUSH1 0x40 DUP6 ADD DUP3 PUSH2 0x3AFE JUMP JUMPDEST POP PUSH1 0x40 DUP3 ADD MLOAD PUSH2 0x3B47 PUSH1 0x60 DUP6 ADD DUP3 PUSH2 0x3862 JUMP JUMPDEST POP PUSH1 0x60 DUP3 ADD MLOAD PUSH2 0x3B5A PUSH1 0x80 DUP6 ADD DUP3 PUSH2 0x3862 JUMP JUMPDEST POP POP POP POP JUMP JUMPDEST PUSH0 PUSH2 0x3B6B DUP4 DUP4 PUSH2 0x3B0D JUMP JUMPDEST PUSH1 0xA0 DUP4 ADD SWAP1 POP SWAP3 SWAP2 POP POP JUMP JUMPDEST PUSH0 PUSH1 0x20 DUP3 ADD SWAP1 POP SWAP2 SWAP1 POP JUMP JUMPDEST PUSH0 PUSH2 0x3B8D DUP3 PUSH2 0x3AA8 JUMP JUMPDEST PUSH2 0x3B97 DUP2 DUP6 PUSH2 0x3AB2 JUMP JUMPDEST SWAP4 POP PUSH2 0x3BA2 DUP4 PUSH2 0x3AC2 JUMP JUMPDEST DUP1 PUSH0 JUMPDEST DUP4 DUP2 LT ISZERO PUSH2 0x3BD2 JUMPI DUP2 MLOAD PUSH2 0x3BB9 DUP9 DUP3 PUSH2 0x3B60 JUMP JUMPDEST SWAP8 POP PUSH2 0x3BC4 DUP4 PUSH2 0x3B77 JUMP JUMPDEST SWAP3 POP POP PUSH1 0x1 DUP2 ADD SWAP1 POP PUSH2 0x3BA5 JUMP JUMPDEST POP DUP6 SWAP4 POP POP POP POP SWAP3 SWAP2 POP POP JUMP JUMPDEST PUSH0 PUSH1 0x20 DUP3 ADD SWAP1 POP DUP2 DUP2 SUB PUSH0 DUP4 ADD MSTORE PUSH2 0x3BF7 DUP2 DUP5 PUSH2 0x3B83 JUMP JUMPDEST SWAP1 POP SWAP3 SWAP2 POP POP JUMP JUMPDEST PUSH0 DUP1 PUSH0 PUSH1 0x60 DUP5 DUP7 SUB SLT ISZERO PUSH2 0x3C16 JUMPI PUSH2 0x3C15 PUSH2 0x3028 JUMP JUMPDEST JUMPDEST PUSH0 PUSH2 0x3C23 DUP7 DUP3 DUP8 ADD PUSH2 0x30A9 JUMP JUMPDEST SWAP4 POP POP PUSH1 0x20 PUSH2 0x3C34 DUP7 DUP3 DUP8 ADD PUSH2 0x30A9 JUMP JUMPDEST SWAP3 POP POP PUSH1 0x40 PUSH2 0x3C45 DUP7 DUP3 DUP8 ADD PUSH2 0x30A9 JUMP JUMPDEST SWAP2 POP POP SWAP3 POP SWAP3 POP SWAP3 JUMP JUMPDEST PUSH0 DUP1 PUSH1 0x40 DUP4 DUP6 SUB SLT ISZERO PUSH2 0x3C65 JUMPI PUSH2 0x3C64 PUSH2 0x3028 JUMP JUMPDEST JUMPDEST PUSH0 PUSH2 0x3C72 DUP6 DUP3 DUP7 ADD PUSH2 0x30A9 JUMP JUMPDEST SWAP3 POP POP PUSH1 0x20 PUSH2 0x3C83 DUP6 DUP3 DUP7 ADD PUSH2 0x3076 JUMP JUMPDEST SWAP2 POP POP SWAP3 POP SWAP3 SWAP1 POP JUMP JUMPDEST PUSH1 0xA0 DUP3 ADD PUSH0 DUP3 ADD MLOAD PUSH2 0x3CA1 PUSH0 DUP6 ADD DUP3 PUSH2 0x3AD1 JUMP JUMPDEST POP PUSH1 0x20 DUP3 ADD MLOAD PUSH2 0x3CB4 PUSH1 0x40 DUP6 ADD DUP3 PUSH2 0x3AFE JUMP JUMPDEST POP PUSH1 0x40 DUP3 ADD MLOAD PUSH2 0x3CC7 PUSH1 0x60 DUP6 ADD DUP3 PUSH2 0x3862 JUMP JUMPDEST POP PUSH1 0x60 DUP3 ADD MLOAD PUSH2 0x3CDA PUSH1 0x80 DUP6 ADD DUP3 PUSH2 0x3862 JUMP JUMPDEST POP POP POP POP JUMP JUMPDEST PUSH0 PUSH1 0xC0 DUP3 ADD SWAP1 POP PUSH2 0x3CF3 PUSH0 DUP4 ADD DUP6 PUSH2 0x3C8D JUMP JUMPDEST PUSH2 0x3D00 PUSH1 0xA0 DUP4 ADD DUP5 PUSH2 0x30FB JUMP JUMPDEST SWAP4 SWAP3 POP POP POP JUMP JUMPDEST PUSH0 DUP1 PUSH1 0x40 DUP4 DUP6 SUB SLT ISZERO PUSH2 0x3D1D JUMPI PUSH2 0x3D1C PUSH2 0x3028 JUMP JUMPDEST JUMPDEST PUSH0 PUSH2 0x3D2A DUP6 DUP3 DUP7 ADD PUSH2 0x3076 JUMP JUMPDEST SWAP3 POP POP PUSH1 0x20 PUSH2 0x3D3B DUP6 DUP3 DUP7 ADD PUSH2 0x3076 JUMP JUMPDEST SWAP2 POP POP SWAP3 POP SWAP3 SWAP1 POP JUMP JUMPDEST PUSH0 DUP1 PUSH0 DUP1 PUSH0 PUSH1 0xA0 DUP7 DUP9 SUB SLT ISZERO PUSH2 0x3D5E JUMPI PUSH2 0x3D5D PUSH2 0x3028 JUMP JUMPDEST JUMPDEST PUSH0 PUSH2 0x3D6B DUP9 DUP3 DUP10 ADD PUSH2 0x3076 JUMP JUMPDEST SWAP6 POP POP PUSH1 0x20 PUSH2 0x3D7C DUP9 DUP3 DUP10 ADD PUSH2 0x3076 JUMP JUMPDEST SWAP5 POP POP PUSH1 0x40 PUSH2 0x3D8D DUP9 DUP3 DUP10 ADD PUSH2 0x30A9 JUMP JUMPDEST SWAP4 POP POP PUSH1 0x60 PUSH2 0x3D9E DUP9 DUP3 DUP10 ADD PUSH2 0x30A9 JUMP JUMPDEST SWAP3 POP POP PUSH1 0x80 DUP7 ADD CALLDATALOAD PUSH8 0xFFFFFFFFFFFFFFFF DUP2 GT ISZERO PUSH2 0x3DBF JUMPI PUSH2 0x3DBE PUSH2 0x302C JUMP JUMPDEST JUMPDEST PUSH2 0x3DCB DUP9 DUP3 DUP10 ADD PUSH2 0x3553 JUMP JUMPDEST SWAP2 POP POP SWAP3 SWAP6 POP SWAP3 SWAP6 SWAP1 SWAP4 POP JUMP JUMPDEST PUSH0 PUSH1 0x20 DUP3 DUP5 SUB SLT ISZERO PUSH2 0x3DED JUMPI PUSH2 0x3DEC PUSH2 0x3028 JUMP JUMPDEST JUMPDEST PUSH0 PUSH2 0x3DFA DUP5 DUP3 DUP6 ADD PUSH2 0x3076 JUMP JUMPDEST SWAP2 POP POP SWAP3 SWAP2 POP POP JUMP JUMPDEST PUSH0 PUSH2 0x3E0D DUP3 PUSH2 0x3030 JUMP JUMPDEST SWAP1 POP SWAP2 SWAP1 POP JUMP JUMPDEST PUSH2 0x3E1D DUP2 PUSH2 0x3E03 JUMP JUMPDEST DUP2 EQ PUSH2 0x3E27 JUMPI PUSH0 DUP1 REVERT JUMPDEST POP JUMP JUMPDEST PUSH0 DUP2 CALLDATALOAD SWAP1 POP PUSH2 0x3E38 DUP2 PUSH2 0x3E14 JUMP JUMPDEST SWAP3 SWAP2 POP POP JUMP JUMPDEST PUSH0 DUP1 PUSH0 PUSH1 0x60 DUP5 DUP7 SUB SLT ISZERO PUSH2 0x3E55 JUMPI PUSH2 0x3E54 PUSH2 0x3028 JUMP JUMPDEST JUMPDEST PUSH0 PUSH2 0x3E62 DUP7 DUP3 DUP8 ADD PUSH2 0x30A9 JUMP JUMPDEST SWAP4 POP POP PUSH1 0x20 PUSH2 0x3E73 DUP7 DUP3 DUP8 ADD PUSH2 0x3E2A JUMP JUMPDEST SWAP3 POP POP PUSH1 0x40 PUSH2 0x3E84 DUP7 DUP3 DUP8 ADD PUSH2 0x30A9 JUMP JUMPDEST SWAP2 POP POP SWAP3 POP SWAP3 POP SWAP3 JUMP JUMPDEST PUSH0 DUP1 PUSH0 PUSH1 0x60 DUP5 DUP7 SUB SLT ISZERO PUSH2 0x3EA5 JUMPI PUSH2 0x3EA4 PUSH2 0x3028 JUMP JUMPDEST JUMPDEST PUSH0 PUSH2 0x3EB2 DUP7 DUP3 DUP8 ADD PUSH2 0x3076 JUMP JUMPDEST SWAP4 POP POP PUSH1 0x20 PUSH2 0x3EC3 DUP7 DUP3 DUP8 ADD PUSH2 0x30A9 JUMP JUMPDEST SWAP3 POP POP PUSH1 0x40 PUSH2 0x3ED4 DUP7 DUP3 DUP8 ADD PUSH2 0x30A9 JUMP JUMPDEST SWAP2 POP POP SWAP3 POP SWAP3 POP SWAP3 JUMP JUMPDEST PUSH32 0x4E487B7100000000000000000000000000000000000000000000000000000000 PUSH0 MSTORE PUSH1 0x22 PUSH1 0x4 MSTORE PUSH1 0x24 PUSH0 REVERT JUMPDEST PUSH0 PUSH1 0x2 DUP3 DIV SWAP1 POP PUSH1 0x1 DUP3 AND DUP1 PUSH2 0x3F22 JUMPI PUSH1 0x7F DUP3 AND SWAP2 POP JUMPDEST PUSH1 0x20 DUP3 LT DUP2 SUB PUSH2 0x3F35 JUMPI PUSH2 0x3F34 PUSH2 0x3EDE JUMP JUMPDEST JUMPDEST POP SWAP2 SWAP1 POP JUMP JUMPDEST PUSH32 0x4E487B7100000000000000000000000000000000000000000000000000000000 PUSH0 MSTORE PUSH1 0x11 PUSH1 0x4 MSTORE PUSH1 0x24 PUSH0 REVERT JUMPDEST PUSH0 PUSH2 0x3F72 DUP3 PUSH2 0x308A JUMP JUMPDEST SWAP2 POP PUSH32 0xFFFFFFFFFFFFFFFFFFFFFFFFFFFFFFFFFFFFFFFFFFFFFFFFFFFFFFFFFFFFFFFF DUP3 SUB PUSH2 0x3FA4 JUMPI PUSH2 0x3FA3 PUSH2 0x3F3B JUMP JUMPDEST JUMPDEST PUSH1 0x1 DUP3 ADD SWAP1 POP SWAP2 SWAP1 POP JUMP JUMPDEST PUSH0 PUSH1 0x40 DUP3 ADD SWAP1 POP PUSH2 0x3FC2 PUSH0 DUP4 ADD DUP6 PUSH2 0x3A18 JUMP JUMPDEST PUSH2 0x3FCF PUSH1 0x20 DUP4 ADD DUP5 PUSH2 0x3A18 JUMP JUMPDEST SWAP4 SWAP3 POP POP POP JUMP JUMPDEST PUSH0 PUSH1 0x40 DUP3 ADD SWAP1 POP PUSH2 0x3FE9 PUSH0 DUP4 ADD DUP6 PUSH2 0x30FB JUMP JUMPDEST PUSH2 0x3FF6 PUSH1 0x20 DUP4 ADD DUP5 PUSH2 0x30FB JUMP JUMPDEST SWAP4 SWAP3 POP POP POP JUMP JUMPDEST PUSH32 0x4E487B7100000000000000000000000000000000000000000000000000000000 PUSH0 MSTORE PUSH1 0x32 PUSH1 0x4 MSTORE PUSH1 0x24 PUSH0 REVERT JUMPDEST PUSH32 0x4163636F756E7420646F6573206E6F74206861766520656E6F75676820746F6B PUSH0 DUP3 ADD MSTORE PUSH32 0x656E7320746F2073656C6C000000000000000000000000000000000000000000 PUSH1 0x20 DUP3 ADD MSTORE POP JUMP JUMPDEST PUSH0 PUSH2 0x4084 PUSH1 0x2B DUP4 PUSH2 0x338E JUMP JUMPDEST SWAP2 POP PUSH2 0x408F DUP3 PUSH2 0x402A JUMP JUMPDEST PUSH1 0x40 DUP3 ADD SWAP1 POP SWAP2 SWAP1 POP JUMP JUMPDEST PUSH0 PUSH1 0x20 DUP3 ADD SWAP1 POP DUP2 DUP2 SUB PUSH0 DUP4 ADD MSTORE PUSH2 0x40B1 DUP2 PUSH2 0x4078 JUMP JUMPDEST SWAP1 POP SWAP2 SWAP1 POP JUMP JUMPDEST PUSH0 PUSH1 0x40 DUP3 ADD SWAP1 POP PUSH2 0x40CB PUSH0 DUP4 ADD DUP6 PUSH2 0x30FB JUMP JUMPDEST PUSH2 0x40D8 PUSH1 0x20 DUP4 ADD DUP5 PUSH2 0x3A18 JUMP JUMPDEST SWAP4 SWAP3 POP POP POP JUMP JUMPDEST PUSH32 0x4163636F756E7420646F6573206E6F7420686176652074686520726571756972 PUSH0 DUP3 ADD MSTORE PUSH32 0x656420616D6F756E74206F6620746F6B656E7300000000000000000000000000 PUSH1 0x20 DUP3 ADD MSTORE POP JUMP JUMPDEST PUSH0 PUSH2 0x4139 PUSH1 0x33 DUP4 PUSH2 0x338E JUMP JUMPDEST SWAP2 POP PUSH2 0x4144 DUP3 PUSH2 0x40DF JUMP JUMPDEST PUSH1 0x40 DUP3 ADD SWAP1 POP SWAP2 SWAP1 POP JUMP JUMPDEST PUSH0 PUSH1 0x20 DUP3 ADD SWAP1 POP DUP2 DUP2 SUB PUSH0 DUP4 ADD MSTORE PUSH2 0x4166 DUP2 PUSH2 0x412D JUMP JUMPDEST SWAP1 POP SWAP2 SWAP1 POP JUMP JUMPDEST PUSH32 0x43616E6E6F7420627579206F776E20746F6B656E730000000000000000000000 PUSH0 DUP3 ADD MSTORE POP JUMP JUMPDEST PUSH0 PUSH2 0x41A1 PUSH1 0x15 DUP4 PUSH2 0x338E JUMP JUMPDEST SWAP2 POP PUSH2 0x41AC DUP3 PUSH2 0x416D JUMP JUMPDEST PUSH1 0x20 DUP3 ADD SWAP1 POP SWAP2 SWAP1 POP JUMP JUMPDEST PUSH0 PUSH1 0x20 DUP3 ADD SWAP1 POP DUP2 DUP2 SUB PUSH0 DUP4 ADD MSTORE PUSH2 0x41CE DUP2 PUSH2 0x4195 JUMP JUMPDEST SWAP1 POP SWAP2 SWAP1 POP JUMP JUMPDEST PUSH32 0x4163636F756E7420646F6573206E6F742073656C6C2074686174206D75636820 PUSH0 DUP3 ADD MSTORE PUSH32 0x746F6B656E2E0000000000000000000000000000000000000000000000000000 PUSH1 0x20 DUP3 ADD MSTORE POP JUMP JUMPDEST PUSH0 PUSH2 0x422F PUSH1 0x26 DUP4 PUSH2 0x338E JUMP JUMPDEST SWAP2 POP PUSH2 0x423A DUP3 PUSH2 0x41D5 JUMP JUMPDEST PUSH1 0x40 DUP3 ADD SWAP1 POP SWAP2 SWAP1 POP JUMP JUMPDEST PUSH0 PUSH1 0x20 DUP3 ADD SWAP1 POP DUP2 DUP2 SUB PUSH0 DUP4 ADD MSTORE PUSH2 0x425C DUP2 PUSH2 0x4223 JUMP JUMPDEST SWAP1 POP SWAP2 SWAP1 POP JUMP JUMPDEST PUSH0 PUSH2 0x426D DUP3 PUSH2 0x308A JUMP JUMPDEST SWAP2 POP PUSH2 0x4278 DUP4 PUSH2 0x308A JUMP JUMPDEST SWAP3 POP DUP3 DUP3 MUL PUSH2 0x4286 DUP2 PUSH2 0x308A JUMP JUMPDEST SWAP2 POP DUP3 DUP3 DIV DUP5 EQ DUP4 ISZERO OR PUSH2 0x429D JUMPI PUSH2 0x429C PUSH2 0x3F3B JUMP JUMPDEST JUMPDEST POP SWAP3 SWAP2 POP POP JUMP JUMPDEST PUSH32 0x507269636520616E642065746865722073656E7420646F6573206E6F74206D61 PUSH0 DUP3 ADD MSTORE PUSH32 0x7463682E00000000000000000000000000000000000000000000000000000000 PUSH1 0x20 DUP3 ADD MSTORE POP JUMP JUMPDEST PUSH0 PUSH2 0x42FE PUSH1 0x24 DUP4 PUSH2 0x338E JUMP JUMPDEST SWAP2 POP PUSH2 0x4309 DUP3 PUSH2 0x42A4 JUMP JUMPDEST PUSH1 0x40 DUP3 ADD SWAP1 POP SWAP2 SWAP1 POP JUMP JUMPDEST PUSH0 PUSH1 0x20 DUP3 ADD SWAP1 POP DUP2 DUP2 SUB PUSH0 DUP4 ADD MSTORE PUSH2 0x432B DUP2 PUSH2 0x42F2 JUMP JUMPDEST SWAP1 POP SWAP2 SWAP1 POP JUMP JUMPDEST PUSH0 DUP2 SWAP1 POP SWAP3 SWAP2 POP POP JUMP JUMPDEST POP JUMP JUMPDEST PUSH0 PUSH2 0x434A PUSH0 DUP4 PUSH2 0x4332 JUMP JUMPDEST SWAP2 POP PUSH2 0x4355 DUP3 PUSH2 0x433C JUMP JUMPDEST PUSH0 DUP3 ADD SWAP1 POP SWAP2 SWAP1 POP JUMP JUMPDEST PUSH0 PUSH2 0x4369 DUP3 PUSH2 0x433F JUMP JUMPDEST SWAP2 POP DUP2 SWAP1 POP SWAP2 SWAP1 POP JUMP JUMPDEST PUSH32 0x4661696C656420746F2073656E64206574686572000000000000000000000000 PUSH0 DUP3 ADD MSTORE POP JUMP JUMPDEST PUSH0 PUSH2 0x43A7 PUSH1 0x14 DUP4 PUSH2 0x338E JUMP JUMPDEST SWAP2 POP PUSH2 0x43B2 DUP3 PUSH2 0x4373 JUMP JUMPDEST PUSH1 0x20 DUP3 ADD SWAP1 POP SWAP2 SWAP1 POP JUMP JUMPDEST PUSH0 PUSH1 0x20 DUP3 ADD SWAP1 POP DUP2 DUP2 SUB PUSH0 DUP4 ADD MSTORE PUSH2 0x43D4 DUP2 PUSH2 0x439B JUMP JUMPDEST SWAP1 POP SWAP2 SWAP1 POP JUMP JUMPDEST PUSH0 PUSH2 0x43E5 DUP3 PUSH2 0x308A JUMP JUMPDEST SWAP2 POP PUSH2 0x43F0 DUP4 PUSH2 0x308A JUMP JUMPDEST SWAP3 POP DUP3 DUP3 SUB SWAP1 POP DUP2 DUP2 GT ISZERO PUSH2 0x4408 JUMPI PUSH2 0x4407 PUSH2 0x3F3B JUMP JUMPDEST JUMPDEST SWAP3 SWAP2 POP POP JUMP JUMPDEST PUSH0 DUP2 SWAP1 POP DUP2 PUSH0 MSTORE PUSH1 0x20 PUSH0 KECCAK256 SWAP1 POP SWAP2 SWAP1 POP JUMP JUMPDEST PUSH0 PUSH1 0x20 PUSH1 0x1F DUP4 ADD DIV SWAP1 POP SWAP2 SWAP1 POP JUMP JUMPDEST PUSH0 DUP3 DUP3 SHL SWAP1 POP SWAP3 SWAP2 POP POP JUMP JUMPDEST PUSH0 PUSH1 0x8 DUP4 MUL PUSH2 0x446A PUSH32 0xFFFFFFFFFFFFFFFFFFFFFFFFFFFFFFFFFFFFFFFFFFFFFFFFFFFFFFFFFFFFFFFF DUP3 PUSH2 0x442F JUMP JUMPDEST PUSH2 0x4474 DUP7 DUP4 PUSH2 0x442F JUMP JUMPDEST SWAP6 POP DUP1 NOT DUP5 AND SWAP4 POP DUP1 DUP7 AND DUP5 OR SWAP3 POP POP POP SWAP4 SWAP3 POP POP POP JUMP JUMPDEST PUSH0 DUP2 SWAP1 POP SWAP2 SWAP1 POP JUMP JUMPDEST PUSH0 PUSH2 0x44AF PUSH2 0x44AA PUSH2 0x44A5 DUP5 PUSH2 0x308A JUMP JUMPDEST PUSH2 0x448C JUMP JUMPDEST PUSH2 0x308A JUMP JUMPDEST SWAP1 POP SWAP2 SWAP1 POP JUMP JUMPDEST PUSH0 DUP2 SWAP1 POP SWAP2 SWAP1 POP JUMP JUMPDEST PUSH2 0x44C8 DUP4 PUSH2 0x4495 JUMP JUMPDEST PUSH2 0x44DC PUSH2 0x44D4 DUP3 PUSH2 0x44B6 JUMP JUMPDEST DUP5 DUP5 SLOAD PUSH2 0x443B JUMP JUMPDEST DUP3 SSTORE POP POP POP POP JUMP JUMPDEST PUSH0 SWAP1 JUMP JUMPDEST PUSH2 0x44F0 PUSH2 0x44E4 JUMP JUMPDEST PUSH2 0x44FB DUP2 DUP5 DUP5 PUSH2 0x44BF JUMP JUMPDEST POP POP POP JUMP JUMPDEST JUMPDEST DUP2 DUP2 LT ISZERO PUSH2 0x451E JUMPI PUSH2 0x4513 PUSH0 DUP3 PUSH2 0x44E8 JUMP JUMPDEST PUSH1 0x1 DUP2 ADD SWAP1 POP PUSH2 0x4501 JUMP JUMPDEST POP POP JUMP JUMPDEST PUSH1 0x1F DUP3 GT ISZERO PUSH2 0x4563 JUMPI PUSH2 0x4534 DUP2 PUSH2 0x440E JUMP JUMPDEST PUSH2 0x453D DUP5 PUSH2 0x4420 JUMP JUMPDEST DUP2 ADD PUSH1 0x20 DUP6 LT ISZERO PUSH2 0x454C JUMPI DUP2 SWAP1 POP JUMPDEST PUSH2 0x4560 PUSH2 0x4558 DUP6 PUSH2 0x4420 JUMP JUMPDEST DUP4 ADD DUP3 PUSH2 0x4500 JUMP JUMPDEST POP POP JUMPDEST POP POP POP JUMP JUMPDEST PUSH0 DUP3 DUP3 SHR SWAP1 POP SWAP3 SWAP2 POP POP JUMP JUMPDEST PUSH0 PUSH2 0x4583 PUSH0 NOT DUP5 PUSH1 0x8 MUL PUSH2 0x4568 JUMP JUMPDEST NOT DUP1 DUP4 AND SWAP2 POP POP SWAP3 SWAP2 POP POP JUMP JUMPDEST PUSH0 PUSH2 0x459B DUP4 DUP4 PUSH2 0x4574 JUMP JUMPDEST SWAP2 POP DUP3 PUSH1 0x2 MUL DUP3 OR SWAP1 POP SWAP3 SWAP2 POP POP JUMP JUMPDEST PUSH2 0x45B4 DUP3 PUSH2 0x3384 JUMP JUMPDEST PUSH8 0xFFFFFFFFFFFFFFFF DUP2 GT ISZERO PUSH2 0x45CD JUMPI PUSH2 0x45CC PUSH2 0x31EE JUMP JUMPDEST JUMPDEST PUSH2 0x45D7 DUP3 SLOAD PUSH2 0x3F0B JUMP JUMPDEST PUSH2 0x45E2 DUP3 DUP3 DUP6 PUSH2 0x4522 JUMP JUMPDEST PUSH0 PUSH1 0x20 SWAP1 POP PUSH1 0x1F DUP4 GT PUSH1 0x1 DUP2 EQ PUSH2 0x4613 JUMPI PUSH0 DUP5 ISZERO PUSH2 0x4601 JUMPI DUP3 DUP8 ADD MLOAD SWAP1 POP JUMPDEST PUSH2 0x460B DUP6 DUP3 PUSH2 0x4590 JUMP JUMPDEST DUP7 SSTORE POP PUSH2 0x4672 JUMP JUMPDEST PUSH1 0x1F NOT DUP5 AND PUSH2 0x4621 DUP7 PUSH2 0x440E JUMP JUMPDEST PUSH0 JUMPDEST DUP3 DUP2 LT ISZERO PUSH2 0x4648 JUMPI DUP5 DUP10 ADD MLOAD DUP3 SSTORE PUSH1 0x1 DUP3 ADD SWAP2 POP PUSH1 0x20 DUP6 ADD SWAP5 POP PUSH1 0x20 DUP2 ADD SWAP1 POP PUSH2 0x4623 JUMP JUMPDEST DUP7 DUP4 LT ISZERO PUSH2 0x4665 JUMPI DUP5 DUP10 ADD MLOAD PUSH2 0x4661 PUSH1 0x1F DUP10 AND DUP3 PUSH2 0x4574 JUMP JUMPDEST DUP4 SSTORE POP JUMPDEST PUSH1 0x1 PUSH1 0x2 DUP9 MUL ADD DUP9 SSTORE POP POP POP JUMPDEST POP POP POP POP POP POP JUMP JUMPDEST PUSH0 PUSH1 0x40 DUP3 ADD SWAP1 POP DUP2 DUP2 SUB PUSH0 DUP4 ADD MSTORE PUSH2 0x4692 DUP2 DUP6 PUSH2 0x33C6 JUMP JUMPDEST SWAP1 POP PUSH2 0x46A1 PUSH1 0x20 DUP4 ADD DUP5 PUSH2 0x30FB JUMP JUMPDEST SWAP4 SWAP3 POP POP POP JUMP JUMPDEST PUSH32 0x4E487B7100000000000000000000000000000000000000000000000000000000 PUSH0 MSTORE PUSH1 0x31 PUSH1 0x4 MSTORE PUSH1 0x24 PUSH0 REVERT JUMPDEST PUSH0 DUP2 MLOAD SWAP1 POP SWAP2 SWAP1 POP JUMP JUMPDEST PUSH0 DUP3 DUP3 MSTORE PUSH1 0x20 DUP3 ADD SWAP1 POP SWAP3 SWAP2 POP POP JUMP JUMPDEST PUSH0 PUSH2 0x46F9 DUP3 PUSH2 0x46D5 JUMP JUMPDEST PUSH2 0x4703 DUP2 DUP6 PUSH2 0x46DF JUMP JUMPDEST SWAP4 POP PUSH2 0x4713 DUP2 DUP6 PUSH1 0x20 DUP7 ADD PUSH2 0x339E JUMP JUMPDEST PUSH2 0x471C DUP2 PUSH2 0x31DE JUMP JUMPDEST DUP5 ADD SWAP2 POP POP SWAP3 SWAP2 POP POP JUMP JUMPDEST PUSH0 PUSH1 0xA0 DUP3 ADD SWAP1 POP PUSH2 0x473A PUSH0 DUP4 ADD DUP9 PUSH2 0x3A18 JUMP JUMPDEST PUSH2 0x4747 PUSH1 0x20 DUP4 ADD DUP8 PUSH2 0x3A18 JUMP JUMPDEST PUSH2 0x4754 PUSH1 0x40 DUP4 ADD DUP7 PUSH2 0x30FB JUMP JUMPDEST PUSH2 0x4761 PUSH1 0x60 DUP4 ADD DUP6 PUSH2 0x30FB JUMP JUMPDEST DUP2 DUP2 SUB PUSH1 0x80 DUP4 ADD MSTORE PUSH2 0x4773 DUP2 DUP5 PUSH2 0x46EF JUMP JUMPDEST SWAP1 POP SWAP7 SWAP6 POP POP POP POP POP POP JUMP JUMPDEST PUSH0 DUP2 MLOAD SWAP1 POP PUSH2 0x478D DUP2 PUSH2 0x314E JUMP JUMPDEST SWAP3 SWAP2 POP POP JUMP JUMPDEST PUSH0 PUSH1 0x20 DUP3 DUP5 SUB SLT ISZERO PUSH2 0x47A8 JUMPI PUSH2 0x47A7 PUSH2 0x3028 JUMP JUMPDEST JUMPDEST PUSH0 PUSH2 0x47B5 DUP5 DUP3 DUP6 ADD PUSH2 0x477F JUMP JUMPDEST SWAP2 POP POP SWAP3 SWAP2 POP POP JUMP JUMPDEST PUSH0 PUSH1 0xA0 DUP3 ADD SWAP1 POP PUSH2 0x47D1 PUSH0 DUP4 ADD DUP9 PUSH2 0x3A18 JUMP JUMPDEST PUSH2 0x47DE PUSH1 0x20 DUP4 ADD DUP8 PUSH2 0x3A18 JUMP JUMPDEST DUP2 DUP2 SUB PUSH1 0x40 DUP4 ADD MSTORE PUSH2 0x47F0 DUP2 DUP7 PUSH2 0x3894 JUMP JUMPDEST SWAP1 POP DUP2 DUP2 SUB PUSH1 0x60 DUP4 ADD MSTORE PUSH2 0x4804 DUP2 DUP6 PUSH2 0x3894 JUMP JUMPDEST SWAP1 POP DUP2 DUP2 SUB PUSH1 0x80 DUP4 ADD MSTORE PUSH2 0x4818 DUP2 DUP5 PUSH2 0x46EF JUMP JUMPDEST SWAP1 POP SWAP7 SWAP6 POP POP POP POP POP POP JUMP JUMPDEST PUSH0 PUSH1 0x80 DUP3 ADD SWAP1 POP PUSH2 0x4837 PUSH0 DUP4 ADD DUP8 PUSH2 0x3A18 JUMP JUMPDEST PUSH2 0x4844 PUSH1 0x20 DUP4 ADD DUP7 PUSH2 0x30FB JUMP JUMPDEST PUSH2 0x4851 PUSH1 0x40 DUP4 ADD DUP6 PUSH2 0x30FB JUMP JUMPDEST PUSH2 0x485E PUSH1 0x60 DUP4 ADD DUP5 PUSH2 0x30FB JUMP JUMPDEST SWAP6 SWAP5 POP POP POP POP POP JUMP JUMPDEST PUSH0 PUSH2 0x4871 DUP3 PUSH2 0x308A JUMP JUMPDEST SWAP2 POP PUSH2 0x487C DUP4 PUSH2 0x308A JUMP JUMPDEST SWAP3 POP DUP3 DUP3 ADD SWAP1 POP DUP1 DUP3 GT ISZERO PUSH2 0x4894 JUMPI PUSH2 0x4893 PUSH2 0x3F3B JUMP JUMPDEST JUMPDEST SWAP3 SWAP2 POP POP JUMP JUMPDEST PUSH0 PUSH1 0x40 DUP3 ADD SWAP1 POP DUP2 DUP2 SUB PUSH0 DUP4 ADD MSTORE PUSH2 0x48B2 DUP2 DUP6 PUSH2 0x3894 JUMP JUMPDEST SWAP1 POP DUP2 DUP2 SUB PUSH1 0x20 DUP4 ADD MSTORE PUSH2 0x48C6 DUP2 DUP5 PUSH2 0x3894 JUMP JUMPDEST SWAP1 POP SWAP4 SWAP3 POP POP POP JUMP JUMPDEST PUSH32 0x4E487B7100000000000000000000000000000000000000000000000000000000 PUSH0 MSTORE PUSH1 0x51 PUSH1 0x4 MSTORE PUSH1 0x24 PUSH0 REVERT INVALID LOG2 PUSH5 0x6970667358 0x22 SLT KECCAK256 PUSH3 0x432805 MSTORE SGT SLT ISZERO PUSH27 0x2DD5F7BD43FF9BF92243380AE8BB5F688F94AECB0EB81E64736F6C PUSH4 0x43000816 STOP CALLER PUSH9 0x7474703A2F2F6C6F63 PUSH2 0x6C68 PUSH16 0x73743A333030302F6170692F7265616C GASLIMIT PUSH20 0x746174652F7B69647D0000000000000000000000 "
		},
		"gasEstimates": {
			"creation": {
				"codeDepositCost": "3747600",
				"executionCost": "infinite",
				"totalCost": "infinite"
			},
			"external": {
				"balanceOf(address,uint256)": "infinite",
				"balanceOfBatch(address[],uint256[])": "infinite",
				"burn(address,uint256,uint256)": "infinite",
				"burnBatch(address,uint256[],uint256[])": "infinite",
				"buyToken(uint256,address,uint256)": "infinite",
				"createToken(uint256)": "infinite",
				"getAllTokensOnSale()": "infinite",
				"getCurrentTokenId()": "2521",
				"getTokenOnSaleByIdAndAddress(uint256,address)": "infinite",
				"isApprovedForAll(address,address)": "infinite",
				"mint(address,uint256,uint256,bytes)": "infinite",
				"mintBatch(address,uint256[],uint256[],bytes)": "infinite",
				"owner()": "2604",
				"pause()": "infinite",
				"paused()": "2635",
				"putTokenUpToSale(uint256,uint256,uint256)": "infinite",
				"renounceOwnership()": "infinite",
				"safeBatchTransferFrom(address,address,uint256[],uint256[],bytes)": "infinite",
				"safeTransferFrom(address,address,uint256,uint256,bytes)": "infinite",
				"setApprovalForAll(address,bool)": "infinite",
				"setURI(string)": "infinite",
				"supportsInterface(bytes4)": "809",
				"transferOwnership(address)": "infinite",
				"unpause()": "infinite",
				"uri(uint256)": "infinite"
			},
			"internal": {
				"_update(address,address,uint256[] memory,uint256[] memory)": "infinite",
				"deleteTokenOnSaleByIdAndAddress(uint256,address)": "infinite",
				"deleteTokenOwnership(uint256,address)": "infinite"
			}
		},
		"methodIdentifiers": {
			"balanceOf(address,uint256)": "00fdd58e",
			"balanceOfBatch(address[],uint256[])": "4e1273f4",
			"burn(address,uint256,uint256)": "f5298aca",
			"burnBatch(address,uint256[],uint256[])": "6b20c454",
			"buyToken(uint256,address,uint256)": "f3e62640",
			"createToken(uint256)": "2d571cc4",
			"getAllTokensOnSale()": "ae6b016c",
			"getCurrentTokenId()": "56189236",
			"getTokenOnSaleByIdAndAddress(uint256,address)": "c8e34b27",
			"isApprovedForAll(address,address)": "e985e9c5",
			"mint(address,uint256,uint256,bytes)": "731133e9",
			"mintBatch(address,uint256[],uint256[],bytes)": "1f7fdffa",
			"owner()": "8da5cb5b",
			"pause()": "8456cb59",
			"paused()": "5c975abb",
			"putTokenUpToSale(uint256,uint256,uint256)": "c3c8d92d",
			"renounceOwnership()": "715018a6",
			"safeBatchTransferFrom(address,address,uint256[],uint256[],bytes)": "2eb2c2d6",
			"safeTransferFrom(address,address,uint256,uint256,bytes)": "f242432a",
			"setApprovalForAll(address,bool)": "a22cb465",
			"setURI(string)": "02fe5305",
			"supportsInterface(bytes4)": "01ffc9a7",
			"transferOwnership(address)": "f2fde38b",
			"unpause()": "3f4ba83a",
			"uri(uint256)": "0e89341c"
		}
	},
	"abi": [
		{
			"inputs": [
				{
					"internalType": "address",
					"name": "initialOwner",
					"type": "address"
				}
			],
			"stateMutability": "nonpayable",
			"type": "constructor"
		},
		{
			"inputs": [
				{
					"internalType": "address",
					"name": "sender",
					"type": "address"
				},
				{
					"internalType": "uint256",
					"name": "balance",
					"type": "uint256"
				},
				{
					"internalType": "uint256",
					"name": "needed",
					"type": "uint256"
				},
				{
					"internalType": "uint256",
					"name": "tokenId",
					"type": "uint256"
				}
			],
			"name": "ERC1155InsufficientBalance",
			"type": "error"
		},
		{
			"inputs": [
				{
					"internalType": "address",
					"name": "approver",
					"type": "address"
				}
			],
			"name": "ERC1155InvalidApprover",
			"type": "error"
		},
		{
			"inputs": [
				{
					"internalType": "uint256",
					"name": "idsLength",
					"type": "uint256"
				},
				{
					"internalType": "uint256",
					"name": "valuesLength",
					"type": "uint256"
				}
			],
			"name": "ERC1155InvalidArrayLength",
			"type": "error"
		},
		{
			"inputs": [
				{
					"internalType": "address",
					"name": "operator",
					"type": "address"
				}
			],
			"name": "ERC1155InvalidOperator",
			"type": "error"
		},
		{
			"inputs": [
				{
					"internalType": "address",
					"name": "receiver",
					"type": "address"
				}
			],
			"name": "ERC1155InvalidReceiver",
			"type": "error"
		},
		{
			"inputs": [
				{
					"internalType": "address",
					"name": "sender",
					"type": "address"
				}
			],
			"name": "ERC1155InvalidSender",
			"type": "error"
		},
		{
			"inputs": [
				{
					"internalType": "address",
					"name": "operator",
					"type": "address"
				},
				{
					"internalType": "address",
					"name": "owner",
					"type": "address"
				}
			],
			"name": "ERC1155MissingApprovalForAll",
			"type": "error"
		},
		{
			"inputs": [],
			"name": "EnforcedPause",
			"type": "error"
		},
		{
			"inputs": [],
			"name": "ExpectedPause",
			"type": "error"
		},
		{
			"inputs": [
				{
					"internalType": "uint256",
					"name": "tokenId",
					"type": "uint256"
				},
				{
					"internalType": "address",
					"name": "owner",
					"type": "address"
				}
			],
			"name": "ItemNotFound",
			"type": "error"
		},
		{
			"inputs": [
				{
					"internalType": "address",
					"name": "owner",
					"type": "address"
				}
			],
			"name": "OwnableInvalidOwner",
			"type": "error"
		},
		{
			"inputs": [
				{
					"internalType": "address",
					"name": "account",
					"type": "address"
				}
			],
			"name": "OwnableUnauthorizedAccount",
			"type": "error"
		},
		{
			"anonymous": false,
			"inputs": [
				{
					"indexed": true,
					"internalType": "address",
					"name": "account",
					"type": "address"
				},
				{
					"indexed": true,
					"internalType": "address",
					"name": "operator",
					"type": "address"
				},
				{
					"indexed": false,
					"internalType": "bool",
					"name": "approved",
					"type": "bool"
				}
			],
			"name": "ApprovalForAll",
			"type": "event"
		},
		{
			"anonymous": false,
			"inputs": [
				{
					"indexed": true,
					"internalType": "address",
					"name": "previousOwner",
					"type": "address"
				},
				{
					"indexed": true,
					"internalType": "address",
					"name": "newOwner",
					"type": "address"
				}
			],
			"name": "OwnershipTransferred",
			"type": "event"
		},
		{
			"anonymous": false,
			"inputs": [
				{
					"indexed": false,
					"internalType": "address",
					"name": "account",
					"type": "address"
				}
			],
			"name": "Paused",
			"type": "event"
		},
		{
			"anonymous": false,
			"inputs": [
				{
					"indexed": true,
					"internalType": "uint256",
					"name": "tokenId",
					"type": "uint256"
				}
			],
			"name": "TokenCreated",
			"type": "event"
		},
		{
			"anonymous": false,
			"inputs": [
				{
					"indexed": true,
					"internalType": "address",
					"name": "operator",
					"type": "address"
				},
				{
					"indexed": true,
					"internalType": "address",
					"name": "from",
					"type": "address"
				},
				{
					"indexed": true,
					"internalType": "address",
					"name": "to",
					"type": "address"
				},
				{
					"indexed": false,
					"internalType": "uint256[]",
					"name": "ids",
					"type": "uint256[]"
				},
				{
					"indexed": false,
					"internalType": "uint256[]",
					"name": "values",
					"type": "uint256[]"
				}
			],
			"name": "TransferBatch",
			"type": "event"
		},
		{
			"anonymous": false,
			"inputs": [
				{
					"indexed": true,
					"internalType": "address",
					"name": "operator",
					"type": "address"
				},
				{
					"indexed": true,
					"internalType": "address",
					"name": "from",
					"type": "address"
				},
				{
					"indexed": true,
					"internalType": "address",
					"name": "to",
					"type": "address"
				},
				{
					"indexed": false,
					"internalType": "uint256",
					"name": "id",
					"type": "uint256"
				},
				{
					"indexed": false,
					"internalType": "uint256",
					"name": "value",
					"type": "uint256"
				}
			],
			"name": "TransferSingle",
			"type": "event"
		},
		{
			"anonymous": false,
			"inputs": [
				{
					"indexed": false,
					"internalType": "string",
					"name": "value",
					"type": "string"
				},
				{
					"indexed": true,
					"internalType": "uint256",
					"name": "id",
					"type": "uint256"
				}
			],
			"name": "URI",
			"type": "event"
		},
		{
			"anonymous": false,
			"inputs": [
				{
					"indexed": false,
					"internalType": "address",
					"name": "account",
					"type": "address"
				}
			],
			"name": "Unpaused",
			"type": "event"
		},
		{
			"inputs": [
				{
					"internalType": "address",
					"name": "account",
					"type": "address"
				},
				{
					"internalType": "uint256",
					"name": "id",
					"type": "uint256"
				}
			],
			"name": "balanceOf",
			"outputs": [
				{
					"internalType": "uint256",
					"name": "",
					"type": "uint256"
				}
			],
			"stateMutability": "view",
			"type": "function"
		},
		{
			"inputs": [
				{
					"internalType": "address[]",
					"name": "accounts",
					"type": "address[]"
				},
				{
					"internalType": "uint256[]",
					"name": "ids",
					"type": "uint256[]"
				}
			],
			"name": "balanceOfBatch",
			"outputs": [
				{
					"internalType": "uint256[]",
					"name": "",
					"type": "uint256[]"
				}
			],
			"stateMutability": "view",
			"type": "function"
		},
		{
			"inputs": [
				{
					"internalType": "address",
					"name": "account",
					"type": "address"
				},
				{
					"internalType": "uint256",
					"name": "id",
					"type": "uint256"
				},
				{
					"internalType": "uint256",
					"name": "value",
					"type": "uint256"
				}
			],
			"name": "burn",
			"outputs": [],
			"stateMutability": "nonpayable",
			"type": "function"
		},
		{
			"inputs": [
				{
					"internalType": "address",
					"name": "account",
					"type": "address"
				},
				{
					"internalType": "uint256[]",
					"name": "ids",
					"type": "uint256[]"
				},
				{
					"internalType": "uint256[]",
					"name": "values",
					"type": "uint256[]"
				}
			],
			"name": "burnBatch",
			"outputs": [],
			"stateMutability": "nonpayable",
			"type": "function"
		},
		{
			"inputs": [
				{
					"internalType": "uint256",
					"name": "tokenId",
					"type": "uint256"
				},
				{
					"internalType": "address payable",
					"name": "from",
					"type": "address"
				},
				{
					"internalType": "uint256",
					"name": "amount",
					"type": "uint256"
				}
			],
			"name": "buyToken",
			"outputs": [],
			"stateMutability": "payable",
			"type": "function"
		},
		{
			"inputs": [
				{
					"internalType": "uint256",
					"name": "supply",
					"type": "uint256"
				}
			],
			"name": "createToken",
			"outputs": [],
			"stateMutability": "nonpayable",
			"type": "function"
		},
		{
			"inputs": [],
			"name": "getAllTokensOnSale",
			"outputs": [
				{
					"components": [
						{
							"components": [
								{
									"internalType": "uint256",
									"name": "tokenId",
									"type": "uint256"
								},
								{
									"internalType": "uint256",
									"name": "supply",
									"type": "uint256"
								}
							],
							"internalType": "struct RealEstateToken.Token",
							"name": "token",
							"type": "tuple"
						},
						{
							"internalType": "address",
							"name": "beingSoldBy",
							"type": "address"
						},
						{
							"internalType": "uint256",
							"name": "pricePerToken",
							"type": "uint256"
						},
						{
							"internalType": "uint256",
							"name": "amount",
							"type": "uint256"
						}
					],
					"internalType": "struct RealEstateToken.TokenOnSale[]",
					"name": "",
					"type": "tuple[]"
				}
			],
			"stateMutability": "view",
			"type": "function"
		},
		{
			"inputs": [],
			"name": "getCurrentTokenId",
			"outputs": [
				{
					"internalType": "uint256",
					"name": "",
					"type": "uint256"
				}
			],
			"stateMutability": "view",
			"type": "function"
		},
		{
			"inputs": [
				{
					"internalType": "uint256",
					"name": "tokenId",
					"type": "uint256"
				},
				{
					"internalType": "address",
					"name": "owner",
					"type": "address"
				}
			],
			"name": "getTokenOnSaleByIdAndAddress",
			"outputs": [
				{
					"components": [
						{
							"components": [
								{
									"internalType": "uint256",
									"name": "tokenId",
									"type": "uint256"
								},
								{
									"internalType": "uint256",
									"name": "supply",
									"type": "uint256"
								}
							],
							"internalType": "struct RealEstateToken.Token",
							"name": "token",
							"type": "tuple"
						},
						{
							"internalType": "address",
							"name": "beingSoldBy",
							"type": "address"
						},
						{
							"internalType": "uint256",
							"name": "pricePerToken",
							"type": "uint256"
						},
						{
							"internalType": "uint256",
							"name": "amount",
							"type": "uint256"
						}
					],
					"internalType": "struct RealEstateToken.TokenOnSale",
					"name": "",
					"type": "tuple"
				},
				{
					"internalType": "uint256",
					"name": "index",
					"type": "uint256"
				}
			],
			"stateMutability": "view",
			"type": "function"
		},
		{
			"inputs": [
				{
					"internalType": "address",
					"name": "account",
					"type": "address"
				},
				{
					"internalType": "address",
					"name": "operator",
					"type": "address"
				}
			],
			"name": "isApprovedForAll",
			"outputs": [
				{
					"internalType": "bool",
					"name": "",
					"type": "bool"
				}
			],
			"stateMutability": "view",
			"type": "function"
		},
		{
			"inputs": [
				{
					"internalType": "address",
					"name": "account",
					"type": "address"
				},
				{
					"internalType": "uint256",
					"name": "id",
					"type": "uint256"
				},
				{
					"internalType": "uint256",
					"name": "amount",
					"type": "uint256"
				},
				{
					"internalType": "bytes",
					"name": "data",
					"type": "bytes"
				}
			],
			"name": "mint",
			"outputs": [],
			"stateMutability": "nonpayable",
			"type": "function"
		},
		{
			"inputs": [
				{
					"internalType": "address",
					"name": "to",
					"type": "address"
				},
				{
					"internalType": "uint256[]",
					"name": "ids",
					"type": "uint256[]"
				},
				{
					"internalType": "uint256[]",
					"name": "amounts",
					"type": "uint256[]"
				},
				{
					"internalType": "bytes",
					"name": "data",
					"type": "bytes"
				}
			],
			"name": "mintBatch",
			"outputs": [],
			"stateMutability": "nonpayable",
			"type": "function"
		},
		{
			"inputs": [],
			"name": "owner",
			"outputs": [
				{
					"internalType": "address",
					"name": "",
					"type": "address"
				}
			],
			"stateMutability": "view",
			"type": "function"
		},
		{
			"inputs": [],
			"name": "pause",
			"outputs": [],
			"stateMutability": "nonpayable",
			"type": "function"
		},
		{
			"inputs": [],
			"name": "paused",
			"outputs": [
				{
					"internalType": "bool",
					"name": "",
					"type": "bool"
				}
			],
			"stateMutability": "view",
			"type": "function"
		},
		{
			"inputs": [
				{
					"internalType": "uint256",
					"name": "tokenId",
					"type": "uint256"
				},
				{
					"internalType": "uint256",
					"name": "pricePerToken",
					"type": "uint256"
				},
				{
					"internalType": "uint256",
					"name": "amount",
					"type": "uint256"
				}
			],
			"name": "putTokenUpToSale",
			"outputs": [],
			"stateMutability": "nonpayable",
			"type": "function"
		},
		{
			"inputs": [],
			"name": "renounceOwnership",
			"outputs": [],
			"stateMutability": "nonpayable",
			"type": "function"
		},
		{
			"inputs": [
				{
					"internalType": "address",
					"name": "from",
					"type": "address"
				},
				{
					"internalType": "address",
					"name": "to",
					"type": "address"
				},
				{
					"internalType": "uint256[]",
					"name": "ids",
					"type": "uint256[]"
				},
				{
					"internalType": "uint256[]",
					"name": "values",
					"type": "uint256[]"
				},
				{
					"internalType": "bytes",
					"name": "data",
					"type": "bytes"
				}
			],
			"name": "safeBatchTransferFrom",
			"outputs": [],
			"stateMutability": "nonpayable",
			"type": "function"
		},
		{
			"inputs": [
				{
					"internalType": "address",
					"name": "from",
					"type": "address"
				},
				{
					"internalType": "address",
					"name": "to",
					"type": "address"
				},
				{
					"internalType": "uint256",
					"name": "id",
					"type": "uint256"
				},
				{
					"internalType": "uint256",
					"name": "value",
					"type": "uint256"
				},
				{
					"internalType": "bytes",
					"name": "data",
					"type": "bytes"
				}
			],
			"name": "safeTransferFrom",
			"outputs": [],
			"stateMutability": "nonpayable",
			"type": "function"
		},
		{
			"inputs": [
				{
					"internalType": "address",
					"name": "operator",
					"type": "address"
				},
				{
					"internalType": "bool",
					"name": "approved",
					"type": "bool"
				}
			],
			"name": "setApprovalForAll",
			"outputs": [],
			"stateMutability": "nonpayable",
			"type": "function"
		},
		{
			"inputs": [
				{
					"internalType": "string",
					"name": "newuri",
					"type": "string"
				}
			],
			"name": "setURI",
			"outputs": [],
			"stateMutability": "nonpayable",
			"type": "function"
		},
		{
			"inputs": [
				{
					"internalType": "bytes4",
					"name": "interfaceId",
					"type": "bytes4"
				}
			],
			"name": "supportsInterface",
			"outputs": [
				{
					"internalType": "bool",
					"name": "",
					"type": "bool"
				}
			],
			"stateMutability": "view",
			"type": "function"
		},
		{
			"inputs": [
				{
					"internalType": "address",
					"name": "newOwner",
					"type": "address"
				}
			],
			"name": "transferOwnership",
			"outputs": [],
			"stateMutability": "nonpayable",
			"type": "function"
		},
		{
			"inputs": [],
			"name": "unpause",
			"outputs": [],
			"stateMutability": "nonpayable",
			"type": "function"
		},
		{
			"inputs": [
				{
					"internalType": "uint256",
					"name": "",
					"type": "uint256"
				}
			],
			"name": "uri",
			"outputs": [
				{
					"internalType": "string",
					"name": "",
					"type": "string"
				}
			],
			"stateMutability": "view",
			"type": "function"
		},
		{
			"stateMutability": "payable",
			"type": "receive"
		}
	]
}